{
  "_format": "hh-sol-artifact-1",
  "contractName": "VestingEscrow",
  "sourceName": "contracts/VestingEscrow.sol",
  "abi": [
    {
      "inputs": [
        {
          "internalType": "address",
          "name": "_token",
          "type": "address"
        },
        {
          "internalType": "uint256",
          "name": "_start_time",
          "type": "uint256"
        },
        {
          "internalType": "uint256",
          "name": "_end_time",
          "type": "uint256"
        },
        {
          "internalType": "bool",
          "name": "_can_disable",
          "type": "bool"
        },
        {
          "internalType": "address[4]",
          "name": "_fund_admins",
          "type": "address[4]"
        }
      ],
      "stateMutability": "nonpayable",
      "type": "constructor"
    },
    {
      "anonymous": false,
      "inputs": [
        {
          "indexed": false,
          "internalType": "address",
          "name": "admin",
          "type": "address"
        }
      ],
      "name": "ApplyOwnership",
      "type": "event"
    },
    {
      "anonymous": false,
      "inputs": [
        {
          "indexed": true,
          "internalType": "address",
          "name": "recipient",
          "type": "address"
        },
        {
          "indexed": false,
          "internalType": "uint256",
          "name": "claimed",
          "type": "uint256"
        }
      ],
      "name": "Claim",
      "type": "event"
    },
    {
      "anonymous": false,
      "inputs": [
        {
          "indexed": false,
          "internalType": "address",
          "name": "admin",
          "type": "address"
        }
      ],
      "name": "CommitOwnership",
      "type": "event"
    },
    {
      "anonymous": false,
      "inputs": [
        {
          "indexed": true,
          "internalType": "address",
          "name": "recipient",
          "type": "address"
        },
        {
          "indexed": false,
          "internalType": "uint256",
          "name": "amount",
          "type": "uint256"
        }
      ],
      "name": "Fund",
      "type": "event"
    },
    {
      "anonymous": false,
      "inputs": [
        {
          "indexed": false,
          "internalType": "address",
          "name": "recipient",
          "type": "address"
        },
        {
          "indexed": false,
          "internalType": "bool",
          "name": "disabled",
          "type": "bool"
        }
      ],
      "name": "ToggleDisable",
      "type": "event"
    },
    {
      "inputs": [
        {
          "internalType": "uint256",
          "name": "_amount",
          "type": "uint256"
        }
      ],
      "name": "add_tokens",
      "outputs": [],
      "stateMutability": "nonpayable",
      "type": "function"
    },
    {
      "inputs": [],
      "name": "admin",
      "outputs": [
        {
          "internalType": "address",
          "name": "",
          "type": "address"
        }
      ],
      "stateMutability": "view",
      "type": "function"
    },
    {
      "inputs": [],
      "name": "apply_transfer_ownership",
      "outputs": [
        {
          "internalType": "bool",
          "name": "",
          "type": "bool"
        }
      ],
      "stateMutability": "nonpayable",
      "type": "function"
    },
    {
      "inputs": [
        {
          "internalType": "address",
          "name": "_recipient",
          "type": "address"
        }
      ],
      "name": "balanceOf",
      "outputs": [
        {
          "internalType": "uint256",
          "name": "",
          "type": "uint256"
        }
      ],
      "stateMutability": "view",
      "type": "function"
    },
    {
      "inputs": [],
      "name": "can_disable",
      "outputs": [
        {
          "internalType": "bool",
          "name": "",
          "type": "bool"
        }
      ],
      "stateMutability": "view",
      "type": "function"
    },
    {
      "inputs": [
        {
          "internalType": "address",
          "name": "addr",
          "type": "address"
        }
      ],
      "name": "claim",
      "outputs": [],
      "stateMutability": "nonpayable",
      "type": "function"
    },
    {
      "inputs": [
        {
          "internalType": "address",
          "name": "addr",
          "type": "address"
        }
      ],
      "name": "commit_transfer_ownership",
      "outputs": [
        {
          "internalType": "bool",
          "name": "",
          "type": "bool"
        }
      ],
      "stateMutability": "nonpayable",
      "type": "function"
    },
    {
      "inputs": [],
      "name": "disable_can_disable",
      "outputs": [],
      "stateMutability": "nonpayable",
      "type": "function"
    },
    {
      "inputs": [],
      "name": "disable_fund_admins",
      "outputs": [],
      "stateMutability": "nonpayable",
      "type": "function"
    },
    {
      "inputs": [
        {
          "internalType": "address",
          "name": "",
          "type": "address"
        }
      ],
      "name": "disabled_at",
      "outputs": [
        {
          "internalType": "uint256",
          "name": "",
          "type": "uint256"
        }
      ],
      "stateMutability": "view",
      "type": "function"
    },
    {
      "inputs": [],
      "name": "end_time",
      "outputs": [
        {
          "internalType": "uint256",
          "name": "",
          "type": "uint256"
        }
      ],
      "stateMutability": "view",
      "type": "function"
    },
    {
      "inputs": [
        {
          "internalType": "address[100]",
          "name": "_recipients",
          "type": "address[100]"
        },
        {
          "internalType": "uint256[100]",
          "name": "_amounts",
          "type": "uint256[100]"
        }
      ],
      "name": "fund",
      "outputs": [],
      "stateMutability": "nonpayable",
      "type": "function"
    },
    {
      "inputs": [
        {
          "internalType": "address",
          "name": "",
          "type": "address"
        }
      ],
      "name": "fund_admins",
      "outputs": [
        {
          "internalType": "bool",
          "name": "",
          "type": "bool"
        }
      ],
      "stateMutability": "view",
      "type": "function"
    },
    {
      "inputs": [],
      "name": "fund_admins_enabled",
      "outputs": [
        {
          "internalType": "bool",
          "name": "",
          "type": "bool"
        }
      ],
      "stateMutability": "view",
      "type": "function"
    },
    {
      "inputs": [],
      "name": "future_admin",
      "outputs": [
        {
          "internalType": "address",
          "name": "",
          "type": "address"
        }
      ],
      "stateMutability": "view",
      "type": "function"
    },
    {
      "inputs": [
        {
          "internalType": "address",
          "name": "",
          "type": "address"
        }
      ],
      "name": "initial_locked",
      "outputs": [
        {
          "internalType": "uint256",
          "name": "",
          "type": "uint256"
        }
      ],
      "stateMutability": "view",
      "type": "function"
    },
    {
      "inputs": [],
      "name": "initial_locked_supply",
      "outputs": [
        {
          "internalType": "uint256",
          "name": "",
          "type": "uint256"
        }
      ],
      "stateMutability": "view",
      "type": "function"
    },
    {
      "inputs": [
        {
          "internalType": "address",
          "name": "_recipient",
          "type": "address"
        }
      ],
      "name": "lockedOf",
      "outputs": [
        {
          "internalType": "uint256",
          "name": "",
          "type": "uint256"
        }
      ],
      "stateMutability": "view",
      "type": "function"
    },
    {
      "inputs": [],
      "name": "lockedSupply",
      "outputs": [
        {
          "internalType": "uint256",
          "name": "",
          "type": "uint256"
        }
      ],
      "stateMutability": "view",
      "type": "function"
    },
    {
      "inputs": [],
      "name": "start_time",
      "outputs": [
        {
          "internalType": "uint256",
          "name": "",
          "type": "uint256"
        }
      ],
      "stateMutability": "view",
      "type": "function"
    },
    {
      "inputs": [
        {
          "internalType": "address",
          "name": "_recipient",
          "type": "address"
        }
      ],
      "name": "toggle_disable",
      "outputs": [],
      "stateMutability": "nonpayable",
      "type": "function"
    },
    {
      "inputs": [],
      "name": "token",
      "outputs": [
        {
          "internalType": "address",
          "name": "",
          "type": "address"
        }
      ],
      "stateMutability": "view",
      "type": "function"
    },
    {
      "inputs": [
        {
          "internalType": "address",
          "name": "",
          "type": "address"
        }
      ],
      "name": "total_claimed",
      "outputs": [
        {
          "internalType": "uint256",
          "name": "",
          "type": "uint256"
        }
      ],
      "stateMutability": "view",
      "type": "function"
    },
    {
      "inputs": [],
      "name": "unallocated_supply",
      "outputs": [
        {
          "internalType": "uint256",
          "name": "",
          "type": "uint256"
        }
      ],
      "stateMutability": "view",
      "type": "function"
    },
    {
      "inputs": [
        {
          "internalType": "address",
          "name": "_recipient",
          "type": "address"
        }
      ],
      "name": "vestedOf",
      "outputs": [
        {
          "internalType": "uint256",
          "name": "",
          "type": "uint256"
        }
      ],
      "stateMutability": "view",
      "type": "function"
    },
    {
      "inputs": [],
      "name": "vestedSupply",
      "outputs": [
        {
          "internalType": "uint256",
          "name": "",
          "type": "uint256"
        }
      ],
      "stateMutability": "view",
      "type": "function"
    }
  ],
  "bytecode": "0x608060405234801561001057600080fd5b506040516112e03803806112e0833981810160405261010081101561003457600080fd5b50805160208201516040830151606084015160016000559293919290916080014284101561005e57fe5b83831161006757fe5b600180546001600160a01b0387166001600160a01b031991821617909155600a805490911633179055600284905560038390556008805483151560ff199091161790556000805b60048110156101245760008382600481106100c557fe5b602002015190506001600160a01b0381161561011b576001600160a01b0381166000908152600c60205260409020805460ff191660011790558261011b57600b805460ff60a01b1916600160a01b179055600192505b506001016100ae565b505050505050506111a68061013a6000396000f3fe608060405234801561001057600080fd5b506004361061018e5760003560e01c80636b441a40116100de578063b8638e1e11610097578063d9844dc011610071578063d9844dc0146103c8578063dc4555da146103d0578063f851a44014610451578063fc0c546a146104595761018e565b8063b8638e1e1461037d578063ca5c7b91146103a3578063d78c4464146103ab5761018e565b80636b441a40146102d557806370a08231146102fb57806372dd3ee814610321578063834ee417146103295780639447710414610331578063a5f1e282146103575761018e565b80631e83409a1161014b57806336fc59c71161012557806336fc59c71461025b57806350b3aad4146102815780636a1c05ae146102a75780636b10247d146102af5761018e565b80631e83409a1461022357806321dc49b41461024b5780632a1e50fd146102535761018e565b80630568de41146101935780630b080cc2146101af578063144d4f25146101c957806316243356146101d15780631696c387146101d957806317f7182a146101ff575b600080fd5b61019b610461565b604080519115158252519081900360200190f35b6101b761046a565b60408051918252519081900360200190f35b61019b610470565b6101b7610480565b61019b600480360360208110156101ef57600080fd5b50356001600160a01b0316610486565b61020761049b565b604080516001600160a01b039092168252519081900360200190f35b6102496004803603602081101561023957600080fd5b50356001600160a01b03166104aa565b005b6101b761065f565b610249610665565b6102496004803603602081101561027157600080fd5b50356001600160a01b03166106c1565b6101b76004803603602081101561029757600080fd5b50356001600160a01b03166107fd565b61019b61080f565b6101b7600480360360208110156102c557600080fd5b50356001600160a01b0316610910565b61019b600480360360208110156102eb57600080fd5b50356001600160a01b0316610922565b6101b76004803603602081101561031157600080fd5b50356001600160a01b03166109cf565b6102496109fc565b6101b7610a5b565b6101b76004803603602081101561034757600080fd5b50356001600160a01b0316610a61565b6101b76004803603602081101561036d57600080fd5b50356001600160a01b0316610a6d565b6101b76004803603602081101561039357600080fd5b50356001600160a01b0316610a9b565b6101b7610aad565b610249600480360360208110156103c157600080fd5b5035610ac8565b6101b7610bf8565b61024960048036036119008110156103e757600080fd5b8101908080610c80019060648060200260405190810160405280929190826064602002808284376000920191909152505060408051610c8081810190925292959493818101939250906064908390839080828437600092019190915250919450610c029350505050565b610207610e27565b610207610e36565b60085460ff1681565b60075481565b600b54600160a01b900460ff1681565b60035481565b600c6020526000908152604090205460ff1681565b600b546001600160a01b031681565b60026000541415610502576040805162461bcd60e51b815260206004820152601f60248201527f5265656e7472616e637947756172643a207265656e7472616e742063616c6c00604482015290519081900360640190fd5b600260009081556001600160a01b038216815260096020526040902054806105275750425b6001600160a01b0382166000908152600560205260408120546105549061054e8585610e45565b90610eb6565b6001600160a01b03841660009081526005602052604090205490915061057a9082610eff565b6001600160a01b03808516600081815260056020908152604080832095909555600154855163a9059cbb60e01b81526004810194909452602484018790529451949093169363a9059cbb936044808501949193918390030190829087803b1580156105e457600080fd5b505af11580156105f8573d6000803e3d6000fd5b505050506040513d602081101561060e57600080fd5b505161061657fe5b6040805182815290516001600160a01b038516917f47cee97cb7acd717b3c0aa1435d004cd5b3c8c57d70dbceb4e4458bbd60e39d4919081900360200190a25050600160005550565b60065481565b600a546001600160a01b031633146106b5576040805162461bcd60e51b815260206004820152600e60248201526d6465762061646d696e206f6e6c7960901b604482015290519081900360640190fd5b6008805460ff19169055565b600a546001600160a01b03163314610712576040805162461bcd60e51b815260206004820152600f60248201526e6465763a2061646d696e206f6e6c7960881b604482015290519081900360640190fd5b60085460ff1661075a576040805162461bcd60e51b815260206004820152600e60248201526d43616e6e6f742064697361626c6560901b604482015290519081900360640190fd5b6001600160a01b03811660009081526009602052604090205415801561079a576001600160a01b03821660009081526009602052604090204290556107b4565b6001600160a01b0382166000908152600960205260408120555b604080516001600160a01b0384168152821515602082015281517fcc8442d1b68aaf1cdb1da2b3d9ebf3daad586d3404166b75d744a8b5092cefad929181900390910190a15050565b60046020526000908152604090205481565b600a546000906001600160a01b03163314610863576040805162461bcd60e51b815260206004820152600f60248201526e6465763a2061646d696e206f6e6c7960881b604482015290519081900360640190fd5b600b546001600160a01b0316806108b6576040805162461bcd60e51b815260206004820152601260248201527119195d8e8818591b5a5b881b9bdd081cd95d60721b604482015290519081900360640190fd5b600a80546001600160a01b0383166001600160a01b0319909116811790915560408051918252517febee2d5739011062cb4f14113f3b36bf0ffe3da5c0568f64189d1012a11891059181900360200190a160019150505b90565b60096020526000908152604090205481565b600a546000906001600160a01b03163314610976576040805162461bcd60e51b815260206004820152600f60248201526e6465763a2061646d696e206f6e6c7960881b604482015290519081900360640190fd5b600b80546001600160a01b0384166001600160a01b0319909116811790915560408051918252517f2f56810a6bf40af059b96d3aea4db54081f378029a518390491093a7b67032e99181900360200190a1506001919050565b6001600160a01b0381166000908152600560205260408120546109f69061054e8442610e45565b92915050565b600a546001600160a01b03163314610a4c576040805162461bcd60e51b815260206004820152600e60248201526d6465762061646d696e206f6e6c7960901b604482015290519081900360640190fd5b600b805460ff60a01b19169055565b60025481565b60006109f68242610e45565b60006109f6610a7c8342610e45565b6001600160a01b03841660009081526004602052604090205490610eb6565b60056020526000908152604090205481565b6000610ac3610aba610f59565b60065490610eb6565b905090565b600a546001600160a01b03163314610b18576040805162461bcd60e51b815260206004820152600e60248201526d6465762061646d696e206f6e6c7960901b604482015290519081900360640190fd5b600154604080516323b872dd60e01b81523360048201523060248201526044810184905290516001600160a01b03909216916323b872dd916064808201926020929091908290030181600087803b158015610b7257600080fd5b505af1158015610b86573d6000803e3d6000fd5b505050506040513d6020811015610b9c57600080fd5b5051610be5576040805162461bcd60e51b815260206004820152601360248201527219195d881d1c985b9cd9995c8819985a5b1959606a1b604482015290519081900360640190fd5b600754610bf29082610eff565b60075550565b6000610ac3610f59565b60026000541415610c5a576040805162461bcd60e51b815260206004820152601f60248201527f5265656e7472616e637947756172643a207265656e7472616e742063616c6c00604482015290519081900360640190fd5b6002600055600a546001600160a01b03163314610d2457336000908152600c602052604090205460ff16610cc6576040805162461bcd60e51b815260206004820152600e60248201526d6465762061646d696e206f6e6c7960901b604482015290519081900360640190fd5b600b54600160a01b900460ff16610d24576040805162461bcd60e51b815260206004820152601860248201527f6465762066756e642061646d696e732064697361626c65640000000000000000604482015290519081900360640190fd5b6000805b6064811015610dfc576000838260648110610d3f57fe5b602002015190506000858360648110610d5457fe5b602002015190506001600160a01b038116610d70575050610dfc565b610d7a8483610eff565b6001600160a01b038216600090815260046020526040902054909450610da09083610eff565b6001600160a01b038216600081815260046020908152604091829020939093558051858152905191927fda8220a878ff7a89474ccffdaa31ea1ed1ffbb0207d5051afccc4fbaf81f9bcd92918290030190a25050600101610d28565b50600654610e0a9082610eff565b600655600754610e1a9082610eb6565b6007555050600160005550565b600a546001600160a01b031681565b6001546001600160a01b031681565b6002546003546001600160a01b0384166000908152600460205260408120549092919082851015610e7c57600093505050506109f6565b610eac610ea6610e8c8486610eb6565b610ea0610e998988610eb6565b8590610fa2565b90610ffb565b8261103d565b9695505050505050565b6000610ef883836040518060400160405280601e81526020017f536166654d6174683a207375627472616374696f6e206f766572666c6f770000815250611053565b9392505050565b600082820183811015610ef8576040805162461bcd60e51b815260206004820152601b60248201527f536166654d6174683a206164646974696f6e206f766572666c6f770000000000604482015290519081900360640190fd5b600254600354600654600092919042831115610f7b576000935050505061090d565b610f98610ea6610f8b8486610eb6565b610ea0610e994288610eb6565b935050505061090d565b600082610fb1575060006109f6565b82820282848281610fbe57fe5b0414610ef85760405162461bcd60e51b81526004018080602001828103825260218152602001806111506021913960400191505060405180910390fd5b6000610ef883836040518060400160405280601a81526020017f536166654d6174683a206469766973696f6e206279207a65726f0000000000008152506110ea565b600081831061104c5781610ef8565b5090919050565b600081848411156110e25760405162461bcd60e51b81526004018080602001828103825283818151815260200191508051906020019080838360005b838110156110a757818101518382015260200161108f565b50505050905090810190601f1680156110d45780820380516001836020036101000a031916815260200191505b509250505060405180910390fd5b505050900390565b600081836111395760405162461bcd60e51b81526020600482018181528351602484015283519092839260449091019190850190808383600083156110a757818101518382015260200161108f565b50600083858161114557fe5b049594505050505056fe536166654d6174683a206d756c7469706c69636174696f6e206f766572666c6f77a2646970667358221220c1761eec883469d19d3be20f9f46d1f92c36b09a03e4ae3e23f34bdefc479ce664736f6c634300060c0033",
  "linkReferences": {},
  "deployedLinkReferences": {}
}