{
  "_format": "hh-sol-artifact-1",
  "contractName": "TestLP",
  "sourceName": "contracts/testing/TestLP.sol",
  "abi": [
    {
      "inputs": [
        {
          "internalType": "string",
          "name": "_name",
          "type": "string"
        },
        {
          "internalType": "string",
          "name": "_symbol",
          "type": "string"
        },
        {
          "internalType": "uint256",
          "name": "_decimal",
          "type": "uint256"
        },
        {
          "internalType": "uint256",
          "name": "_supply",
          "type": "uint256"
        }
      ],
      "stateMutability": "nonpayable",
      "type": "constructor"
    },
    {
      "anonymous": false,
      "inputs": [
        {
          "indexed": true,
          "internalType": "address",
          "name": "_owner",
          "type": "address"
        },
        {
          "indexed": true,
          "internalType": "address",
          "name": "_spender",
          "type": "address"
        },
        {
          "indexed": false,
          "internalType": "uint256",
          "name": "_value",
          "type": "uint256"
        }
      ],
      "name": "Approval",
      "type": "event"
    },
    {
      "anonymous": false,
      "inputs": [
        {
          "indexed": true,
          "internalType": "address",
          "name": "_from",
          "type": "address"
        },
        {
          "indexed": true,
          "internalType": "address",
          "name": "_to",
          "type": "address"
        },
        {
          "indexed": false,
          "internalType": "uint256",
          "name": "_value",
          "type": "uint256"
        }
      ],
      "name": "Transfer",
      "type": "event"
    },
    {
      "inputs": [],
      "name": "_decimals",
      "outputs": [
        {
          "internalType": "uint256",
          "name": "",
          "type": "uint256"
        }
      ],
      "stateMutability": "view",
      "type": "function"
    },
    {
      "inputs": [
        {
          "internalType": "address",
          "name": "_owner",
          "type": "address"
        },
        {
          "internalType": "address",
          "name": "_spender",
          "type": "address"
        }
      ],
      "name": "allowance",
      "outputs": [
        {
          "internalType": "uint256",
          "name": "",
          "type": "uint256"
        }
      ],
      "stateMutability": "view",
      "type": "function"
    },
    {
      "inputs": [
        {
          "internalType": "address",
          "name": "_spender",
          "type": "address"
        },
        {
          "internalType": "uint256",
          "name": "_value",
          "type": "uint256"
        }
      ],
      "name": "approve",
      "outputs": [
        {
          "internalType": "bool",
          "name": "",
          "type": "bool"
        }
      ],
      "stateMutability": "nonpayable",
      "type": "function"
    },
    {
      "inputs": [
        {
          "internalType": "address",
          "name": "",
          "type": "address"
        }
      ],
      "name": "balanceOf",
      "outputs": [
        {
          "internalType": "uint256",
          "name": "",
          "type": "uint256"
        }
      ],
      "stateMutability": "view",
      "type": "function"
    },
    {
      "inputs": [
        {
          "internalType": "uint256",
          "name": "_value",
          "type": "uint256"
        }
      ],
      "name": "burn",
      "outputs": [],
      "stateMutability": "nonpayable",
      "type": "function"
    },
    {
      "inputs": [
        {
          "internalType": "address",
          "name": "_to",
          "type": "address"
        },
        {
          "internalType": "uint256",
          "name": "_value",
          "type": "uint256"
        }
      ],
      "name": "burnFrom",
      "outputs": [],
      "stateMutability": "nonpayable",
      "type": "function"
    },
    {
      "inputs": [
        {
          "internalType": "address",
          "name": "_to",
          "type": "address"
        },
        {
          "internalType": "uint256",
          "name": "_value",
          "type": "uint256"
        }
      ],
      "name": "mint",
      "outputs": [],
      "stateMutability": "nonpayable",
      "type": "function"
    },
    {
      "inputs": [],
      "name": "minter",
      "outputs": [
        {
          "internalType": "address",
          "name": "",
          "type": "address"
        }
      ],
      "stateMutability": "view",
      "type": "function"
    },
    {
      "inputs": [],
      "name": "name",
      "outputs": [
        {
          "internalType": "string",
          "name": "",
          "type": "string"
        }
      ],
      "stateMutability": "view",
      "type": "function"
    },
    {
      "inputs": [
        {
          "internalType": "address",
          "name": "_minter",
          "type": "address"
        }
      ],
      "name": "set_minter",
      "outputs": [],
      "stateMutability": "nonpayable",
      "type": "function"
    },
    {
      "inputs": [],
      "name": "symbol",
      "outputs": [
        {
          "internalType": "string",
          "name": "",
          "type": "string"
        }
      ],
      "stateMutability": "view",
      "type": "function"
    },
    {
      "inputs": [],
      "name": "totalSupply",
      "outputs": [
        {
          "internalType": "uint256",
          "name": "",
          "type": "uint256"
        }
      ],
      "stateMutability": "view",
      "type": "function"
    },
    {
      "inputs": [],
      "name": "total_supply",
      "outputs": [
        {
          "internalType": "uint256",
          "name": "",
          "type": "uint256"
        }
      ],
      "stateMutability": "view",
      "type": "function"
    },
    {
      "inputs": [
        {
          "internalType": "address",
          "name": "_to",
          "type": "address"
        },
        {
          "internalType": "uint256",
          "name": "_value",
          "type": "uint256"
        }
      ],
      "name": "transfer",
      "outputs": [
        {
          "internalType": "bool",
          "name": "",
          "type": "bool"
        }
      ],
      "stateMutability": "nonpayable",
      "type": "function"
    },
    {
      "inputs": [
        {
          "internalType": "address",
          "name": "_from",
          "type": "address"
        },
        {
          "internalType": "address",
          "name": "_to",
          "type": "address"
        },
        {
          "internalType": "uint256",
          "name": "_value",
          "type": "uint256"
        }
      ],
      "name": "transferFrom",
      "outputs": [
        {
          "internalType": "bool",
          "name": "",
          "type": "bool"
        }
      ],
      "stateMutability": "nonpayable",
      "type": "function"
    }
  ],
  "bytecode": "0x60806040523480156200001157600080fd5b5060405162000f7138038062000f71833981810160405260808110156200003757600080fd5b81019080805160405193929190846401000000008211156200005857600080fd5b9083019060208201858111156200006e57600080fd5b82516401000000008111828201881017156200008957600080fd5b82525081516020918201929091019080838360005b83811015620000b85781810151838201526020016200009e565b50505050905090810190601f168015620000e65780820380516001836020036101000a031916815260200191505b50604052602001805160405193929190846401000000008211156200010a57600080fd5b9083019060208201858111156200012057600080fd5b82516401000000008111828201881017156200013b57600080fd5b82525081516020918201929091019080838360005b838110156200016a57818101518382015260200162000150565b50505050905090810190601f168015620001985780820380516001836020036101000a031916815260200191505b50604090815260208281015192909101516002549294509250600091620001ce918491600a0a90620008f86200026b821b17901c565b8551909150620001e6906000906020880190620002d2565b508351620001fc906001906020870190620002d2565b5060028390553360008181526003602090815260408083208590556005859055600680546001600160a01b03191685179055805185815290517fddf252ad1be2c89b69c2b068fc378daa952ba7f163c4a11628f55a4df523b3ef929181900390910190a350505050506200036e565b6000826200027c57506000620002cc565b828202828482816200028a57fe5b0414620002c95760405162461bcd60e51b815260040180806020018281038252602181526020018062000f506021913960400191505060405180910390fd5b90505b92915050565b828054600181600116156101000203166002900490600052602060002090601f016020900481019282601f106200031557805160ff191683800117855562000345565b8280016001018555821562000345579182015b828111156200034557825182559160200191906001019062000328565b506200035392915062000357565b5090565b5b8082111562000353576000815560010162000358565b610bd2806200037e6000396000f3fe608060405234801561001057600080fd5b50600436106100f55760003560e01c80633940e9ee1161009757806379cc67901161006657806379cc6790146102d257806395d89b41146102fe578063a9059cbb14610306578063dd62ed3e14610332576100f5565b80633940e9ee1461025b57806340c10f191461026357806342966c681461028f57806370a08231146102ac576100f5565b80631652e9fc116100d35780631652e9fc146101db57806318160ddd1461020357806323b872dd1461021d57806332424aa314610253576100f5565b806306fdde03146100fa5780630754617214610177578063095ea7b31461019b575b600080fd5b610102610360565b6040805160208082528351818301528351919283929083019185019080838360005b8381101561013c578181015183820152602001610124565b50505050905090810190601f1680156101695780820380516001836020036101000a031916815260200191505b509250505060405180910390f35b61017f6103ee565b604080516001600160a01b039092168252519081900360200190f35b6101c7600480360360408110156101b157600080fd5b506001600160a01b0381351690602001356103fd565b604080519115158252519081900360200190f35b610201600480360360208110156101f157600080fd5b50356001600160a01b0316610464565b005b61020b61049a565b60408051918252519081900360200190f35b6101c76004803603606081101561023357600080fd5b506001600160a01b038135811691602081013590911690604001356104a0565b61020b61063b565b61020b610641565b6102016004803603604081101561027957600080fd5b506001600160a01b038135169060200135610647565b610201600480360360208110156102a557600080fd5b50356106e4565b61020b600480360360208110156102c257600080fd5b50356001600160a01b0316610750565b610201600480360360408110156102e857600080fd5b506001600160a01b038135169060200135610762565b6101026107cf565b6101c76004803603604081101561031c57600080fd5b506001600160a01b038135169060200135610829565b61020b6004803603604081101561034857600080fd5b506001600160a01b03813581169160200135166108cd565b6000805460408051602060026001851615610100026000190190941693909304601f810184900484028201840190925281815292918301828280156103e65780601f106103bb576101008083540402835291602001916103e6565b820191906000526020600020905b8154815290600101906020018083116103c957829003601f168201915b505050505081565b6006546001600160a01b031681565b3360008181526004602090815260408083206001600160a01b038716808552908352818420869055815186815291519394909390927f8c5be1e5ebec7d5bd14f71427d1e84f3dd0314c0f7b2291e5b200ac8c7c3b925928290030190a35060015b92915050565b6006546001600160a01b0316331461047857fe5b600680546001600160a01b0319166001600160a01b0392909216919091179055565b60055490565b60006001600160a01b0384166104e75760405162461bcd60e51b8152600401808060200182810382526025815260200180610b786025913960400191505060405180910390fd5b6001600160a01b03831661052c5760405162461bcd60e51b8152600401808060200182810382526023815260200180610b146023913960400191505060405180910390fd5b6001600160a01b03841660009081526003602052604090205461054f9083610958565b6001600160a01b03808616600090815260036020526040808220939093559085168152205461057e908361099a565b6001600160a01b038481166000908152600360205260409020919091556006541633146105f8576001600160a01b03841660009081526004602090815260408083203384529091529020546105d39083610958565b6001600160a01b03851660009081526004602090815260408083203384529091529020555b826001600160a01b0316846001600160a01b0316600080516020610b58833981519152846040518082815260200191505060405180910390a35060019392505050565b60025481565b60055481565b6006546001600160a01b0316331461065b57fe5b6001600160a01b03821661066b57fe5b600554610678908261099a565b6005556001600160a01b03821660009081526003602052604090205461069e908261099a565b6001600160a01b0383166000818152600360209081526040808320949094558351858152935192939192600080516020610b588339815191529281900390910190a35050565b6006546001600160a01b03163314610743576040805162461bcd60e51b815260206004820152601e60248201527f4f6e6c79206d696e74657220697320616c6c6f77656420746f206275726e0000604482015290519081900360640190fd5b61074d33826109f4565b50565b60036020526000908152604090205481565b6006546001600160a01b031633146107c1576040805162461bcd60e51b815260206004820152601e60248201527f4f6e6c79206d696e74657220697320616c6c6f77656420746f206275726e0000604482015290519081900360640190fd5b6107cb82826109f4565b5050565b60018054604080516020600284861615610100026000190190941693909304601f810184900484028201840190925281815292918301828280156103e65780601f106103bb576101008083540402835291602001916103e6565b60006001600160a01b03831661083b57fe5b336000908152600360205260409020546108559083610958565b33600090815260036020526040808220929092556001600160a01b03851681522054610881908361099a565b6001600160a01b038416600081815260036020908152604091829020939093558051858152905191923392600080516020610b588339815191529281900390910190a350600192915050565b6001600160a01b03918216600090815260046020908152604080832093909416825291909152205490565b6000826109075750600061045e565b8282028284828161091457fe5b04146109515760405162461bcd60e51b8152600401808060200182810382526021815260200180610b376021913960400191505060405180910390fd5b9392505050565b600061095183836040518060400160405280601e81526020017f536166654d6174683a207375627472616374696f6e206f766572666c6f770000815250610a7c565b600082820183811015610951576040805162461bcd60e51b815260206004820152601b60248201527f536166654d6174683a206164646974696f6e206f766572666c6f770000000000604482015290519081900360640190fd5b6001600160a01b038216610a0457fe5b600554610a119082610958565b6005556001600160a01b038216600090815260036020526040902054610a379082610958565b6001600160a01b038316600081815260036020908152604080832094909455835185815293519193600080516020610b58833981519152929081900390910190a35050565b60008184841115610b0b5760405162461bcd60e51b81526004018080602001828103825283818151815260200191508051906020019080838360005b83811015610ad0578181015183820152602001610ab8565b50505050905090810190601f168015610afd5780820380516001836020036101000a031916815260200191505b509250505060405180910390fd5b50505090039056fe45524332303a207472616e7366657220746f20746865207a65726f2061646472657373536166654d6174683a206d756c7469706c69636174696f6e206f766572666c6f77ddf252ad1be2c89b69c2b068fc378daa952ba7f163c4a11628f55a4df523b3ef45524332303a207472616e736665722066726f6d20746865207a65726f2061646472657373a2646970667358221220616480132f48e2e373026f8928e626cd2b14b7e7adf41c9b6a5b81805b4c615c64736f6c634300060c0033536166654d6174683a206d756c7469706c69636174696f6e206f766572666c6f77",
  "linkReferences": {},
  "deployedLinkReferences": {}
}