{
  "_format": "hh-sol-artifact-1",
  "contractName": "VestingEscrowSimple",
  "sourceName": "contracts/VestingEscrowSimple.sol",
  "abi": [
    {
      "inputs": [],
      "stateMutability": "nonpayable",
      "type": "constructor"
    },
    {
      "anonymous": false,
      "inputs": [
        {
          "indexed": false,
          "internalType": "address",
          "name": "admin",
          "type": "address"
        }
      ],
      "name": "ApplyOwnership",
      "type": "event"
    },
    {
      "anonymous": false,
      "inputs": [
        {
          "indexed": true,
          "internalType": "address",
          "name": "recipient",
          "type": "address"
        },
        {
          "indexed": false,
          "internalType": "uint256",
          "name": "claimed",
          "type": "uint256"
        }
      ],
      "name": "Claim",
      "type": "event"
    },
    {
      "anonymous": false,
      "inputs": [
        {
          "indexed": false,
          "internalType": "address",
          "name": "admin",
          "type": "address"
        }
      ],
      "name": "CommitOwnership",
      "type": "event"
    },
    {
      "anonymous": false,
      "inputs": [
        {
          "indexed": true,
          "internalType": "address",
          "name": "recipient",
          "type": "address"
        },
        {
          "indexed": false,
          "internalType": "uint256",
          "name": "amount",
          "type": "uint256"
        }
      ],
      "name": "Fund",
      "type": "event"
    },
    {
      "anonymous": false,
      "inputs": [
        {
          "indexed": false,
          "internalType": "address",
          "name": "recipient",
          "type": "address"
        },
        {
          "indexed": false,
          "internalType": "bool",
          "name": "disabled",
          "type": "bool"
        }
      ],
      "name": "ToggleDisable",
      "type": "event"
    },
    {
      "inputs": [],
      "name": "admin",
      "outputs": [
        {
          "internalType": "address",
          "name": "",
          "type": "address"
        }
      ],
      "stateMutability": "view",
      "type": "function"
    },
    {
      "inputs": [],
      "name": "apply_transfer_ownership",
      "outputs": [
        {
          "internalType": "bool",
          "name": "",
          "type": "bool"
        }
      ],
      "stateMutability": "nonpayable",
      "type": "function"
    },
    {
      "inputs": [
        {
          "internalType": "address",
          "name": "_recipient",
          "type": "address"
        }
      ],
      "name": "balanceOf",
      "outputs": [
        {
          "internalType": "uint256",
          "name": "",
          "type": "uint256"
        }
      ],
      "stateMutability": "view",
      "type": "function"
    },
    {
      "inputs": [],
      "name": "can_disable",
      "outputs": [
        {
          "internalType": "bool",
          "name": "",
          "type": "bool"
        }
      ],
      "stateMutability": "view",
      "type": "function"
    },
    {
      "inputs": [
        {
          "internalType": "address",
          "name": "addr",
          "type": "address"
        }
      ],
      "name": "claim",
      "outputs": [],
      "stateMutability": "nonpayable",
      "type": "function"
    },
    {
      "inputs": [
        {
          "internalType": "address",
          "name": "addr",
          "type": "address"
        }
      ],
      "name": "commit_transfer_ownership",
      "outputs": [
        {
          "internalType": "bool",
          "name": "",
          "type": "bool"
        }
      ],
      "stateMutability": "nonpayable",
      "type": "function"
    },
    {
      "inputs": [],
      "name": "disable_can_disable",
      "outputs": [],
      "stateMutability": "nonpayable",
      "type": "function"
    },
    {
      "inputs": [
        {
          "internalType": "address",
          "name": "",
          "type": "address"
        }
      ],
      "name": "disabled_at",
      "outputs": [
        {
          "internalType": "uint256",
          "name": "",
          "type": "uint256"
        }
      ],
      "stateMutability": "view",
      "type": "function"
    },
    {
      "inputs": [],
      "name": "end_time",
      "outputs": [
        {
          "internalType": "uint256",
          "name": "",
          "type": "uint256"
        }
      ],
      "stateMutability": "view",
      "type": "function"
    },
    {
      "inputs": [],
      "name": "future_admin",
      "outputs": [
        {
          "internalType": "address",
          "name": "",
          "type": "address"
        }
      ],
      "stateMutability": "view",
      "type": "function"
    },
    {
      "inputs": [
        {
          "internalType": "address",
          "name": "",
          "type": "address"
        }
      ],
      "name": "initial_locked",
      "outputs": [
        {
          "internalType": "uint256",
          "name": "",
          "type": "uint256"
        }
      ],
      "stateMutability": "view",
      "type": "function"
    },
    {
      "inputs": [],
      "name": "initial_locked_supply",
      "outputs": [
        {
          "internalType": "uint256",
          "name": "",
          "type": "uint256"
        }
      ],
      "stateMutability": "view",
      "type": "function"
    },
    {
      "inputs": [
        {
          "internalType": "address",
          "name": "_admin",
          "type": "address"
        },
        {
          "internalType": "address",
          "name": "_token",
          "type": "address"
        },
        {
          "internalType": "address",
          "name": "_recipient",
          "type": "address"
        },
        {
          "internalType": "uint256",
          "name": "_amount",
          "type": "uint256"
        },
        {
          "internalType": "uint256",
          "name": "_start_time",
          "type": "uint256"
        },
        {
          "internalType": "uint256",
          "name": "_end_time",
          "type": "uint256"
        },
        {
          "internalType": "bool",
          "name": "_can_disable",
          "type": "bool"
        }
      ],
      "name": "initialize",
      "outputs": [
        {
          "internalType": "bool",
          "name": "",
          "type": "bool"
        }
      ],
      "stateMutability": "nonpayable",
      "type": "function"
    },
    {
      "inputs": [],
      "name": "initialized",
      "outputs": [
        {
          "internalType": "bool",
          "name": "",
          "type": "bool"
        }
      ],
      "stateMutability": "view",
      "type": "function"
    },
    {
      "inputs": [
        {
          "internalType": "address",
          "name": "_recipient",
          "type": "address"
        }
      ],
      "name": "lockedOf",
      "outputs": [
        {
          "internalType": "uint256",
          "name": "",
          "type": "uint256"
        }
      ],
      "stateMutability": "view",
      "type": "function"
    },
    {
      "inputs": [],
      "name": "lockedSupply",
      "outputs": [
        {
          "internalType": "uint256",
          "name": "",
          "type": "uint256"
        }
      ],
      "stateMutability": "view",
      "type": "function"
    },
    {
      "inputs": [],
      "name": "start_time",
      "outputs": [
        {
          "internalType": "uint256",
          "name": "",
          "type": "uint256"
        }
      ],
      "stateMutability": "view",
      "type": "function"
    },
    {
      "inputs": [
        {
          "internalType": "address",
          "name": "_recipient",
          "type": "address"
        }
      ],
      "name": "toggle_disable",
      "outputs": [],
      "stateMutability": "nonpayable",
      "type": "function"
    },
    {
      "inputs": [],
      "name": "token",
      "outputs": [
        {
          "internalType": "address",
          "name": "",
          "type": "address"
        }
      ],
      "stateMutability": "view",
      "type": "function"
    },
    {
      "inputs": [
        {
          "internalType": "address",
          "name": "",
          "type": "address"
        }
      ],
      "name": "total_claimed",
      "outputs": [
        {
          "internalType": "uint256",
          "name": "",
          "type": "uint256"
        }
      ],
      "stateMutability": "view",
      "type": "function"
    },
    {
      "inputs": [
        {
          "internalType": "address",
          "name": "_recipient",
          "type": "address"
        }
      ],
      "name": "vestedOf",
      "outputs": [
        {
          "internalType": "uint256",
          "name": "",
          "type": "uint256"
        }
      ],
      "stateMutability": "view",
      "type": "function"
    },
    {
      "inputs": [],
      "name": "vestedSupply",
      "outputs": [
        {
          "internalType": "uint256",
          "name": "",
          "type": "uint256"
        }
      ],
      "stateMutability": "view",
      "type": "function"
    }
  ],
  "bytecode": "0x608060405234801561001057600080fd5b506001600055610f04806100256000396000f3fe608060405234801561001057600080fd5b50600436106101425760003560e01c80636b441a40116100b8578063b8638e1e1161007c578063b8638e1e146102fb578063c1561abe14610321578063ca5c7b9114610371578063d9844dc014610379578063f851a44014610381578063fc0c546a1461038957610142565b80636b441a401461025b57806370a0823114610281578063834ee417146102a757806394477104146102af578063a5f1e282146102d557610142565b806321dc49b41161010a57806321dc49b4146101d15780632a1e50fd146101d957806336fc59c7146101e157806350b3aad4146102075780636a1c05ae1461022d5780636b10247d1461023557610142565b80630568de4114610147578063158ef93e14610163578063162433561461016b57806317f7182a146101855780631e83409a146101a9575b600080fd5b61014f610391565b604080519115158252519081900360200190f35b61014f61039a565b6101736103aa565b60408051918252519081900360200190f35b61018d6103b0565b604080516001600160a01b039092168252519081900360200190f35b6101cf600480360360208110156101bf57600080fd5b50356001600160a01b03166103bf565b005b610173610574565b6101cf61057a565b6101cf600480360360208110156101f757600080fd5b50356001600160a01b03166105d7565b6101736004803603602081101561021d57600080fd5b50356001600160a01b0316610713565b61014f610725565b6101736004803603602081101561024b57600080fd5b50356001600160a01b0316610826565b61014f6004803603602081101561027157600080fd5b50356001600160a01b0316610838565b6101736004803603602081101561029757600080fd5b50356001600160a01b03166108a8565b6101736108d5565b610173600480360360208110156102c557600080fd5b50356001600160a01b03166108db565b610173600480360360208110156102eb57600080fd5b50356001600160a01b03166108e7565b6101736004803603602081101561031157600080fd5b50356001600160a01b0316610915565b61014f600480360360e081101561033757600080fd5b506001600160a01b03813581169160208101358216916040820135169060608101359060808101359060a08101359060c001351515610927565b610173610b62565b610173610b7d565b61018d610b87565b61018d610b96565b60075460ff1681565b600a54600160a01b900460ff1681565b60035481565b600a546001600160a01b031681565b60026000541415610417576040805162461bcd60e51b815260206004820152601f60248201527f5265656e7472616e637947756172643a207265656e7472616e742063616c6c00604482015290519081900360640190fd5b600260009081556001600160a01b0382168152600860205260409020548061043c5750425b6001600160a01b038216600090815260056020526040812054610469906104638585610ba5565b90610c16565b6001600160a01b03841660009081526005602052604090205490915061048f9082610c5f565b6001600160a01b03808516600081815260056020908152604080832095909555600154855163a9059cbb60e01b81526004810194909452602484018790529451949093169363a9059cbb936044808501949193918390030190829087803b1580156104f957600080fd5b505af115801561050d573d6000803e3d6000fd5b505050506040513d602081101561052357600080fd5b505161052b57fe5b6040805182815290516001600160a01b038516917f47cee97cb7acd717b3c0aa1435d004cd5b3c8c57d70dbceb4e4458bbd60e39d4919081900360200190a25050600160005550565b60065481565b6009546001600160a01b031633146105cb576040805162461bcd60e51b815260206004820152600f60248201526e6465763a2061646d696e206f6e6c7960881b604482015290519081900360640190fd5b6007805460ff19169055565b6009546001600160a01b03163314610628576040805162461bcd60e51b815260206004820152600f60248201526e6465763a2061646d696e206f6e6c7960881b604482015290519081900360640190fd5b60075460ff16610670576040805162461bcd60e51b815260206004820152600e60248201526d43616e6e6f742064697361626c6560901b604482015290519081900360640190fd5b6001600160a01b0381166000908152600860205260409020541580156106b0576001600160a01b03821660009081526008602052604090204290556106ca565b6001600160a01b0382166000908152600860205260408120555b604080516001600160a01b0384168152821515602082015281517fcc8442d1b68aaf1cdb1da2b3d9ebf3daad586d3404166b75d744a8b5092cefad929181900390910190a15050565b60046020526000908152604090205481565b6009546000906001600160a01b03163314610779576040805162461bcd60e51b815260206004820152600f60248201526e6465763a2061646d696e206f6e6c7960881b604482015290519081900360640190fd5b600a546001600160a01b0316806107cc576040805162461bcd60e51b815260206004820152601260248201527119195d8e8818591b5a5b881b9bdd081cd95d60721b604482015290519081900360640190fd5b600980546001600160a01b0383166001600160a01b0319909116811790915560408051918252517febee2d5739011062cb4f14113f3b36bf0ffe3da5c0568f64189d1012a11891059181900360200190a160019150505b90565b60086020526000908152604090205481565b6009546000906001600160a01b0316331461084f57fe5b600a80546001600160a01b0384166001600160a01b0319909116811790915560408051918252517f2f56810a6bf40af059b96d3aea4db54081f378029a518390491093a7b67032e99181900360200190a1506001919050565b6001600160a01b0381166000908152600560205260408120546108cf906104638442610ba5565b92915050565b60025481565b60006108cf8242610ba5565b60006108cf6108f68342610ba5565b6001600160a01b03841660009081526004602052604090205490610c16565b60056020526000908152604090205481565b600060026000541415610981576040805162461bcd60e51b815260206004820152601f60248201527f5265656e7472616e637947756172643a207265656e7472616e742063616c6c00604482015290519081900360640190fd5b6002600055600a54600160a01b900460ff16156109e5576040805162461bcd60e51b815260206004820152601d60248201527f6465763a2063616e206f6e6c7920696e697469616c697a65206f6e6365000000604482015290519081900360640190fd5b600180546001600160a01b03808a166001600160a01b0319928316811790935560098054918c1691909216179055600285905560038490556007805484151560ff19909116179055604080516323b872dd60e01b81523360048201523060248201526044810188905290516323b872dd916064808201926020929091908290030181600087803b158015610a7857600080fd5b505af1158015610a8c573d6000803e3d6000fd5b505050506040513d6020811015610aa257600080fd5b5051610ae8576040805162461bcd60e51b815260206004820152601060248201526f19195d8e881b9bdd08185b1b1bddd95960821b604482015290519081900360640190fd5b6001600160a01b0386166000818152600460209081526040918290208890556006889055815188815291517fda8220a878ff7a89474ccffdaa31ea1ed1ffbb0207d5051afccc4fbaf81f9bcd9281900390910190a250600a805460ff60a01b1916600160a01b179055600180600055979650505050505050565b6000610b78610b6f610cb9565b60065490610c16565b905090565b6000610b78610cb9565b6009546001600160a01b031681565b6001546001600160a01b031681565b6002546003546001600160a01b0384166000908152600460205260408120549092919082851015610bdc57600093505050506108cf565b610c0c610c06610bec8486610c16565b610c00610bf98988610c16565b8590610d00565b90610d59565b82610d9b565b9695505050505050565b6000610c5883836040518060400160405280601e81526020017f536166654d6174683a207375627472616374696f6e206f766572666c6f770000815250610db1565b9392505050565b600082820183811015610c58576040805162461bcd60e51b815260206004820152601b60248201527f536166654d6174683a206164646974696f6e206f766572666c6f770000000000604482015290519081900360640190fd5b600254600354600654600092919042831115610cdb5760009350505050610823565b610cf8610c06610ceb8486610c16565b610c00610bf94288610c16565b935050505090565b600082610d0f575060006108cf565b82820282848281610d1c57fe5b0414610c585760405162461bcd60e51b8152600401808060200182810382526021815260200180610eae6021913960400191505060405180910390fd5b6000610c5883836040518060400160405280601a81526020017f536166654d6174683a206469766973696f6e206279207a65726f000000000000815250610e48565b6000818310610daa5781610c58565b5090919050565b60008184841115610e405760405162461bcd60e51b81526004018080602001828103825283818151815260200191508051906020019080838360005b83811015610e05578181015183820152602001610ded565b50505050905090810190601f168015610e325780820380516001836020036101000a031916815260200191505b509250505060405180910390fd5b505050900390565b60008183610e975760405162461bcd60e51b8152602060048201818152835160248401528351909283926044909101919085019080838360008315610e05578181015183820152602001610ded565b506000838581610ea357fe5b049594505050505056fe536166654d6174683a206d756c7469706c69636174696f6e206f766572666c6f77a26469706673582212207228ffdcde475eaaa9dd6c690108dd67c2b5f5eabdaec8edf53f337a10f9464464736f6c634300060c0033",
  "linkReferences": {},
  "deployedLinkReferences": {}
}