{
  "_format": "hh-sol-artifact-1",
  "contractName": "DevFeeForwarder",
  "sourceName": "contracts/FeeDistribution/DevFeeForwarderV1.sol",
  "abi": [
    {
      "inputs": [
        {
          "internalType": "address",
          "name": "_token",
          "type": "address"
        }
      ],
      "name": "distribute",
      "outputs": [
        {
          "internalType": "bool",
          "name": "",
          "type": "bool"
        }
      ],
      "stateMutability": "nonpayable",
      "type": "function"
    },
    {
      "inputs": [],
      "name": "wallet",
      "outputs": [
        {
          "internalType": "address",
          "name": "",
          "type": "address"
        }
      ],
      "stateMutability": "view",
      "type": "function"
    }
  ],
  "bytecode": "0x608060405234801561001057600080fd5b506001600055610379806100256000396000f3fe608060405234801561001057600080fd5b50600436106100365760003560e01c8063521eb2731461003b57806363453ae11461005f575b600080fd5b610043610099565b604080516001600160a01b039092168252519081900360200190f35b6100856004803603602081101561007557600080fd5b50356001600160a01b03166100a8565b604080519115158252519081900360200190f35b6001546001600160a01b031681565b60408051636eb1769f60e11b8152336004820152306024820152905160009182916001600160a01b0385169163dd62ed3e916044808301926020929190829003018186803b1580156100f957600080fd5b505afa15801561010d573d6000803e3d6000fd5b505050506040513d602081101561012357600080fd5b5051905080156101f257604080516323b872dd60e01b81523360048201523060248201526044810183905290516001600160a01b038516916323b872dd9160648083019260209291908290030181600087803b15801561018257600080fd5b505af1158015610196573d6000803e3d6000fd5b505050506040513d60208110156101ac57600080fd5b50516101f2576040805162461bcd60e51b815260206004820152601060248201526f3a3930b739b332b9103330b4b632b21760811b604482015290519081900360640190fd5b6000836001600160a01b03166370a08231336040518263ffffffff1660e01b815260040180826001600160a01b0316815260200191505060206040518083038186803b15801561024157600080fd5b505afa158015610255573d6000803e3d6000fd5b505050506040513d602081101561026b57600080fd5b5051600154604080516323b872dd60e01b81523060048201526001600160a01b039283166024820152604481018490529051929350908616916323b872dd916064808201926020929091908290030181600087803b1580156102cc57600080fd5b505af11580156102e0573d6000803e3d6000fd5b505050506040513d60208110156102f657600080fd5b505161033c576040805162461bcd60e51b815260206004820152601060248201526f3a3930b739b332b9103330b4b632b21760811b604482015290519081900360640190fd5b505091905056fea264697066735822122079ee688dbf3e003839cb299f0260bf2295ddeb8606c60a191fcb831f78ad945864736f6c634300060c0033",
  "linkReferences": {},
  "deployedLinkReferences": {}
}