{
  "_format": "hh-sol-artifact-1",
  "contractName": "LiquidityGauge",
  "sourceName": "contracts/LiquidityGauge.sol",
  "abi": [
    {
      "inputs": [
        {
          "internalType": "address",
          "name": "lp_addr",
          "type": "address"
        },
        {
          "internalType": "address",
          "name": "_minter",
          "type": "address"
        },
        {
          "internalType": "address",
          "name": "_admin",
          "type": "address"
        }
      ],
      "stateMutability": "nonpayable",
      "type": "constructor"
    },
    {
      "anonymous": false,
      "inputs": [
        {
          "indexed": false,
          "internalType": "address",
          "name": "admin",
          "type": "address"
        }
      ],
      "name": "ApplyOwnership",
      "type": "event"
    },
    {
      "anonymous": false,
      "inputs": [
        {
          "indexed": false,
          "internalType": "address",
          "name": "admin",
          "type": "address"
        }
      ],
      "name": "CommitOwnership",
      "type": "event"
    },
    {
      "anonymous": false,
      "inputs": [
        {
          "indexed": true,
          "internalType": "address",
          "name": "provider",
          "type": "address"
        },
        {
          "indexed": false,
          "internalType": "uint256",
          "name": "value",
          "type": "uint256"
        }
      ],
      "name": "Deposit",
      "type": "event"
    },
    {
      "anonymous": false,
      "inputs": [
        {
          "indexed": false,
          "internalType": "address",
          "name": "user",
          "type": "address"
        },
        {
          "indexed": false,
          "internalType": "uint256",
          "name": "original_balance",
          "type": "uint256"
        },
        {
          "indexed": false,
          "internalType": "uint256",
          "name": "original_supply",
          "type": "uint256"
        },
        {
          "indexed": false,
          "internalType": "uint256",
          "name": "working_balance",
          "type": "uint256"
        },
        {
          "indexed": false,
          "internalType": "uint256",
          "name": "working_supply",
          "type": "uint256"
        },
        {
          "indexed": false,
          "internalType": "uint256",
          "name": "voting_balance",
          "type": "uint256"
        },
        {
          "indexed": false,
          "internalType": "uint256",
          "name": "voting_total",
          "type": "uint256"
        }
      ],
      "name": "UpdateLiquidityLimit",
      "type": "event"
    },
    {
      "anonymous": false,
      "inputs": [
        {
          "indexed": true,
          "internalType": "address",
          "name": "provider",
          "type": "address"
        },
        {
          "indexed": false,
          "internalType": "uint256",
          "name": "value",
          "type": "uint256"
        }
      ],
      "name": "Withdraw",
      "type": "event"
    },
    {
      "inputs": [],
      "name": "admin",
      "outputs": [
        {
          "internalType": "address",
          "name": "",
          "type": "address"
        }
      ],
      "stateMutability": "view",
      "type": "function"
    },
    {
      "inputs": [],
      "name": "apply_transfer_ownership",
      "outputs": [],
      "stateMutability": "nonpayable",
      "type": "function"
    },
    {
      "inputs": [
        {
          "internalType": "address",
          "name": "",
          "type": "address"
        },
        {
          "internalType": "address",
          "name": "",
          "type": "address"
        }
      ],
      "name": "approved_to_deposit",
      "outputs": [
        {
          "internalType": "bool",
          "name": "",
          "type": "bool"
        }
      ],
      "stateMutability": "view",
      "type": "function"
    },
    {
      "inputs": [
        {
          "internalType": "address",
          "name": "",
          "type": "address"
        }
      ],
      "name": "balanceOf",
      "outputs": [
        {
          "internalType": "uint256",
          "name": "",
          "type": "uint256"
        }
      ],
      "stateMutability": "view",
      "type": "function"
    },
    {
      "inputs": [
        {
          "internalType": "address",
          "name": "addr",
          "type": "address"
        }
      ],
      "name": "claimable_tokens",
      "outputs": [
        {
          "internalType": "uint256",
          "name": "",
          "type": "uint256"
        }
      ],
      "stateMutability": "nonpayable",
      "type": "function"
    },
    {
      "inputs": [
        {
          "internalType": "address",
          "name": "addr",
          "type": "address"
        }
      ],
      "name": "commit_transfer_ownership",
      "outputs": [],
      "stateMutability": "nonpayable",
      "type": "function"
    },
    {
      "inputs": [
        {
          "internalType": "uint256",
          "name": "_value",
          "type": "uint256"
        },
        {
          "internalType": "address",
          "name": "addr",
          "type": "address"
        }
      ],
      "name": "deposit",
      "outputs": [],
      "stateMutability": "nonpayable",
      "type": "function"
    },
    {
      "inputs": [],
      "name": "future_admin",
      "outputs": [
        {
          "internalType": "address",
          "name": "",
          "type": "address"
        }
      ],
      "stateMutability": "view",
      "type": "function"
    },
    {
      "inputs": [],
      "name": "future_epoch_time",
      "outputs": [
        {
          "internalType": "uint256",
          "name": "",
          "type": "uint256"
        }
      ],
      "stateMutability": "view",
      "type": "function"
    },
    {
      "inputs": [],
      "name": "inflation_rate",
      "outputs": [
        {
          "internalType": "uint256",
          "name": "",
          "type": "uint256"
        }
      ],
      "stateMutability": "view",
      "type": "function"
    },
    {
      "inputs": [],
      "name": "integrate_checkpoint",
      "outputs": [
        {
          "internalType": "uint256",
          "name": "",
          "type": "uint256"
        }
      ],
      "stateMutability": "view",
      "type": "function"
    },
    {
      "inputs": [
        {
          "internalType": "address",
          "name": "",
          "type": "address"
        }
      ],
      "name": "integrate_checkpoint_of",
      "outputs": [
        {
          "internalType": "uint256",
          "name": "",
          "type": "uint256"
        }
      ],
      "stateMutability": "view",
      "type": "function"
    },
    {
      "inputs": [
        {
          "internalType": "address",
          "name": "",
          "type": "address"
        }
      ],
      "name": "integrate_fraction",
      "outputs": [
        {
          "internalType": "uint256",
          "name": "",
          "type": "uint256"
        }
      ],
      "stateMutability": "view",
      "type": "function"
    },
    {
      "inputs": [
        {
          "internalType": "uint256",
          "name": "",
          "type": "uint256"
        }
      ],
      "name": "integrate_inv_supply",
      "outputs": [
        {
          "internalType": "uint256",
          "name": "",
          "type": "uint256"
        }
      ],
      "stateMutability": "view",
      "type": "function"
    },
    {
      "inputs": [
        {
          "internalType": "address",
          "name": "",
          "type": "address"
        }
      ],
      "name": "integrate_inv_supply_of",
      "outputs": [
        {
          "internalType": "uint256",
          "name": "",
          "type": "uint256"
        }
      ],
      "stateMutability": "view",
      "type": "function"
    },
    {
      "inputs": [],
      "name": "is_killed",
      "outputs": [
        {
          "internalType": "bool",
          "name": "",
          "type": "bool"
        }
      ],
      "stateMutability": "view",
      "type": "function"
    },
    {
      "inputs": [
        {
          "internalType": "address",
          "name": "addr",
          "type": "address"
        }
      ],
      "name": "kick",
      "outputs": [],
      "stateMutability": "nonpayable",
      "type": "function"
    },
    {
      "inputs": [],
      "name": "kill_me",
      "outputs": [],
      "stateMutability": "nonpayable",
      "type": "function"
    },
    {
      "inputs": [],
      "name": "period",
      "outputs": [
        {
          "internalType": "uint256",
          "name": "",
          "type": "uint256"
        }
      ],
      "stateMutability": "view",
      "type": "function"
    },
    {
      "inputs": [
        {
          "internalType": "uint256",
          "name": "",
          "type": "uint256"
        }
      ],
      "name": "period_timestamp",
      "outputs": [
        {
          "internalType": "uint256",
          "name": "",
          "type": "uint256"
        }
      ],
      "stateMutability": "view",
      "type": "function"
    },
    {
      "inputs": [
        {
          "internalType": "address",
          "name": "addr",
          "type": "address"
        },
        {
          "internalType": "bool",
          "name": "can_deposit",
          "type": "bool"
        }
      ],
      "name": "set_approve_deposit",
      "outputs": [],
      "stateMutability": "nonpayable",
      "type": "function"
    },
    {
      "inputs": [],
      "name": "totalSupply",
      "outputs": [
        {
          "internalType": "uint256",
          "name": "",
          "type": "uint256"
        }
      ],
      "stateMutability": "view",
      "type": "function"
    },
    {
      "inputs": [
        {
          "internalType": "address",
          "name": "addr",
          "type": "address"
        }
      ],
      "name": "user_checkpoint",
      "outputs": [
        {
          "internalType": "bool",
          "name": "",
          "type": "bool"
        }
      ],
      "stateMutability": "nonpayable",
      "type": "function"
    },
    {
      "inputs": [
        {
          "internalType": "uint256",
          "name": "_value",
          "type": "uint256"
        }
      ],
      "name": "withdraw",
      "outputs": [],
      "stateMutability": "nonpayable",
      "type": "function"
    },
    {
      "inputs": [
        {
          "internalType": "address",
          "name": "",
          "type": "address"
        }
      ],
      "name": "working_balances",
      "outputs": [
        {
          "internalType": "uint256",
          "name": "",
          "type": "uint256"
        }
      ],
      "stateMutability": "view",
      "type": "function"
    },
    {
      "inputs": [],
      "name": "working_supply",
      "outputs": [
        {
          "internalType": "uint256",
          "name": "",
          "type": "uint256"
        }
      ],
      "stateMutability": "view",
      "type": "function"
    }
  ],
  "bytecode": "0x60806040523480156200001157600080fd5b5060405162001dbb38038062001dbb833981810160405260608110156200003757600080fd5b508051602082015160409092015160016000559091906001600160a01b0383166200005e57fe5b6001600160a01b0382166200006f57fe5b600380546001600160a01b038086166001600160a01b031992831617909255600180548584169216919091179081905560408051634f31545960e11b815290516000939290921691639e62a8b291600480820192602092909190829003018186803b158015620000de57600080fd5b505afa158015620000f3573d6000803e3d6000fd5b505050506040513d60208110156200010a57600080fd5b5051600280546001600160a01b0319166001600160a01b038084169190911790915560015460408051631b17340360e31b8152905193945091169163d8b9a01891600480820192602092909190829003018186803b1580156200016c57600080fd5b505afa15801562000181573d6000803e3d6000fd5b505050506040513d60208110156200019857600080fd5b5051600480546001600160a01b0319166001600160a01b039283161780825560408051637a01432560e11b81529051919093169263f402864a9281810192602092909190829003018186803b158015620001f157600080fd5b505afa15801562000206573d6000803e3d6000fd5b505050506040513d60208110156200021d57600080fd5b5051600580546001600160a01b0319166001600160a01b0392831617905542600d556002546040805163533178e560e01b81529051919092169163533178e5916004808301926020929190829003018186803b1580156200027d57600080fd5b505afa15801562000292573d6000803e3d6000fd5b505050506040513d6020811015620002a957600080fd5b50516c02863c1f5cdae42f9540000010556002546040805163593591c760e11b815290516001600160a01b039092169163b26b238e916004808201926020929091908290030181600087803b1580156200030257600080fd5b505af115801562000317573d6000803e3d6000fd5b505050506040513d60208110156200032e57600080fd5b5051600855506c02863c1f5cdae42f954000001180546001600160a01b039092166001600160a01b03199092169190911790555050611a4880620003736000396000f3fe608060405234801561001057600080fd5b506004361061018e5760003560e01c806370a08231116100de578063d31f3f6d11610097578063e369885311610071578063e36988531461042f578063ef78d4fd14610437578063f851a4401461043f578063fec8ee0c146104475761018e565b8063d31f3f6d146103d3578063de263bfa146103db578063e1522536146104015761018e565b806370a08231146103345780637598108c1461035a57806396c55175146103775780639bd324f21461039d5780639c868ac0146103c3578063be5d1be9146103cb5761018e565b80631d2747d41161014b5780634b820093116101255780634b820093146102a05780636a1c05ae146102da5780636b441a40146102e25780636e553f65146103085761018e565b80631d2747d41461022d5780632e1a7d4d1461025d578063331345831461027a5761018e565b8063094007071461019357806313ecb1ca146101cb57806317e28089146101f157806317f7182a146101f9578063180692d01461021d57806318160ddd14610225575b600080fd5b6101b9600480360360208110156101a957600080fd5b50356001600160a01b0316610464565b60408051918252519081900360200190f35b6101b9600480360360208110156101e157600080fd5b50356001600160a01b0316610482565b6101b9610494565b61020161049a565b604080516001600160a01b039092168252519081900360200190f35b6101b96104b5565b6101b96104c7565b61025b6004803603604081101561024357600080fd5b506001600160a01b03813516906020013515156104cd565b005b61025b6004803603602081101561027357600080fd5b5035610503565b6101b96004803603602081101561029057600080fd5b50356001600160a01b031661068a565b6102c6600480360360208110156102b657600080fd5b50356001600160a01b031661074a565b604080519115158252519081900360200190f35b61025b6107ea565b61025b600480360360208110156102f857600080fd5b50356001600160a01b0316610906565b61025b6004803603604081101561031e57600080fd5b50803590602001356001600160a01b03166109c3565b6101b96004803603602081101561034a57600080fd5b50356001600160a01b0316610be6565b6101b96004803603602081101561037057600080fd5b5035610bf8565b61025b6004803603602081101561038d57600080fd5b50356001600160a01b0316610c17565b6101b9600480360360208110156103b357600080fd5b50356001600160a01b0316610ec7565b6102c6610ee5565b6101b9610f01565b6101b9610f07565b6101b9600480360360208110156103f157600080fd5b50356001600160a01b0316610f2a565b6102c66004803603604081101561041757600080fd5b506001600160a01b0381358116916020013516610f48565b61025b610f68565b6101b9610fb5565b610201610fbb565b6101b96004803603602081101561045d57600080fd5b5035610fd6565b6c02863c1f5cdae42f954000000f6020526000908152604090205481565b600a6020526000908152604090205481565b600b5481565b6c02863c1f5cdae42f9540000012546001600160a01b031681565b6c02863c1f5cdae42f95400000105481565b60075481565b6001600160a01b039190911660009081526009602090815260408083203384529091529020805460ff1916911515919091179055565b6002600054141561055b576040805162461bcd60e51b815260206004820152601f60248201527f5265656e7472616e637947756172643a207265656e7472616e742063616c6c00604482015290519081900360640190fd5b600260005561056933610ffa565b336000908152600660205260408120546105839083611545565b9050600061059c8360075461154590919063ffffffff16565b33600081815260066020526040902084905560078290559091506105c190838361158e565b6003546040805163a9059cbb60e01b81523360048201526024810186905290516001600160a01b039092169163a9059cbb916044808201926020929091908290030181600087803b15801561061557600080fd5b505af1158015610629573d6000803e3d6000fd5b505050506040513d602081101561063f57600080fd5b505161064a57600080fd5b60408051848152905133917f884edad9ce6fa2440d8a54cc123490eb96d2768479d49ff9c7366125a9424364919081900360200190a25050600160005550565b600061069582610ffa565b600154604080516308b752bb60e41b81526001600160a01b0385811660048301523060248301529151610744939290921691638b752bb091604480820192602092909190829003018186803b1580156106ed57600080fd5b505afa158015610701573d6000803e3d6000fd5b505050506040513d602081101561071757600080fd5b50516001600160a01b03841660009081526c02863c1f5cdae42f954000000f602052604090205490611545565b92915050565b6000336001600160a01b038316148061076d57506001546001600160a01b031633145b6107b2576040805162461bcd60e51b815260206004820152601160248201527019195d8e881d5b985d5d1a1bdc9a5e9959607a1b604482015290519081900360640190fd5b6107bb82610ffa565b6001600160a01b0382166000908152600660205260409020546007546107e291849161158e565b506001919050565b6c02863c1f5cdae42f9540000011546001600160a01b03163314610847576040805162461bcd60e51b815260206004820152600f60248201526e6465763a2061646d696e206f6e6c7960881b604482015290519081900360640190fd5b6c02863c1f5cdae42f9540000012546001600160a01b0316806108a6576040805162461bcd60e51b815260206004820152601260248201527119195d8e8818591b5a5b881b9bdd081cd95d60721b604482015290519081900360640190fd5b6c02863c1f5cdae42f954000001180546001600160a01b0383166001600160a01b0319909116811790915560408051918252517febee2d5739011062cb4f14113f3b36bf0ffe3da5c0568f64189d1012a11891059181900360200190a150565b6c02863c1f5cdae42f9540000011546001600160a01b03163314610963576040805162461bcd60e51b815260206004820152600f60248201526e6465763a2061646d696e206f6e6c7960881b604482015290519081900360640190fd5b6c02863c1f5cdae42f954000001280546001600160a01b0383166001600160a01b0319909116811790915560408051918252517f2f56810a6bf40af059b96d3aea4db54081f378029a518390491093a7b67032e99181900360200190a150565b60026000541415610a1b576040805162461bcd60e51b815260206004820152601f60248201527f5265656e7472616e637947756172643a207265656e7472616e742063616c6c00604482015290519081900360640190fd5b60026000556001600160a01b0381163314610a97573360009081526009602090815260408083206001600160a01b038516845290915290205460ff16610a97576040805162461bcd60e51b815260206004820152600c60248201526b139bdd08185c1c1c9bdd995960a21b604482015290519081900360640190fd5b610aa081610ffa565b8115610b9e576001600160a01b038116600090815260066020526040812054610ac990846117a5565b90506000610ae2846007546117a590919063ffffffff16565b6001600160a01b038416600090815260066020526040902083905560078190559050610b0f83838361158e565b600354604080516323b872dd60e01b81523360048201523060248201526044810187905290516001600160a01b03909216916323b872dd916064808201926020929091908290030181600087803b158015610b6957600080fd5b505af1158015610b7d573d6000803e3d6000fd5b505050506040513d6020811015610b9357600080fd5b5051610b9b57fe5b50505b6040805183815290516001600160a01b038316917fe1fffcc4923d04b559f4d29a8bfc6cda04eb5b0d3c460751c2402c5c5cc9109c919081900360200190a250506001600055565b60066020526000908152604090205481565b600d81680a18f07d736b90be55601d1b8110610c1057fe5b0154905081565b6001600160a01b0380821660008181526c02863c1f5cdae42f954000000e6020908152604080832054600554825163d5443e9d60e01b81526004810196909652915190959394919093169263da020a18928792859263d5443e9d92602480840193919291829003018186803b158015610c8f57600080fd5b505afa158015610ca3573d6000803e3d6000fd5b505050506040513d6020811015610cb957600080fd5b5051604080516001600160e01b031960e086901b1681526001600160a01b0390931660048401526024830191909152516044808301926020929190829003018186803b158015610d0857600080fd5b505afa158015610d1c573d6000803e3d6000fd5b505050506040513d6020811015610d3257600080fd5b50516001600160a01b03808516600081815260066020908152604091829020546005548351627eeac760e11b81526004810195909552426024860152925195965094919093169262fdd58e9260448082019391829003018186803b158015610d9957600080fd5b505afa158015610dad573d6000803e3d6000fd5b505050506040513d6020811015610dc357600080fd5b50511580610dd057508282115b610e19576040805162461bcd60e51b815260206004820152601560248201527419195d8e881ada58dac81b9bdd08185b1b1bddd959605a1b604482015290519081900360640190fd5b610e2f6064610e298360286117ff565b90611858565b6001600160a01b0385166000908152600a602052604090205411610e91576040805162461bcd60e51b815260206004820152601460248201527319195d8e881ada58dac81b9bdd081b995959195960621b604482015290519081900360640190fd5b610e9a84610ffa565b6001600160a01b038416600090815260066020526040902054600754610ec191869161158e565b50505050565b6c02863c1f5cdae42f954000000e6020526000908152604090205481565b6c02863c1f5cdae42f954000001254600160a01b900460ff1681565b60085481565b6000600d600c54680a18f07d736b90be55601d1b8110610f2357fe5b0154905090565b6c02863c1f5cdae42f954000000d6020526000908152604090205481565b600960209081526000928352604080842090915290825290205460ff1681565b6c02863c1f5cdae42f9540000011546001600160a01b03163314610f8857fe5b6c02863c1f5cdae42f9540000012805460ff60a01b198116600160a01b9182900460ff1615909102179055565b600c5481565b6c02863c1f5cdae42f9540000011546001600160a01b031681565b6c01431e0fae6d7217caa000000d81680a18f07d736b90be55601d1b8110610c1057fe5b6110026119ac565b600c54808252600d90680a18f07d736b90be55601d1b811061102057fe5b0154602082015280516c01431e0fae6d7217caa000000d90680a18f07d736b90be55601d1b811061104d57fe5b015460408201526c02863c1f5cdae42f95400000105460608201819052608082015260085460a0820181905260208201511161118a57600260009054906101000a90046001600160a01b03166001600160a01b031663b26b238e6040518163ffffffff1660e01b8152600401602060405180830381600087803b1580156110d357600080fd5b505af11580156110e7573d6000803e3d6000fd5b505050506040513d60208110156110fd57600080fd5b50516008556002546040805163533178e560e01b815290516001600160a01b039092169163533178e591600480820192602092909190829003018186803b15801561114757600080fd5b505afa15801561115b573d6000803e3d6000fd5b505050506040513d602081101561117157600080fd5b5051608082018190526c02863c1f5cdae42f9540000010555b600480546040805163615e523760e01b81523093810193909352516001600160a01b039091169163615e523791602480830192600092919082900301818387803b1580156111d757600080fd5b505af11580156111eb573d6000803e3d6000fd5b505050506001600160a01b0382166000908152600a6020526040902054600b546c02863c1f5cdae42f954000001254600160a01b900460ff161561123157600060608401525b826020015142111561140e576020830151600061126861126262093a8061125c81610e2987826117a5565b906117ff565b4261189a565b905060005b6101f481101561140a5760006112838385611545565b6004549091506000906001600160a01b031663d3078c94306112ac62093a8061125c8a82611858565b6040518363ffffffff1660e01b815260040180836001600160a01b031681526020018281526020019250505060206040518083038186803b1580156112f057600080fd5b505afa158015611304573d6000803e3d6000fd5b505050506040513d602081101561131a57600080fd5b5051905085156113da57848860a001511015801561133b5750838860a00151105b156113b25761137b61137087610e29611361898d60a0015161154590919063ffffffff16565b60608d015161125c90876117ff565b60408a0151906117a5565b60408901526080880151606089015260a08801516113a890611370908890610e2990611361908990611545565b60408901526113da565b6113d461137087610e298561125c868e606001516117ff90919063ffffffff16565b60408901525b428414156113e957505061140a565b92935083926113fe6112628562093a806117a5565b9350505060010161126d565b5050505b825161141b9060016117a5565b808452600c8190554290600d90680a18f07d736b90be55601d1b811061143d57fe5b0155604083015183516c01431e0fae6d7217caa000000d90680a18f07d736b90be55601d1b811061146a57fe5b01556001600160a01b03841660009081526c02863c1f5cdae42f954000000d60205260409081902054908401516114e8916114bd91670de0b6b3a764000091610e29916114b691611545565b86906117ff565b6001600160a01b03861660009081526c02863c1f5cdae42f954000000f6020526040902054906117a5565b6001600160a01b0390941660009081526c02863c1f5cdae42f954000000f6020908152604080832096909655938501516c02863c1f5cdae42f954000000d8552858220556c02863c1f5cdae42f954000000e909352505020429055565b600061158783836040518060400160405280601e81526020017f536166654d6174683a207375627472616374696f6e206f766572666c6f7700008152506118b0565b9392505050565b60055460408051627eeac760e11b81526001600160a01b0386811660048301524260248301529151600093929092169162fdd58e91604480820192602092909190829003018186803b1580156115e357600080fd5b505afa1580156115f7573d6000803e3d6000fd5b505050506040513d602081101561160d57600080fd5b50516005546040805163bd85b03960e01b815242600482015290519293506000926001600160a01b039092169163bd85b03991602480820192602092909190829003018186803b15801561166057600080fd5b505afa158015611674573d6000803e3d6000fd5b505050506040513d602081101561168a57600080fd5b5051905060006116a06064610e298760286117ff565b90506000821180156116c05750600d546116bd90621275006117a5565b42115b156116e8576116e56116de6064610e29603c61125c87838b8b6117ff565b82906117a5565b90505b6116f2858261189a565b6001600160a01b0387166000908152600a60205260408120805490839055600b549293509161172d90839061172790866117a5565b90611545565b600b819055604080516001600160a01b038b168152602081018a9052808201899052606081018690526080810183905260a0810188905260c0810187905290519192507f47211fe8b1eecabef1c013b28eb9caa892fd6bf2d3f1f5111d08cc115de84165919081900360e00190a15050505050505050565b600082820183811015611587576040805162461bcd60e51b815260206004820152601b60248201527f536166654d6174683a206164646974696f6e206f766572666c6f770000000000604482015290519081900360640190fd5b60008261180e57506000610744565b8282028284828161181b57fe5b04146115875760405162461bcd60e51b81526004018080602001828103825260218152602001806119f26021913960400191505060405180910390fd5b600061158783836040518060400160405280601a81526020017f536166654d6174683a206469766973696f6e206279207a65726f000000000000815250611947565b60008183106118a95781611587565b5090919050565b6000818484111561193f5760405162461bcd60e51b81526004018080602001828103825283818151815260200191508051906020019080838360005b838110156119045781810151838201526020016118ec565b50505050905090810190601f1680156119315780820380516001836020036101000a031916815260200191505b509250505060405180910390fd5b505050900390565b600081836119965760405162461bcd60e51b81526020600482018181528351602484015283519092839260449091019190850190808383600083156119045781810151838201526020016118ec565b5060008385816119a257fe5b0495945050505050565b6040518061010001604052806000815260200160008152602001600081526020016000815260200160008152602001600081526020016000815260200160008152509056fe536166654d6174683a206d756c7469706c69636174696f6e206f766572666c6f77a2646970667358221220e0e4b90254c6700433a4e1c02b3281dd93e4a7ebc6265b5dd22f914396c9897964736f6c634300060c0033",
  "linkReferences": {},
  "deployedLinkReferences": {}
}