{
  "_format": "hh-sol-artifact-1",
  "contractName": "TestRegistry",
  "sourceName": "contracts/testing/TestRegistry.sol",
  "abi": [
    {
      "inputs": [],
      "stateMutability": "nonpayable",
      "type": "constructor"
    },
    {
      "inputs": [
        {
          "internalType": "address",
          "name": "_token",
          "type": "address"
        }
      ],
      "name": "getVault",
      "outputs": [
        {
          "internalType": "address",
          "name": "",
          "type": "address"
        }
      ],
      "stateMutability": "view",
      "type": "function"
    },
    {
      "inputs": [
        {
          "internalType": "address",
          "name": "_market",
          "type": "address"
        }
      ],
      "name": "isListed",
      "outputs": [
        {
          "internalType": "bool",
          "name": "",
          "type": "bool"
        }
      ],
      "stateMutability": "pure",
      "type": "function"
    },
    {
      "inputs": [
        {
          "internalType": "address",
          "name": "_token",
          "type": "address"
        },
        {
          "internalType": "address",
          "name": "_vault",
          "type": "address"
        }
      ],
      "name": "setVault",
      "outputs": [],
      "stateMutability": "nonpayable",
      "type": "function"
    },
    {
      "inputs": [
        {
          "internalType": "address",
          "name": "",
          "type": "address"
        }
      ],
      "name": "vaults",
      "outputs": [
        {
          "internalType": "address",
          "name": "",
          "type": "address"
        }
      ],
      "stateMutability": "view",
      "type": "function"
    }
  ],
  "bytecode": "0x608060405234801561001057600080fd5b506101e3806100206000396000f3fe608060405234801561001057600080fd5b506004361061004c5760003560e01c80630eb9af3814610051578063714ccf7b14610093578063a622ee7c146100c3578063f794062e146100e9575b600080fd5b6100776004803603602081101561006757600080fd5b50356001600160a01b0316610123565b604080516001600160a01b039092168252519081900360200190f35b6100c1600480360360408110156100a957600080fd5b506001600160a01b0381358116916020013516610144565b005b610077600480360360208110156100d957600080fd5b50356001600160a01b0316610172565b61010f600480360360208110156100ff57600080fd5b50356001600160a01b031661018d565b604080519115158252519081900360200190f35b6001600160a01b03808216600090815260208190526040902054165b919050565b6001600160a01b03918216600090815260208190526040902080546001600160a01b03191691909216179055565b6000602081905290815260409020546001600160a01b031681565b60006001600160a01b0382166101a55750600061013f565b50600161013f56fea2646970667358221220cef5c1e081cf946ee0f8a1ee0c8344006f646c116d3689e6d86655b58bedf5d164736f6c634300060c0033",
  "linkReferences": {},
  "deployedLinkReferences": {}
}