{
  "_format": "hh-sol-artifact-1",
  "contractName": "GaugeController",
  "sourceName": "contracts/GaugeController.sol",
  "abi": [
    {
      "inputs": [
        {
          "internalType": "address",
          "name": "_token",
          "type": "address"
        },
        {
          "internalType": "address",
          "name": "_voting_escrow",
          "type": "address"
        }
      ],
      "stateMutability": "nonpayable",
      "type": "constructor"
    },
    {
      "anonymous": false,
      "inputs": [
        {
          "indexed": false,
          "internalType": "string",
          "name": "name",
          "type": "string"
        },
        {
          "indexed": false,
          "internalType": "uint256",
          "name": "type_id",
          "type": "uint256"
        }
      ],
      "name": "AddType",
      "type": "event"
    },
    {
      "anonymous": false,
      "inputs": [
        {
          "indexed": false,
          "internalType": "address",
          "name": "admin",
          "type": "address"
        }
      ],
      "name": "ApplyOwnership",
      "type": "event"
    },
    {
      "anonymous": false,
      "inputs": [
        {
          "indexed": false,
          "internalType": "address",
          "name": "admin",
          "type": "address"
        }
      ],
      "name": "CommitOwnership",
      "type": "event"
    },
    {
      "anonymous": false,
      "inputs": [
        {
          "indexed": false,
          "internalType": "address",
          "name": "addr",
          "type": "address"
        },
        {
          "indexed": false,
          "internalType": "uint256",
          "name": "gauge_type",
          "type": "uint256"
        },
        {
          "indexed": false,
          "internalType": "uint256",
          "name": "weight",
          "type": "uint256"
        }
      ],
      "name": "NewGauge",
      "type": "event"
    },
    {
      "anonymous": false,
      "inputs": [
        {
          "indexed": false,
          "internalType": "address",
          "name": "gauge_address",
          "type": "address"
        },
        {
          "indexed": false,
          "internalType": "uint256",
          "name": "time",
          "type": "uint256"
        },
        {
          "indexed": false,
          "internalType": "uint256",
          "name": "weight",
          "type": "uint256"
        },
        {
          "indexed": false,
          "internalType": "uint256",
          "name": "total_weight",
          "type": "uint256"
        }
      ],
      "name": "NewGaugeWeight",
      "type": "event"
    },
    {
      "anonymous": false,
      "inputs": [
        {
          "indexed": false,
          "internalType": "uint256",
          "name": "type_id",
          "type": "uint256"
        },
        {
          "indexed": false,
          "internalType": "uint256",
          "name": "time",
          "type": "uint256"
        },
        {
          "indexed": false,
          "internalType": "uint256",
          "name": "weight",
          "type": "uint256"
        },
        {
          "indexed": false,
          "internalType": "uint256",
          "name": "total_weight",
          "type": "uint256"
        }
      ],
      "name": "NewTypeWeight",
      "type": "event"
    },
    {
      "anonymous": false,
      "inputs": [
        {
          "indexed": false,
          "internalType": "uint256",
          "name": "time",
          "type": "uint256"
        },
        {
          "indexed": false,
          "internalType": "address",
          "name": "user",
          "type": "address"
        },
        {
          "indexed": false,
          "internalType": "address",
          "name": "gauge_addr",
          "type": "address"
        },
        {
          "indexed": false,
          "internalType": "uint256",
          "name": "weight",
          "type": "uint256"
        }
      ],
      "name": "VoteForGauge",
      "type": "event"
    },
    {
      "inputs": [
        {
          "internalType": "address",
          "name": "addr",
          "type": "address"
        },
        {
          "internalType": "uint256",
          "name": "gauge_type",
          "type": "uint256"
        },
        {
          "internalType": "uint256",
          "name": "weight",
          "type": "uint256"
        }
      ],
      "name": "add_gauge",
      "outputs": [],
      "stateMutability": "nonpayable",
      "type": "function"
    },
    {
      "inputs": [
        {
          "internalType": "string",
          "name": "_name",
          "type": "string"
        },
        {
          "internalType": "uint256",
          "name": "weight",
          "type": "uint256"
        }
      ],
      "name": "add_type",
      "outputs": [],
      "stateMutability": "nonpayable",
      "type": "function"
    },
    {
      "inputs": [],
      "name": "admin",
      "outputs": [
        {
          "internalType": "address",
          "name": "",
          "type": "address"
        }
      ],
      "stateMutability": "view",
      "type": "function"
    },
    {
      "inputs": [],
      "name": "apply_transfer_ownership",
      "outputs": [],
      "stateMutability": "nonpayable",
      "type": "function"
    },
    {
      "inputs": [
        {
          "internalType": "address",
          "name": "addr",
          "type": "address"
        },
        {
          "internalType": "uint256",
          "name": "weight",
          "type": "uint256"
        }
      ],
      "name": "change_gauge_weight",
      "outputs": [],
      "stateMutability": "nonpayable",
      "type": "function"
    },
    {
      "inputs": [
        {
          "internalType": "uint256",
          "name": "type_id",
          "type": "uint256"
        },
        {
          "internalType": "uint256",
          "name": "weight",
          "type": "uint256"
        }
      ],
      "name": "change_type_weight",
      "outputs": [],
      "stateMutability": "nonpayable",
      "type": "function"
    },
    {
      "inputs": [
        {
          "internalType": "uint256",
          "name": "",
          "type": "uint256"
        },
        {
          "internalType": "uint256",
          "name": "",
          "type": "uint256"
        }
      ],
      "name": "changes_sum",
      "outputs": [
        {
          "internalType": "uint256",
          "name": "",
          "type": "uint256"
        }
      ],
      "stateMutability": "view",
      "type": "function"
    },
    {
      "inputs": [
        {
          "internalType": "address",
          "name": "",
          "type": "address"
        },
        {
          "internalType": "uint256",
          "name": "",
          "type": "uint256"
        }
      ],
      "name": "changes_weight",
      "outputs": [
        {
          "internalType": "uint256",
          "name": "",
          "type": "uint256"
        }
      ],
      "stateMutability": "view",
      "type": "function"
    },
    {
      "inputs": [],
      "name": "checkpoint",
      "outputs": [],
      "stateMutability": "nonpayable",
      "type": "function"
    },
    {
      "inputs": [
        {
          "internalType": "address",
          "name": "addr",
          "type": "address"
        }
      ],
      "name": "checkpoint_gauge",
      "outputs": [],
      "stateMutability": "nonpayable",
      "type": "function"
    },
    {
      "inputs": [
        {
          "internalType": "address",
          "name": "addr",
          "type": "address"
        }
      ],
      "name": "commit_transfer_ownership",
      "outputs": [],
      "stateMutability": "nonpayable",
      "type": "function"
    },
    {
      "inputs": [],
      "name": "future_admin",
      "outputs": [
        {
          "internalType": "address",
          "name": "",
          "type": "address"
        }
      ],
      "stateMutability": "view",
      "type": "function"
    },
    {
      "inputs": [
        {
          "internalType": "address",
          "name": "addr",
          "type": "address"
        },
        {
          "internalType": "uint256",
          "name": "time",
          "type": "uint256"
        }
      ],
      "name": "gauge_relative_weight",
      "outputs": [
        {
          "internalType": "uint256",
          "name": "",
          "type": "uint256"
        }
      ],
      "stateMutability": "view",
      "type": "function"
    },
    {
      "inputs": [
        {
          "internalType": "address",
          "name": "addr",
          "type": "address"
        },
        {
          "internalType": "uint256",
          "name": "time",
          "type": "uint256"
        }
      ],
      "name": "gauge_relative_weight_write",
      "outputs": [
        {
          "internalType": "uint256",
          "name": "",
          "type": "uint256"
        }
      ],
      "stateMutability": "nonpayable",
      "type": "function"
    },
    {
      "inputs": [
        {
          "internalType": "uint256",
          "name": "",
          "type": "uint256"
        }
      ],
      "name": "gauge_type_names",
      "outputs": [
        {
          "internalType": "string",
          "name": "",
          "type": "string"
        }
      ],
      "stateMutability": "view",
      "type": "function"
    },
    {
      "inputs": [
        {
          "internalType": "address",
          "name": "_addr",
          "type": "address"
        }
      ],
      "name": "gauge_types",
      "outputs": [
        {
          "internalType": "uint256",
          "name": "",
          "type": "uint256"
        }
      ],
      "stateMutability": "view",
      "type": "function"
    },
    {
      "inputs": [
        {
          "internalType": "uint256",
          "name": "",
          "type": "uint256"
        }
      ],
      "name": "gauges",
      "outputs": [
        {
          "internalType": "address",
          "name": "",
          "type": "address"
        }
      ],
      "stateMutability": "view",
      "type": "function"
    },
    {
      "inputs": [
        {
          "internalType": "address",
          "name": "addr",
          "type": "address"
        }
      ],
      "name": "get_gauge_weight",
      "outputs": [
        {
          "internalType": "uint256",
          "name": "",
          "type": "uint256"
        }
      ],
      "stateMutability": "view",
      "type": "function"
    },
    {
      "inputs": [],
      "name": "get_total_weight",
      "outputs": [
        {
          "internalType": "uint256",
          "name": "",
          "type": "uint256"
        }
      ],
      "stateMutability": "view",
      "type": "function"
    },
    {
      "inputs": [
        {
          "internalType": "uint256",
          "name": "type_id",
          "type": "uint256"
        }
      ],
      "name": "get_type_weight",
      "outputs": [
        {
          "internalType": "uint256",
          "name": "",
          "type": "uint256"
        }
      ],
      "stateMutability": "view",
      "type": "function"
    },
    {
      "inputs": [],
      "name": "get_voting_escrow",
      "outputs": [
        {
          "internalType": "address",
          "name": "",
          "type": "address"
        }
      ],
      "stateMutability": "view",
      "type": "function"
    },
    {
      "inputs": [
        {
          "internalType": "uint256",
          "name": "type_id",
          "type": "uint256"
        }
      ],
      "name": "get_weights_sum_per_type",
      "outputs": [
        {
          "internalType": "uint256",
          "name": "",
          "type": "uint256"
        }
      ],
      "stateMutability": "view",
      "type": "function"
    },
    {
      "inputs": [
        {
          "internalType": "address",
          "name": "",
          "type": "address"
        },
        {
          "internalType": "address",
          "name": "",
          "type": "address"
        }
      ],
      "name": "last_user_vote",
      "outputs": [
        {
          "internalType": "uint256",
          "name": "",
          "type": "uint256"
        }
      ],
      "stateMutability": "view",
      "type": "function"
    },
    {
      "inputs": [],
      "name": "n_gauge_types",
      "outputs": [
        {
          "internalType": "uint256",
          "name": "",
          "type": "uint256"
        }
      ],
      "stateMutability": "view",
      "type": "function"
    },
    {
      "inputs": [],
      "name": "n_gauges",
      "outputs": [
        {
          "internalType": "uint256",
          "name": "",
          "type": "uint256"
        }
      ],
      "stateMutability": "view",
      "type": "function"
    },
    {
      "inputs": [
        {
          "internalType": "uint256",
          "name": "",
          "type": "uint256"
        },
        {
          "internalType": "uint256",
          "name": "",
          "type": "uint256"
        }
      ],
      "name": "points_sum",
      "outputs": [
        {
          "internalType": "uint256",
          "name": "bias",
          "type": "uint256"
        },
        {
          "internalType": "uint256",
          "name": "slope",
          "type": "uint256"
        }
      ],
      "stateMutability": "view",
      "type": "function"
    },
    {
      "inputs": [
        {
          "internalType": "uint256",
          "name": "",
          "type": "uint256"
        }
      ],
      "name": "points_total",
      "outputs": [
        {
          "internalType": "uint256",
          "name": "",
          "type": "uint256"
        }
      ],
      "stateMutability": "view",
      "type": "function"
    },
    {
      "inputs": [
        {
          "internalType": "uint256",
          "name": "",
          "type": "uint256"
        },
        {
          "internalType": "uint256",
          "name": "",
          "type": "uint256"
        }
      ],
      "name": "points_type_weight",
      "outputs": [
        {
          "internalType": "uint256",
          "name": "",
          "type": "uint256"
        }
      ],
      "stateMutability": "view",
      "type": "function"
    },
    {
      "inputs": [
        {
          "internalType": "address",
          "name": "",
          "type": "address"
        },
        {
          "internalType": "uint256",
          "name": "",
          "type": "uint256"
        }
      ],
      "name": "points_weight",
      "outputs": [
        {
          "internalType": "uint256",
          "name": "bias",
          "type": "uint256"
        },
        {
          "internalType": "uint256",
          "name": "slope",
          "type": "uint256"
        }
      ],
      "stateMutability": "view",
      "type": "function"
    },
    {
      "inputs": [
        {
          "internalType": "uint256",
          "name": "",
          "type": "uint256"
        }
      ],
      "name": "time_sum",
      "outputs": [
        {
          "internalType": "uint256",
          "name": "",
          "type": "uint256"
        }
      ],
      "stateMutability": "view",
      "type": "function"
    },
    {
      "inputs": [],
      "name": "time_total",
      "outputs": [
        {
          "internalType": "uint256",
          "name": "",
          "type": "uint256"
        }
      ],
      "stateMutability": "view",
      "type": "function"
    },
    {
      "inputs": [
        {
          "internalType": "uint256",
          "name": "",
          "type": "uint256"
        }
      ],
      "name": "time_type_weight",
      "outputs": [
        {
          "internalType": "uint256",
          "name": "",
          "type": "uint256"
        }
      ],
      "stateMutability": "view",
      "type": "function"
    },
    {
      "inputs": [
        {
          "internalType": "address",
          "name": "",
          "type": "address"
        }
      ],
      "name": "time_weight",
      "outputs": [
        {
          "internalType": "uint256",
          "name": "",
          "type": "uint256"
        }
      ],
      "stateMutability": "view",
      "type": "function"
    },
    {
      "inputs": [],
      "name": "token",
      "outputs": [
        {
          "internalType": "contract InsureToken",
          "name": "",
          "type": "address"
        }
      ],
      "stateMutability": "view",
      "type": "function"
    },
    {
      "inputs": [
        {
          "internalType": "address",
          "name": "_gauge_addr",
          "type": "address"
        },
        {
          "internalType": "uint256",
          "name": "_user_weight",
          "type": "uint256"
        }
      ],
      "name": "vote_for_gauge_weights",
      "outputs": [],
      "stateMutability": "nonpayable",
      "type": "function"
    },
    {
      "inputs": [
        {
          "internalType": "address",
          "name": "",
          "type": "address"
        }
      ],
      "name": "vote_user_power",
      "outputs": [
        {
          "internalType": "uint256",
          "name": "",
          "type": "uint256"
        }
      ],
      "stateMutability": "view",
      "type": "function"
    },
    {
      "inputs": [
        {
          "internalType": "address",
          "name": "",
          "type": "address"
        },
        {
          "internalType": "address",
          "name": "",
          "type": "address"
        }
      ],
      "name": "vote_user_slopes",
      "outputs": [
        {
          "internalType": "uint256",
          "name": "slope",
          "type": "uint256"
        },
        {
          "internalType": "uint256",
          "name": "power",
          "type": "uint256"
        },
        {
          "internalType": "uint256",
          "name": "end",
          "type": "uint256"
        }
      ],
      "stateMutability": "view",
      "type": "function"
    },
    {
      "inputs": [],
      "name": "voting_escrow",
      "outputs": [
        {
          "internalType": "contract VotingEscrow",
          "name": "",
          "type": "address"
        }
      ],
      "stateMutability": "view",
      "type": "function"
    }
  ],
  "bytecode": "0x608060405260016004553480156200001657600080fd5b506040516200291a3803806200291a833981810160405260408110156200003c57600080fd5b5080516020909101516001600160a01b0382166200005657fe5b6001600160a01b0381166200006757fe5b60008054336001600160a01b0319918216179091556002805482166001600160a01b038581169190911790915560038054909216908316179055620000d562093a80620000c14282620000e4602090811b62001a6f17901c565b6200013760201b62001ab11790919060201c565b637735941155506200023c9050565b60006200012e83836040518060400160405280601a81526020017f536166654d6174683a206469766973696f6e206279207a65726f0000000000008152506200019560201b60201c565b90505b92915050565b600082620001485750600062000131565b828202828482816200015657fe5b04146200012e5760405162461bcd60e51b8152600401808060200182810382526021815260200180620028f96021913960400191505060405180910390fd5b60008183620002255760405162461bcd60e51b81526004018080602001828103825283818151815260200191508051906020019080838360005b83811015620001e9578181015183820152602001620001cf565b50505050905090810190601f168015620002175780820380516001836020036101000a031916815260200191505b509250505060405180910390fd5b5060008385816200023257fe5b0495945050505050565b6126ad806200024c6000396000f3fe608060405234801561001057600080fd5b50600436106102315760003560e01c806392d0d23211610130578063d39b7836116100b8578063edba52731161007c578063edba52731461070d578063f3a3bfbe14610739578063f402864a146107cb578063f851a440146107d3578063fc0c546a146107db57610231565b8063d39b783614610682578063d4d2646e146106a5578063d7136328146106d1578063dfe05031146106fd578063e93841d01461070557610231565b8063b0539187116100ff578063b0539187146105f1578063bf394ca41461060e578063c2c4c5c11461062b578063cea3d61814610633578063d3078c941461065657610231565b806392d0d232146104ef5780639d3d0230146105975780639fba03a1146105c3578063a4d7a250146105cb57610231565b806351ce6b59116101be5780636a1c05ae116101825780636a1c05ae146104445780636b441a401461044c5780636d5d2a1e146104725780636da361ae146104a45780637e418fa0146104c157610231565b806351ce6b59146103ae5780635a549158146103cb578063615e5237146103e85780636472eee1146104105780636977ff921461043c57610231565b80632f544701116102055780632f544701146102f85780633f9095b714610334578063411e74b51461035a5780634e791a3a14610380578063513872bd146103a657610231565b8062ebbb74146102365780630f467f981461026b5780631142916b146102b757806317f7182a146102d4575b600080fd5b6102596004803603604081101561024c57600080fd5b50803590602001356107e3565b60408051918252519081900360200190f35b6102996004803603604081101561028157600080fd5b506001600160a01b0381358116916020013516610803565b60408051938452602084019290925282820152519081900360600190f35b610259600480360360208110156102cd57600080fd5b5035610832565b6102dc610847565b604080516001600160a01b039092168252519081900360200190f35b61031b6004803603604081101561030e57600080fd5b5080359060200135610856565b6040805192835260208301919091528051918290030190f35b6102596004803603602081101561034a57600080fd5b50356001600160a01b031661087d565b6102596004803603602081101561037057600080fd5b50356001600160a01b031661089f565b6102596004803603602081101561039657600080fd5b50356001600160a01b03166108b4565b6102596108e7565b610259600480360360208110156103c457600080fd5b50356108f0565b610259600480360360208110156103e157600080fd5b503561090a565b61040e600480360360208110156103fe57600080fd5b50356001600160a01b031661091d565b005b6102596004803603604081101561042657600080fd5b506001600160a01b038135169060200135610933565b610259610964565b61040e61097f565b61040e6004803603602081101561046257600080fd5b50356001600160a01b0316610a77565b61040e6004803603606081101561048857600080fd5b506001600160a01b038135169060208101359060400135610b1c565b610259600480360360208110156104ba57600080fd5b5035610d6a565b610259600480360360408110156104d757600080fd5b506001600160a01b0381358116916020013516610da8565b61040e6004803603604081101561050557600080fd5b81019060208101813564010000000081111561052057600080fd5b82018360208201111561053257600080fd5b8035906020019184600183028401116401000000008311171561055457600080fd5b91908080601f0160208091040260200160405190810160405280939291908181526020018383808284376000920191909152509295505091359250610dc8915050565b610259600480360360408110156105ad57600080fd5b506001600160a01b038135169060200135610ec4565b610259610ee4565b610259600480360360208110156105e157600080fd5b50356001600160a01b0316610eea565b6102dc6004803603602081101561060757600080fd5b5035610eff565b6102596004803603602081101561062457600080fd5b5035610f1f565b61040e610f5c565b6102596004803603604081101561064957600080fd5b5080359060200135610f67565b6102596004803603604081101561066c57600080fd5b506001600160a01b038135169060200135610f87565b61040e6004803603604081101561069857600080fd5b5080359060200135610f9c565b61040e600480360360408110156106bb57600080fd5b506001600160a01b038135169060200135610fba565b61040e600480360360408110156106e757600080fd5b506001600160a01b038135169060200135610fd8565b6102dc61196b565b61025961197a565b61031b6004803603604081101561072357600080fd5b506001600160a01b038135169060200135611980565b6107566004803603602081101561074f57600080fd5b50356119a7565b6040805160208082528351818301528351919283929083019185019080838360005b83811015610790578181015183820152602001610778565b50505050905090810190601f1680156107bd5780820380516001836020036101000a031916815260200191505b509250505060405180910390f35b6102dc611a42565b6102dc611a51565b6102dc611a60565b633b9aca0f60209081526000928352604080842090915290825290205481565b633b9aca0860209081526000928352604080842090915290825290208054600182015460029092015490919083565b63773594106020526000908152604090205481565b6001546001600160a01b031681565b633b9aca0e6020908152600092835260408084209091529082529020805460019091015482565b6001600160a01b0381166000908152633b9aca0760205260409020545b919050565b633b9aca096020526000908152604090205481565b6001600160a01b03166000908152633b9aca0b60209081526040808320633b9aca0d835281842054845290915290205490565b63773594115481565b637735941381633b9aca00811061090357fe5b0154905081565b633b9aca1081633b9aca00811061090357fe5b61092681611b0a565b5061092f611c96565b5050565b60008161093e574291505b61094783611b0a565b50610950611c96565b5061095b8383611dd3565b90505b92915050565b63773594115460009081526377359410602052604090205490565b6000546001600160a01b031633146109d0576040805162461bcd60e51b815260206004820152600f60248201526e6465763a2061646d696e206f6e6c7960881b604482015290519081900360640190fd5b6001546001600160a01b031680610a23576040805162461bcd60e51b815260206004820152601260248201527119195d8e8818591b5a5b881b9bdd081cd95d60721b604482015290519081900360640190fd5b600080546001600160a01b0383166001600160a01b0319909116811790915560408051918252517febee2d5739011062cb4f14113f3b36bf0ffe3da5c0568f64189d1012a11891059181900360200190a150565b6000546001600160a01b03163314610ac8576040805162461bcd60e51b815260206004820152600f60248201526e6465763a2061646d696e206f6e6c7960881b604482015290519081900360640190fd5b600180546001600160a01b0383166001600160a01b0319909116811790915560408051918252517f2f56810a6bf40af059b96d3aea4db54081f378029a518390491093a7b67032e99181900360200190a150565b6000546001600160a01b03163314610b3057fe5b60018210158015610b42575060045482105b610b4857fe5b6001600160a01b0383166000908152633b9aca07602052604090205415610ba05760405162461bcd60e51b81526004018080602001828103825260248152602001806126336024913960400191505060405180910390fd5b600554610bae816001611e82565b60055583600782633b9aca008110610bc257fe5b0180546001600160a01b0319166001600160a01b0392831617905584166000908152633b9aca0760205260408120849055610c1462093a80610c0e81610c084282611e82565b90611a6f565b90611ab1565b90508215610cd6576000610c2785611edc565b90506000610c3486611fcc565b90506000610c40611c96565b9050610c4c8683611e82565b6000888152633b9aca0e6020908152604080832088845290915290205583633b9aca1088633b9aca008110610c7d57fe5b0155610c93610c8c8488611ab1565b8290611e82565b60008581526377359410602090815260408083209390935563773594118790556001600160a01b038b168252633b9aca0b81528282208783529052208690555050505b633b9aca1084633b9aca008110610ce957fe5b0154610d065780633b9aca1085633b9aca008110610d0357fe5b01555b6001600160a01b0385166000818152633b9aca0d602090815260409182902084905581519283528201869052818101859052517f17f180227ae34c645699be88eb93716e38af49783d1bb4e3584df90b5cfafc6e9181900360600190a15050505050565b6000818152633b9aca0e6020526040812081633b9aca1084633b9aca008110610d8f57fe5b0154815260208101919091526040016000205492915050565b633b9aca0a60209081526000928352604080842090915290825290205481565b6000546001600160a01b03163314610ddc57fe5b60045460008181526006602090815260409091208451610dfe92860190612527565b50610e0a816001611e82565b6004558115610ebf57610e1d8183612156565b7f9b3cf755e0156d3384e50449add1b3067cac8b2e929cdf888724b7b6cc10db9883826040518080602001838152602001828103825284818151815260200191508051906020019080838360005b83811015610e83578181015183820152602001610e6b565b50505050905090810190601f168015610eb05780820380516001836020036101000a031916815260200191505b50935050505060405180910390a15b505050565b633b9aca0c60209081526000928352604080842090915290825290205481565b60045481565b633b9aca0d6020526000908152604090205481565b600781633b9aca008110610f0f57fe5b01546001600160a01b0316905081565b600081815263773594126020526040812081637735941384633b9aca008110610f4457fe5b01548152602001908152602001600020549050919050565b610f64611c96565b50565b637735941260209081526000928352604080842090915290825290205481565b600081610f92574291505b61095b8383611dd3565b6000546001600160a01b03163314610fb057fe5b61092f8282612156565b6000546001600160a01b03163314610fce57fe5b61092f8282612254565b610fe06125a5565b60035460408051631f1d285d60e21b815233600482015290516001600160a01b0390921691637c74a17491602480820192602092909190829003018186803b15801561102b57600080fd5b505afa15801561103f573d6000803e3d6000fd5b505050506040513d602081101561105557600080fd5b505181526003546040805163adc6358960e01b815233600482015290516001600160a01b039092169163adc6358991602480820192602092909190829003018186803b1580156110a457600080fd5b505afa1580156110b8573d6000803e3d6000fd5b505050506040513d60208110156110ce57600080fd5b5051602082015260055460408201526110f262093a80610c0e81610c084282611e82565b60608201819052602082015111611150576040805162461bcd60e51b815260206004820181905260248201527f596f757220746f6b656e206c6f636b206578706972657320746f6f20736f6f6e604482015290519081900360640190fd5b6127108211156111a7576040805162461bcd60e51b815260206004820152601e60248201527f596f75207573656420616c6c20796f757220766f74696e6720706f7765720000604482015290519081900360640190fd5b336000908152633b9aca0a602090815260408083206001600160a01b03871684529091529020546111db90620d2f00611e82565b421015611226576040805162461bcd60e51b815260206004820152601460248201527321b0b73737ba103b37ba329039b79037b33a32b760611b604482015290519081900360640190fd5b6001600160a01b0383166000908152633b9aca0760205260409020546080820181905260011115611290576040805162461bcd60e51b815260206004820152600f60248201526e11d85d59d9481b9bdd081859191959608a1b604482015290519081900360640190fd5b6112986125e2565b50336000908152633b9aca08602090815260408083206001600160a01b038716845282528083208151606080820184528254825260018301549482019490945260029091015491810191825260a08501939093529083015190511115611311576060820151604082015161130b916123d2565b60a08301525b60a0820151815161132191611ab1565b60c083015261132e6125e2565b6040518060600160405280611356612710610c08888860000151611ab190919063ffffffff16565b8152602001858152602001846020015181525090506000611388846060015185602001516123d290919063ffffffff16565b825190915060009061139a9083611ab1565b336000908152633b9aca0960209081526040909120548682015191860151929350916113d291906113cc908490611e82565b906123d2565b336000908152633b9aca09602052604090208190559050612710811115611436576040805162461bcd60e51b81526020600482015260136024820152722ab9b2b2103a37b79036bab1b4103837bbb2b960691b604482015290519081900360640190fd5b600061144189611b0a565b6001600160a01b038a166000908152633b9aca0b6020908152604080832060608c0151845290915281206001015460808a01519293509161148190611fcc565b60808a01516000908152633b9aca0e6020908152604080832060608e0151845290915290206001015460c08b0151919250906114ce906113cc6114c4878a611e82565b8d60c00151612414565b6001600160a01b038d166000908152633b9aca0b6020908152604080832060608f0151845290915290205560c08a015161150f906113cc6114c4858a611e82565b60808b01516000908152633b9aca0e6020908152604080832060608f0180518552925291829020929092559051908a015111156115d9578851885161156591906113cc9061155e908790611e82565b8c51612414565b6001600160a01b038d166000908152633b9aca0b6020908152604080832060608f01518452909152902060010155885188516115ab91906113cc9061155e908590611e82565b60808b01516000908152633b9aca0e6020908152604080832060608f015184529091529020600101556116c9565b87516001600160a01b038d166000908152633b9aca0b6020908152604080832060608f0151845290915290206001015461161291611e82565b633b9aca0b60008e6001600160a01b03166001600160a01b0316815260200190815260200160002060008c6060015181526020019081526020016000206001018190555061169f8860000151633b9aca0e60008d60800151815260200190815260200160002060008d60600151815260200190815260200160002060010154611e8290919063ffffffff16565b60808b01516000908152633b9aca0e6020908152604080832060608f015184529091529020600101555b42896040015111156117865788516001600160a01b038d166000908152633b9aca0c60209081526040808320818e0151845290915290205461170a916123d2565b6001600160a01b038d166000908152633b9aca0c602090815260408083208d820180518552908352818420949094558c5160808f01518452633b9aca0f83528184209451845293909152902054611760916123d2565b60808b01516000908152633b9aca0f602090815260408083208d82015184529091529020555b87516001600160a01b038d166000908152633b9aca0c60209081526040808320818d015184529091529020546117bb91611e82565b6001600160a01b038d166000908152633b9aca0c602090815260408083208c820180518552908352818420949094558b5160808f01518452633b9aca0f8352818420945184529390915290205461181191611e82565b60808b01516000908152633b9aca0f602090815260408083208c820151845290915290205561183e611c96565b5087633b9aca086000336001600160a01b03166001600160a01b0316815260200190815260200160002060008e6001600160a01b03166001600160a01b0316815260200190815260200160002060008201518160000155602082015181600101556040820151816002015590505042633b9aca0a6000336001600160a01b03166001600160a01b0316815260200190815260200160002060008e6001600160a01b03166001600160a01b03168152602001908152602001600020819055507f45ca9a4c8d0119eb329e580d28fe689e484e1be230da8037ade9547d2d25cc9142338e8e60405180858152602001846001600160a01b03168152602001836001600160a01b0316815260200182815260200194505050505060405180910390a1505050505050505050505050565b6003546001600160a01b031681565b60055481565b633b9aca0b6020908152600092835260408084209091529082529020805460019091015482565b60066020908152600091825260409182902080548351601f600260001961010060018616150201909316929092049182018490048402810184019094528084529091830182828015611a3a5780601f10611a0f57610100808354040283529160200191611a3a565b820191906000526020600020905b815481529060010190602001808311611a1d57829003601f168201915b505050505081565b6003546001600160a01b031690565b6000546001600160a01b031681565b6002546001600160a01b031681565b600061095b83836040518060400160405280601a81526020017f536166654d6174683a206469766973696f6e206279207a65726f00000000000081525061242b565b600082611ac05750600061095e565b82820282848281611acd57fe5b041461095b5760405162461bcd60e51b81526004018080602001828103825260218152602001806126576021913960400191505060405180910390fd5b6001600160a01b0381166000908152633b9aca0d60205260408120548015611c8c57611b34612603565b506001600160a01b0383166000908152633b9aca0b6020908152604080832084845282528083208151808301909252805482526001015491810191909152905b6101f4811015611c815742831115611b8b57611c81565b611b988362093a80611e82565b92506000611bb662093a808460200151611ab190919063ffffffff16565b90508083600001511115611c12578251611bd090826123d2565b83526001600160a01b0386166000908152633b9aca0c6020908152604080832087845282529091205490840151611c0790826123d2565b602085015250611c1d565b600080845260208401525b6001600160a01b0386166000908152633b9aca0b602090815260408083208784528252909120845181559084015160019091015542841115611c78576001600160a01b0386166000908152633b9aca0d602052604090208490555b50600101611b74565b5051915061089a9050565b600091505061089a565b6377359411546004546000919042821115611cbb57611cb88262093a806123d2565b91505b60008281526377359410602052604090205460015b6064811015611d025782811415611ce657611d02565b611cef81611fcc565b50611cf981611edc565b50600101611cd0565b5060005b6101f4811015611dcb5742841115611d1d57611dcb565b611d2a8462093a80611e82565b93506000915060015b6064811015611d9d5783811415611d4957611d9d565b6000818152633b9aca0e602090815260408083208884528252808320548484526377359412835281842089855290925290912054611d91611d8a8383611ab1565b8690611e82565b94505050600101611d33565b50600084815263773594106020526040902082905542841115611dc35763773594118490555b600101611d06565b509250505090565b600080611de762093a80610c0e8582611a6f565b6000818152637735941060205260409020549091508015611e77576001600160a01b0385166000818152633b9aca07602090815260408083205480845263773594128352818420878552835281842054948452633b9aca0b835281842087855290925290912054909190611e6b84610c0883610c0e670de0b6b3a764000087611ab1565b9550505050505061095e565b60009250505061095e565b60008282018381101561095b576040805162461bcd60e51b815260206004820152601b60248201527f536166654d6174683a206164646974696f6e206f766572666c6f770000000000604482015290519081900360640190fd5b600081611f18576040805162461bcd60e51b81526020600482015260056024820152641d5b9cd95d60da1b604482015290519081900360640190fd5b6000637735941383633b9aca008110611f2d57fe5b015490508015611c8c576000838152637735941260209081526040808320848452909152812054905b6101f4811015611fc25742831115611f6d57611fc2565b611f7a8362093a80611e82565b60008681526377359412602090815260408083208484529091529020839055925042831115611fba5782637735941386633b9aca008110611fb757fe5b01555b600101611f56565b50915061089a9050565b600081612008576040805162461bcd60e51b81526020600482015260056024820152641d5b9cd95d60da1b604482015290519081900360640190fd5b6000633b9aca1083633b9aca00811061201d57fe5b015490508015611c8c5761202f612603565b506000838152633b9aca0e6020908152604080832084845282528083208151808301909252805482526001015491810191909152905b6101f4811015611c81574283111561207c57611c81565b6120898362093a80611e82565b925060006120a762093a808460200151611ab190919063ffffffff16565b905080836000015111156120f95782516120c190826123d2565b83526000868152633b9aca0f60209081526040808320878452825290912054908401516120ee90826123d2565b602085015250612104565b600080845260208401525b6000868152633b9aca0e60209081526040808320878452825290912084518155908401516001909101554284111561214d5783633b9aca1087633b9aca00811061214a57fe5b01555b50600101612065565b600061216183611edc565b9050600061216e84611fcc565b9050600061217a611c96565b9050600061219362093a80610c0e81610c084282611e82565b90506121b66121a28486611ab1565b6113cc6121af8689611ab1565b8590611e82565b60008281526377359410602090815260408083208490558983526377359412825280832085845290915290208690556377359411829055915080637735941387633b9aca00811061220357fe5b015560408051878152602081018390528082018790526060810184905290517f6203ee96bc508c05f9ccb8b5d93bb7fc6f0ef232071ba3a299aadd6f9724abf39181900360800190a1505050505050565b6001600160a01b0382166000908152633b9aca0760205260408120549061227a84611b0a565b9050600061228783611edc565b9050600061229484611fcc565b905060006122a0611c96565b905060006122b962093a80610c0e81610c084282611e82565b6001600160a01b0389166000818152633b9aca0b6020908152604080832085845282528083208c9055928252633b9aca0d9052908120829055909150612303866113cc868b611e82565b6000888152633b9aca0e602090815260408083208684529091529020819055905081633b9aca1088633b9aca00811061233857fe5b01556123546123478587611ab1565b6113cc611d8a8489611ab1565b600083815263773594106020908152604091829020839055637735941185905581516001600160a01b038d16815242918101919091528082018b90526060810183905290519194507f54c0cf3647e6cdb2fc0a7876e60ba77563fceedf2e06c01c597f8dccb9e6bd72919081900360800190a1505050505050505050565b600061095b83836040518060400160405280601e81526020017f536166654d6174683a207375627472616374696f6e206f766572666c6f7700008152506124cd565b600081831015612424578161095b565b5090919050565b600081836124b75760405162461bcd60e51b81526004018080602001828103825283818151815260200191508051906020019080838360005b8381101561247c578181015183820152602001612464565b50505050905090810190601f1680156124a95780820380516001836020036101000a031916815260200191505b509250505060405180910390fd5b5060008385816124c357fe5b0495945050505050565b6000818484111561251f5760405162461bcd60e51b815260206004820181815283516024840152835190928392604490910191908501908083836000831561247c578181015183820152602001612464565b505050900390565b828054600181600116156101000203166002900490600052602060002090601f016020900481019282601f1061256857805160ff1916838001178555612595565b82800160010185558215612595579182015b8281111561259557825182559160200191906001019061257a565b506125a192915061261d565b5090565b6040518060e00160405280600081526020016000815260200160008152602001600081526020016000815260200160008152602001600081525090565b60405180606001604052806000815260200160008152602001600081525090565b604051806040016040528060008152602001600081525090565b5b808211156125a1576000815560010161261e56fe6465763a2063616e6e6f7420616464207468652073616d65206761756765207477696365536166654d6174683a206d756c7469706c69636174696f6e206f766572666c6f77a26469706673582212204aeab15964cfe2003526fdca1692f2e8fac6a7298578b02f247734803cebbfec64736f6c634300060c0033536166654d6174683a206d756c7469706c69636174696f6e206f766572666c6f77",
  "linkReferences": {},
  "deployedLinkReferences": {}
}