{
  "_format": "hh-sol-artifact-1",
  "contractName": "TestConverter",
  "sourceName": "contracts/testing/TestConverter.sol",
  "abi": [
    {
      "inputs": [
        {
          "internalType": "address",
          "name": "_insure",
          "type": "address"
        }
      ],
      "stateMutability": "nonpayable",
      "type": "constructor"
    },
    {
      "inputs": [
        {
          "internalType": "uint256",
          "name": "_amountOut",
          "type": "uint256"
        }
      ],
      "name": "getAmountsIn",
      "outputs": [
        {
          "internalType": "uint256",
          "name": "",
          "type": "uint256"
        }
      ],
      "stateMutability": "pure",
      "type": "function"
    },
    {
      "inputs": [],
      "name": "insure_token",
      "outputs": [
        {
          "internalType": "contract InsureToken",
          "name": "",
          "type": "address"
        }
      ],
      "stateMutability": "view",
      "type": "function"
    },
    {
      "inputs": [
        {
          "internalType": "uint256",
          "name": "_amountInMax",
          "type": "uint256"
        },
        {
          "internalType": "uint256",
          "name": "_amountOut",
          "type": "uint256"
        },
        {
          "internalType": "address",
          "name": "_to",
          "type": "address"
        }
      ],
      "name": "swap_insure_to_exact",
      "outputs": [],
      "stateMutability": "nonpayable",
      "type": "function"
    }
  ],
  "bytecode": "0x608060405234801561001057600080fd5b506040516102513803806102518339818101604052602081101561003357600080fd5b5051600080546001600160a01b039092166001600160a01b03199092169190911790556101ec806100656000396000f3fe608060405234801561001057600080fd5b50600436106100415760003560e01c8063255d591e146100465780639e62a8b214610075578063c73824db14610099575b600080fd5b6100636004803603602081101561005c57600080fd5b50356100cd565b60408051918252519081900360200190f35b61007d6100d3565b604080516001600160a01b039092168252519081900360200190f35b6100cb600480360360608110156100af57600080fd5b50803590602081013590604001356001600160a01b03166100e2565b005b50603790565b6000546001600160a01b031681565b60008054604080516323b872dd60e01b81523360048201523060248201526044810187905290516001600160a01b03909216926323b872dd926064808401936020939083900390910190829087803b15801561013d57600080fd5b505af1158015610151573d6000803e3d6000fd5b505050506040513d602081101561016757600080fd5b50516101b1576040805162461bcd60e51b81526020600482015260146024820152733a3930b739b332b9233937b6903330b4b632b21760611b604482015290519081900360640190fd5b50505056fea26469706673582212206f0d42e461c8d05ba35e13868a6046bfc4aad963edbd6920eac28f832e098b8e64736f6c634300060c0033",
  "linkReferences": {},
  "deployedLinkReferences": {}
}