{
  "_format": "hh-sol-artifact-1",
  "contractName": "VestingEscrowFactory",
  "sourceName": "contracts/VestingEscrowFactory.sol",
  "abi": [
    {
      "inputs": [
        {
          "internalType": "address",
          "name": "_target",
          "type": "address"
        },
        {
          "internalType": "address",
          "name": "_admin",
          "type": "address"
        }
      ],
      "stateMutability": "nonpayable",
      "type": "constructor"
    },
    {
      "anonymous": false,
      "inputs": [
        {
          "indexed": false,
          "internalType": "address",
          "name": "admin",
          "type": "address"
        }
      ],
      "name": "ApplyOwnership",
      "type": "event"
    },
    {
      "anonymous": false,
      "inputs": [
        {
          "indexed": false,
          "internalType": "address",
          "name": "admin",
          "type": "address"
        }
      ],
      "name": "CommitOwnership",
      "type": "event"
    },
    {
      "inputs": [],
      "name": "admin",
      "outputs": [
        {
          "internalType": "address",
          "name": "",
          "type": "address"
        }
      ],
      "stateMutability": "view",
      "type": "function"
    },
    {
      "inputs": [],
      "name": "apply_transfer_ownership",
      "outputs": [
        {
          "internalType": "bool",
          "name": "",
          "type": "bool"
        }
      ],
      "stateMutability": "nonpayable",
      "type": "function"
    },
    {
      "inputs": [
        {
          "internalType": "address",
          "name": "addr",
          "type": "address"
        }
      ],
      "name": "commit_transfer_ownership",
      "outputs": [
        {
          "internalType": "bool",
          "name": "",
          "type": "bool"
        }
      ],
      "stateMutability": "nonpayable",
      "type": "function"
    },
    {
      "inputs": [
        {
          "internalType": "address",
          "name": "_token",
          "type": "address"
        },
        {
          "internalType": "address",
          "name": "_recipient",
          "type": "address"
        },
        {
          "internalType": "uint256",
          "name": "_amount",
          "type": "uint256"
        },
        {
          "internalType": "bool",
          "name": "_can_disable",
          "type": "bool"
        },
        {
          "internalType": "uint256",
          "name": "_vesting_duration",
          "type": "uint256"
        },
        {
          "internalType": "uint256",
          "name": "_vesting_start",
          "type": "uint256"
        }
      ],
      "name": "deploy_vesting_contract",
      "outputs": [
        {
          "internalType": "address",
          "name": "",
          "type": "address"
        }
      ],
      "stateMutability": "nonpayable",
      "type": "function"
    },
    {
      "inputs": [],
      "name": "future_admin",
      "outputs": [
        {
          "internalType": "address",
          "name": "",
          "type": "address"
        }
      ],
      "stateMutability": "view",
      "type": "function"
    },
    {
      "inputs": [],
      "name": "latest_deployed_address",
      "outputs": [
        {
          "internalType": "address",
          "name": "",
          "type": "address"
        }
      ],
      "stateMutability": "view",
      "type": "function"
    },
    {
      "inputs": [],
      "name": "target",
      "outputs": [
        {
          "internalType": "address",
          "name": "",
          "type": "address"
        }
      ],
      "stateMutability": "view",
      "type": "function"
    }
  ],
  "bytecode": "0x608060405234801561001057600080fd5b5060405161073d38038061073d8339818101604052604081101561003357600080fd5b508051602090910151600280546001600160a01b039384166001600160a01b031991821617909155600080549390921692169190911790556106c38061007a6000396000f3fe608060405234801561001057600080fd5b506004361061007d5760003560e01c80636b441a401161005b5780636b441a40146100ca57806385f504f6146100f0578063d4b839921461013a578063f851a440146101425761007d565b80630e8a37971461008257806317f7182a146100a65780636a1c05ae146100ae575b600080fd5b61008a61014a565b604080516001600160a01b039092168252519081900360200190f35b61008a610159565b6100b6610168565b604080519115158252519081900360200190f35b6100b6600480360360208110156100e057600080fd5b50356001600160a01b0316610266565b61008a600480360360c081101561010657600080fd5b506001600160a01b038135811691602081013590911690604081013590606081013515159060808101359060a00135610311565b61008a61061d565b61008a61062c565b6003546001600160a01b031681565b6001546001600160a01b031681565b600080546001600160a01b031633146101ba576040805162461bcd60e51b815260206004820152600f60248201526e6465763a2061646d696e206f6e6c7960881b604482015290519081900360640190fd5b6001546001600160a01b03168061020d576040805162461bcd60e51b815260206004820152601260248201527119195d8e8818591b5a5b881b9bdd081cd95d60721b604482015290519081900360640190fd5b600080546001600160a01b0383166001600160a01b0319909116811790915560408051918252517febee2d5739011062cb4f14113f3b36bf0ffe3da5c0568f64189d1012a11891059181900360200190a1600191505090565b600080546001600160a01b031633146102b8576040805162461bcd60e51b815260206004820152600f60248201526e6465763a2061646d696e206f6e6c7960881b604482015290519081900360640190fd5b600180546001600160a01b0384166001600160a01b0319909116811790915560408051918252517f2f56810a6bf40af059b96d3aea4db54081f378029a518390491093a7b67032e99181900360200190a1506001919050565b600080546001600160a01b03163314610363576040805162461bcd60e51b815260206004820152600f60248201526e6465763a2061646d696e206f6e6c7960881b604482015290519081900360640190fd5b428210156103b8576040805162461bcd60e51b815260206004820152601860248201527f6465763a2073746172742074696d6520746f6f20736f6f6e0000000000000000604482015290519081900360640190fd5b6301e13380831015610411576040805162461bcd60e51b815260206004820152601760248201527f6465763a206475726174696f6e20746f6f2073686f7274000000000000000000604482015290519081900360640190fd5b6001600160a01b038716610460576040805162461bcd60e51b81526020600482015260116024820152706465763a207a65726f206164647265737360781b604482015290519081900360640190fd5b81610469574291505b600254600090610481906001600160a01b031661063b565b9050876001600160a01b031663095ea7b382886040518363ffffffff1660e01b815260040180836001600160a01b0316815260200182815260200192505050602060405180830381600087803b1580156104da57600080fd5b505af11580156104ee573d6000803e3d6000fd5b505050506040513d602081101561050457600080fd5b505161054d576040805162461bcd60e51b815260206004820152601360248201527219195d8e88185c1c1c9bdd994819985a5b1959606a1b604482015290519081900360640190fd5b60008054604080516360ab0d5f60e11b81526001600160a01b0392831660048201528b831660248201528a83166044820152606481018a90526084810187905287870160a482015288151560c482015290519184169263c1561abe9260e4808401936020939083900390910190829087803b1580156105cb57600080fd5b505af11580156105df573d6000803e3d6000fd5b505050506040513d60208110156105f557600080fd5b5050600380546001600160a01b0319166001600160a01b038316179055979650505050505050565b6002546001600160a01b031681565b6000546001600160a01b031681565b6000808260601b9050604051733d602d80600a3d3981f3363d3d373d3d3d363d7360601b81528160148201526e5af43d82803e903d91602b57fd5bf360881b60288201526037816000f094935050505056fea2646970667358221220cba63d1d9da76c6f88984c963725ab7686d773ce939dab8ac8619d96d557530364736f6c634300060c0033",
  "linkReferences": {},
  "deployedLinkReferences": {}
}