{
  "_format": "hh-sol-artifact-1",
  "contractName": "TestDistributor",
  "sourceName": "contracts/testing/TestDistributor.sol",
  "abi": [
    {
      "inputs": [
        {
          "internalType": "address",
          "name": "_token",
          "type": "address"
        }
      ],
      "stateMutability": "nonpayable",
      "type": "constructor"
    },
    {
      "inputs": [
        {
          "internalType": "address",
          "name": "_token",
          "type": "address"
        }
      ],
      "name": "distribute",
      "outputs": [
        {
          "internalType": "bool",
          "name": "",
          "type": "bool"
        }
      ],
      "stateMutability": "nonpayable",
      "type": "function"
    }
  ],
  "bytecode": "0x608060405234801561001057600080fd5b506040516102833803806102838339818101604052602081101561003357600080fd5b50516001600081905580546001600160a01b039092166001600160a01b03199092169190911790556102198061006a6000396000f3fe608060405234801561001057600080fd5b506004361061002b5760003560e01c806363453ae114610030575b600080fd5b6100566004803603602081101561004657600080fd5b50356001600160a01b031661006a565b604080519115158252519081900360200190f35b6001546000906001600160a01b03838116911614156101da5760408051636eb1769f60e11b815233600482015230602482015290516000916001600160a01b0385169163dd62ed3e91604480820192602092909190829003018186803b1580156100d357600080fd5b505afa1580156100e7573d6000803e3d6000fd5b505050506040513d60208110156100fd57600080fd5b505190508061010b57600080fd5b604080516323b872dd60e01b81523360048201523060248201526044810183905290516001600160a01b038516916323b872dd9160648083019260209291908290030181600087803b15801561016057600080fd5b505af1158015610174573d6000803e3d6000fd5b505050506040513d602081101561018a57600080fd5b50516101d0576040805162461bcd60e51b815260206004820152601060248201526f3a3930b739b332b9103330b4b632b21760811b604482015290519081900360640190fd5b60019150506101de565b5060005b91905056fea26469706673582212207440c3be7aff90b95e570816711476a0999c1e4dabb6e9f24d1b62f96bc2dd7a64736f6c634300060c0033",
  "linkReferences": {},
  "deployedLinkReferences": {}
}