{
  "_format": "hh-sol-artifact-1",
  "contractName": "FeeDistributionV1",
  "sourceName": "contracts/FeeDistribution/FeeDistributorV1.sol",
  "abi": [
    {
      "inputs": [
        {
          "internalType": "address",
          "name": "_insure_token",
          "type": "address"
        },
        {
          "internalType": "address",
          "name": "_converter",
          "type": "address"
        }
      ],
      "stateMutability": "nonpayable",
      "type": "constructor"
    },
    {
      "inputs": [],
      "name": "UniswapV2Router01",
      "outputs": [
        {
          "internalType": "address",
          "name": "",
          "type": "address"
        }
      ],
      "stateMutability": "view",
      "type": "function"
    },
    {
      "inputs": [],
      "name": "converter",
      "outputs": [
        {
          "internalType": "contract ConverterV1",
          "name": "",
          "type": "address"
        }
      ],
      "stateMutability": "view",
      "type": "function"
    },
    {
      "inputs": [
        {
          "internalType": "address",
          "name": "_token",
          "type": "address"
        }
      ],
      "name": "distribute",
      "outputs": [
        {
          "internalType": "bool",
          "name": "",
          "type": "bool"
        }
      ],
      "stateMutability": "nonpayable",
      "type": "function"
    }
  ],
  "bytecode": "0x608060405234801561001057600080fd5b506040516105da3803806105da8339818101604052604081101561003357600080fd5b508051602090910151600080546001600160a01b039384166001600160a01b031991821617909155600180549390921692169190911790556105608061007a6000396000f3fe608060405234801561001057600080fd5b50600436106100415760003560e01c806363453ae114610046578063bd38837b14610080578063db522bd4146100a4575b600080fd5b61006c6004803603602081101561005c57600080fd5b50356001600160a01b03166100ac565b604080519115158252519081900360200190f35b610088610503565b604080516001600160a01b039092168252519081900360200190f35b610088610512565b60408051636eb1769f60e11b8152336004820152306024820152905160009182916001600160a01b0385169163dd62ed3e916044808301926020929190829003018186803b1580156100fd57600080fd5b505afa158015610111573d6000803e3d6000fd5b505050506040513d602081101561012757600080fd5b505190508061013557600080fd5b604080516323b872dd60e01b81523360048201523060248201526044810183905290516001600160a01b038516916323b872dd9160648083019260209291908290030181600087803b15801561018a57600080fd5b505af115801561019e573d6000803e3d6000fd5b505050506040513d60208110156101b457600080fd5b50516101fa576040805162461bcd60e51b815260206004820152601060248201526f3a3930b739b332b9103330b4b632b21760811b604482015290519081900360640190fd5b6000836001600160a01b03166370a08231306040518263ffffffff1660e01b815260040180826001600160a01b0316815260200191505060206040518083038186803b15801561024957600080fd5b505afa15801561025d573d6000803e3d6000fd5b505050506040513d602081101561027357600080fd5b50516001546040805163095ea7b360e01b81526001600160a01b0392831660048201526024810184905290519293509086169163095ea7b3916044808201926020929091908290030181600087803b1580156102ce57600080fd5b505af11580156102e2573d6000803e3d6000fd5b505050506040513d60208110156102f857600080fd5b505161033d576040805162461bcd60e51b815260206004820152600f60248201526e30b8383937bb32903330b4b632b21760891b604482015290519081900360640190fd5b600154604080516304d2654160e41b81526004810184905230602482015290516001600160a01b0390921691634d265410916044808201926020929091908290030181600087803b15801561039157600080fd5b505af11580156103a5573d6000803e3d6000fd5b505050506040513d60208110156103bb57600080fd5b50516103fc576040805162461bcd60e51b815260206004820152600b60248201526a1cddd85c0819985a5b195960aa1b604482015290519081900360640190fd5b60008054604080516370a0823160e01b815230600482015290516001600160a01b03909216916370a0823191602480820192602092909190829003018186803b15801561044857600080fd5b505afa15801561045c573d6000803e3d6000fd5b505050506040513d602081101561047257600080fd5b5051905080156104f8576000805460408051630852cd8d60e31b81526004810185905290516001600160a01b03909216926342966c68926024808401936020939083900390910190829087803b1580156104cb57600080fd5b505af11580156104df573d6000803e3d6000fd5b505050506040513d60208110156104f557600080fd5b50505b506001949350505050565b6001546001600160a01b031681565b73f164fc0ec4e93095b804a4795bbe1e041497b92a8156fea26469706673582212209381c82ada47dd2a200d1ad30348c3185264cdaf65ae36c2f30b02d0b3da50fe64736f6c634300060c0033",
  "linkReferences": {},
  "deployedLinkReferences": {}
}