{
  "_format": "hh-sol-artifact-1",
  "contractName": "Minter",
  "sourceName": "contracts/Minter.sol",
  "abi": [
    {
      "inputs": [
        {
          "internalType": "address",
          "name": "_token",
          "type": "address"
        },
        {
          "internalType": "address",
          "name": "_controller",
          "type": "address"
        },
        {
          "internalType": "address",
          "name": "_registry",
          "type": "address"
        }
      ],
      "stateMutability": "nonpayable",
      "type": "constructor"
    },
    {
      "anonymous": false,
      "inputs": [
        {
          "indexed": true,
          "internalType": "address",
          "name": "recipient",
          "type": "address"
        },
        {
          "indexed": false,
          "internalType": "address",
          "name": "gauge",
          "type": "address"
        },
        {
          "indexed": false,
          "internalType": "uint256",
          "name": "minted",
          "type": "uint256"
        }
      ],
      "name": "Minted",
      "type": "event"
    },
    {
      "anonymous": false,
      "inputs": [
        {
          "indexed": false,
          "internalType": "address",
          "name": "admin",
          "type": "address"
        }
      ],
      "name": "SetAdmin",
      "type": "event"
    },
    {
      "anonymous": false,
      "inputs": [
        {
          "indexed": false,
          "internalType": "address",
          "name": "converter",
          "type": "address"
        }
      ],
      "name": "SetConverter",
      "type": "event"
    },
    {
      "inputs": [
        {
          "internalType": "address",
          "name": "",
          "type": "address"
        },
        {
          "internalType": "address",
          "name": "",
          "type": "address"
        }
      ],
      "name": "allowed_to_mint_for",
      "outputs": [
        {
          "internalType": "bool",
          "name": "",
          "type": "bool"
        }
      ],
      "stateMutability": "view",
      "type": "function"
    },
    {
      "inputs": [],
      "name": "converter",
      "outputs": [
        {
          "internalType": "contract IConverter",
          "name": "",
          "type": "address"
        }
      ],
      "stateMutability": "view",
      "type": "function"
    },
    {
      "inputs": [
        {
          "internalType": "uint256",
          "name": "_amountOut",
          "type": "uint256"
        }
      ],
      "name": "emergency_mint",
      "outputs": [],
      "stateMutability": "nonpayable",
      "type": "function"
    },
    {
      "inputs": [],
      "name": "gauge_controller",
      "outputs": [
        {
          "internalType": "contract IGaugeController",
          "name": "",
          "type": "address"
        }
      ],
      "stateMutability": "view",
      "type": "function"
    },
    {
      "inputs": [],
      "name": "insure_token",
      "outputs": [
        {
          "internalType": "contract IInsureToken",
          "name": "",
          "type": "address"
        }
      ],
      "stateMutability": "view",
      "type": "function"
    },
    {
      "inputs": [
        {
          "internalType": "address",
          "name": "gauge_addr",
          "type": "address"
        }
      ],
      "name": "mint",
      "outputs": [],
      "stateMutability": "nonpayable",
      "type": "function"
    },
    {
      "inputs": [
        {
          "internalType": "address",
          "name": "gauge_addr",
          "type": "address"
        },
        {
          "internalType": "address",
          "name": "_for",
          "type": "address"
        }
      ],
      "name": "mint_for",
      "outputs": [],
      "stateMutability": "nonpayable",
      "type": "function"
    },
    {
      "inputs": [
        {
          "internalType": "address[8]",
          "name": "gauge_addrs",
          "type": "address[8]"
        }
      ],
      "name": "mint_many",
      "outputs": [],
      "stateMutability": "nonpayable",
      "type": "function"
    },
    {
      "inputs": [
        {
          "internalType": "address",
          "name": "",
          "type": "address"
        },
        {
          "internalType": "address",
          "name": "",
          "type": "address"
        }
      ],
      "name": "minted",
      "outputs": [
        {
          "internalType": "uint256",
          "name": "",
          "type": "uint256"
        }
      ],
      "stateMutability": "view",
      "type": "function"
    },
    {
      "inputs": [],
      "name": "registry",
      "outputs": [
        {
          "internalType": "contract IRegistry",
          "name": "",
          "type": "address"
        }
      ],
      "stateMutability": "view",
      "type": "function"
    },
    {
      "inputs": [
        {
          "internalType": "address",
          "name": "_admin",
          "type": "address"
        }
      ],
      "name": "set_admin",
      "outputs": [],
      "stateMutability": "nonpayable",
      "type": "function"
    },
    {
      "inputs": [
        {
          "internalType": "address",
          "name": "_converter",
          "type": "address"
        }
      ],
      "name": "set_converter",
      "outputs": [],
      "stateMutability": "nonpayable",
      "type": "function"
    },
    {
      "inputs": [
        {
          "internalType": "address",
          "name": "minting_user",
          "type": "address"
        }
      ],
      "name": "toggle_approve_mint",
      "outputs": [],
      "stateMutability": "nonpayable",
      "type": "function"
    }
  ],
  "bytecode": "0x608060405234801561001057600080fd5b50604051610d6f380380610d6f8339818101604052606081101561003357600080fd5b508051602082015160409092015160016000819055600280546001600160a01b039485166001600160a01b03199182161790915560038054958516958216959095179094558054929091169183169190911790556006805490911633179055610cce806100a16000396000f3fe608060405234801561001057600080fd5b50600436106100cf5760003560e01c80639e62a8b21161008c578063bd38837b11610066578063bd38837b1461026f578063d8b9a01814610277578063dd289d601461027f578063e9333fab146102a5576100cf565b80639e62a8b2146101d1578063a0990033146101d9578063a51e19041461021b576100cf565b806327f18ae3146100d45780636a627842146101045780636d6459cc1461012a5780637b103999146101505780638b752bb01461017457806398c31344146101b4575b600080fd5b610102600480360360408110156100ea57600080fd5b506001600160a01b03813581169160200135166102cb565b005b6101026004803603602081101561011a57600080fd5b50356001600160a01b0316610366565b6101026004803603602081101561014057600080fd5b50356001600160a01b03166103d5565b61015861047a565b604080516001600160a01b039092168252519081900360200190f35b6101a26004803603604081101561018a57600080fd5b506001600160a01b0381358116916020013516610489565b60408051918252519081900360200190f35b610102600480360360208110156101ca57600080fd5b50356104a6565b6101586106f2565b610207600480360360408110156101ef57600080fd5b506001600160a01b0381358116916020013516610701565b604080519115158252519081900360200190f35b610102600480360361010081101561023257600080fd5b8101908080610100019060088060200260405190810160405280929190826008602002808284376000920191909152509194506107219350505050565b6101586107d3565b6101586107e2565b6101026004803603602081101561029557600080fd5b50356001600160a01b03166107f1565b610102600480360360208110156102bb57600080fd5b50356001600160a01b0316610825565b60026000541415610323576040805162461bcd60e51b815260206004820152601f60248201527f5265656e7472616e637947756172643a207265656e7472616e742063616c6c00604482015290519081900360640190fd5b600260009081553381526005602090815260408083206001600160a01b038516845290915290205460ff161561035d5761035d82826108ca565b50506001600055565b600260005414156103be576040805162461bcd60e51b815260206004820152601f60248201527f5265656e7472616e637947756172643a207265656e7472616e742063616c6c00604482015290519081900360640190fd5b60026000556103cd81336108ca565b506001600055565b6006546001600160a01b03163314610426576040805162461bcd60e51b815260206004820152600f60248201526e6465763a2061646d696e206f6e6c7960881b604482015290519081900360640190fd5b600780546001600160a01b0383166001600160a01b0319909116811790915560408051918252517fc06343c9448e37c4ed257861469b4b35c140991c9cf08a4c38d335a1bc6a75d39181900360200190a150565b6001546001600160a01b031681565b600460209081526000928352604080842090915290825290205481565b60015460408051637bca031760e11b815233600482015290516001600160a01b039092169163f794062e91602480820192602092909190829003018186803b1580156104f157600080fd5b505afa158015610505573d6000803e3d6000fd5b505050506040513d602081101561051b57600080fd5b505161052657600080fd5b600754604080516312aeac8f60e11b81526004810184905290516000926001600160a01b03169163255d591e916024808301926020929190829003018186803b15801561057257600080fd5b505afa158015610586573d6000803e3d6000fd5b505050506040513d602081101561059c57600080fd5b505160025460408051631aa9a39360e31b81526004810184905230602482015290519293506001600160a01b039091169163d54d1c989160448082019260009290919082900301818387803b1580156105f457600080fd5b505af1158015610608573d6000803e3d6000fd5b50506002546007546040805163095ea7b360e01b81526001600160a01b03928316600482015260248101879052905191909216935063095ea7b39250604480830192600092919082900301818387803b15801561066457600080fd5b505af1158015610678573d6000803e3d6000fd5b50506007546040805163c73824db60e01b8152600481018690526024810187905233604482015290516001600160a01b03909216935063c73824db925060648082019260009290919082900301818387803b1580156106d657600080fd5b505af11580156106ea573d6000803e3d6000fd5b505050505050565b6002546001600160a01b031681565b600560209081526000928352604080842090915290825290205460ff1681565b60026000541415610779576040805162461bcd60e51b815260206004820152601f60248201527f5265656e7472616e637947756172643a207265656e7472616e742063616c6c00604482015290519081900360640190fd5b600260009081555b600881101561035d57600082826008811061079857fe5b60200201516001600160a01b031614156107b15761035d565b6107cb8282600881106107c057fe5b6020020151336108ca565b600101610781565b6007546001600160a01b031681565b6003546001600160a01b031681565b6001600160a01b031660009081526005602090815260408083203384529091529020805460ff81161560ff19909116179055565b6006546001600160a01b03163314610876576040805162461bcd60e51b815260206004820152600f60248201526e6465763a2061646d696e206f6e6c7960881b604482015290519081900360640190fd5b600680546001600160a01b0383166001600160a01b0319909116811790915560408051918252517f5a272403b402d892977df56625f4164ccaf70ca3863991c43ecfe76a6905b0a19181900360200190a150565b60035460408051633f9095b760e01b81526001600160a01b03858116600483015291516000939290921691633f9095b791602480820192602092909190829003018186803b15801561091b57600080fd5b505afa15801561092f573d6000803e3d6000fd5b505050506040513d602081101561094557600080fd5b505111610999576040805162461bcd60e51b815260206004820152601760248201527f6465763a206761756765206973206e6f74206164646564000000000000000000604482015290519081900360640190fd5b816001600160a01b0316634b820093826040518263ffffffff1660e01b815260040180826001600160a01b03168152602001915050602060405180830381600087803b1580156109e857600080fd5b505af11580156109fc573d6000803e3d6000fd5b505050506040513d6020811015610a1257600080fd5b505060408051630940070760e01b81526001600160a01b03838116600483015291516000928516916309400707916024808301926020929190829003018186803b158015610a5f57600080fd5b505afa158015610a73573d6000803e3d6000fd5b505050506040513d6020811015610a8957600080fd5b50516001600160a01b03808416600090815260046020908152604080832093881683529290529081205491925090610ac2908390610bb8565b90508015610bb257600254604080516340c10f1960e01b81526001600160a01b03868116600483015260248201859052915191909216916340c10f199160448083019260209291908290030181600087803b158015610b2057600080fd5b505af1158015610b34573d6000803e3d6000fd5b505050506040513d6020811015610b4a57600080fd5b50506001600160a01b0380841660008181526004602090815260408083209489168084529482529182902086905581519384528301859052805191927f9d228d69b5fdb8d273a2336f8fb8612d039631024ea9bf09c424a9503aa078f0929081900390910190a25b50505050565b6000610bfa83836040518060400160405280601e81526020017f536166654d6174683a207375627472616374696f6e206f766572666c6f770000815250610c01565b9392505050565b60008184841115610c905760405162461bcd60e51b81526004018080602001828103825283818151815260200191508051906020019080838360005b83811015610c55578181015183820152602001610c3d565b50505050905090810190601f168015610c825780820380516001836020036101000a031916815260200191505b509250505060405180910390fd5b50505090039056fea2646970667358221220a55841f14dc7877bbd716fc4f03f04efede9380cb5e18727e423675d0232725364736f6c634300060c0033",
  "linkReferences": {},
  "deployedLinkReferences": {}
}