{
  "_format": "hh-sol-artifact-1",
  "contractName": "ReportingDistribution",
  "sourceName": "contracts/FeeDistribution/ReportingDistributionV1.sol",
  "abi": [
    {
      "inputs": [
        {
          "internalType": "address",
          "name": "_insure_reporting",
          "type": "address"
        },
        {
          "internalType": "address",
          "name": "_token",
          "type": "address"
        },
        {
          "internalType": "address",
          "name": "_recovery",
          "type": "address"
        },
        {
          "internalType": "address",
          "name": "_admin",
          "type": "address"
        }
      ],
      "stateMutability": "nonpayable",
      "type": "constructor"
    },
    {
      "anonymous": false,
      "inputs": [
        {
          "indexed": false,
          "internalType": "address",
          "name": "admin",
          "type": "address"
        }
      ],
      "name": "AcceptAdmin",
      "type": "event"
    },
    {
      "anonymous": false,
      "inputs": [
        {
          "indexed": false,
          "internalType": "address",
          "name": "recovery",
          "type": "address"
        }
      ],
      "name": "ApplyRecovery",
      "type": "event"
    },
    {
      "anonymous": false,
      "inputs": [
        {
          "indexed": false,
          "internalType": "address",
          "name": "admin",
          "type": "address"
        }
      ],
      "name": "CommitAdmin",
      "type": "event"
    },
    {
      "anonymous": false,
      "inputs": [
        {
          "indexed": false,
          "internalType": "address",
          "name": "recovery",
          "type": "address"
        }
      ],
      "name": "CommitRecovery",
      "type": "event"
    },
    {
      "anonymous": false,
      "inputs": [
        {
          "indexed": false,
          "internalType": "uint256",
          "name": "amount",
          "type": "uint256"
        },
        {
          "indexed": false,
          "internalType": "uint256",
          "name": "blocktime",
          "type": "uint256"
        }
      ],
      "name": "Distribution",
      "type": "event"
    },
    {
      "inputs": [],
      "name": "accept_transfer_ownership",
      "outputs": [
        {
          "internalType": "bool",
          "name": "",
          "type": "bool"
        }
      ],
      "stateMutability": "nonpayable",
      "type": "function"
    },
    {
      "inputs": [],
      "name": "admin",
      "outputs": [
        {
          "internalType": "address",
          "name": "",
          "type": "address"
        }
      ],
      "stateMutability": "view",
      "type": "function"
    },
    {
      "inputs": [],
      "name": "apply_transfer_recovery",
      "outputs": [
        {
          "internalType": "bool",
          "name": "",
          "type": "bool"
        }
      ],
      "stateMutability": "nonpayable",
      "type": "function"
    },
    {
      "inputs": [
        {
          "internalType": "address",
          "name": "_addr",
          "type": "address"
        }
      ],
      "name": "claim",
      "outputs": [
        {
          "internalType": "uint256",
          "name": "",
          "type": "uint256"
        }
      ],
      "stateMutability": "nonpayable",
      "type": "function"
    },
    {
      "inputs": [
        {
          "internalType": "address[20]",
          "name": "_addrs",
          "type": "address[20]"
        }
      ],
      "name": "claim_many",
      "outputs": [
        {
          "internalType": "bool",
          "name": "",
          "type": "bool"
        }
      ],
      "stateMutability": "nonpayable",
      "type": "function"
    },
    {
      "inputs": [
        {
          "internalType": "address",
          "name": "_future_admin",
          "type": "address"
        }
      ],
      "name": "commit_transfer_ownership",
      "outputs": [
        {
          "internalType": "bool",
          "name": "",
          "type": "bool"
        }
      ],
      "stateMutability": "nonpayable",
      "type": "function"
    },
    {
      "inputs": [
        {
          "internalType": "address",
          "name": "_recovery",
          "type": "address"
        }
      ],
      "name": "commit_transfer_recovery",
      "outputs": [
        {
          "internalType": "bool",
          "name": "",
          "type": "bool"
        }
      ],
      "stateMutability": "nonpayable",
      "type": "function"
    },
    {
      "inputs": [
        {
          "internalType": "address",
          "name": "_coin",
          "type": "address"
        }
      ],
      "name": "distribute",
      "outputs": [
        {
          "internalType": "bool",
          "name": "",
          "type": "bool"
        }
      ],
      "stateMutability": "nonpayable",
      "type": "function"
    },
    {
      "inputs": [],
      "name": "future_admin",
      "outputs": [
        {
          "internalType": "address",
          "name": "",
          "type": "address"
        }
      ],
      "stateMutability": "view",
      "type": "function"
    },
    {
      "inputs": [],
      "name": "future_recovery",
      "outputs": [
        {
          "internalType": "address",
          "name": "",
          "type": "address"
        }
      ],
      "stateMutability": "view",
      "type": "function"
    },
    {
      "inputs": [],
      "name": "insure_reporting",
      "outputs": [
        {
          "internalType": "address",
          "name": "",
          "type": "address"
        }
      ],
      "stateMutability": "view",
      "type": "function"
    },
    {
      "inputs": [],
      "name": "is_killed",
      "outputs": [
        {
          "internalType": "bool",
          "name": "",
          "type": "bool"
        }
      ],
      "stateMutability": "view",
      "type": "function"
    },
    {
      "inputs": [],
      "name": "kill_me",
      "outputs": [],
      "stateMutability": "nonpayable",
      "type": "function"
    },
    {
      "inputs": [
        {
          "internalType": "address",
          "name": "_coin",
          "type": "address"
        }
      ],
      "name": "recover_balance",
      "outputs": [
        {
          "internalType": "bool",
          "name": "",
          "type": "bool"
        }
      ],
      "stateMutability": "nonpayable",
      "type": "function"
    },
    {
      "inputs": [],
      "name": "recovery",
      "outputs": [
        {
          "internalType": "address",
          "name": "",
          "type": "address"
        }
      ],
      "stateMutability": "view",
      "type": "function"
    },
    {
      "inputs": [],
      "name": "token",
      "outputs": [
        {
          "internalType": "address",
          "name": "",
          "type": "address"
        }
      ],
      "stateMutability": "view",
      "type": "function"
    },
    {
      "inputs": [
        {
          "internalType": "address",
          "name": "_addr",
          "type": "address"
        }
      ],
      "name": "update_reporter",
      "outputs": [],
      "stateMutability": "nonpayable",
      "type": "function"
    },
    {
      "inputs": [
        {
          "internalType": "address[20]",
          "name": "_addrs",
          "type": "address[20]"
        }
      ],
      "name": "update_reporters",
      "outputs": [],
      "stateMutability": "nonpayable",
      "type": "function"
    }
  ],
  "bytecode": "0x608060405234801561001057600080fd5b506040516114d13803806114d18339818101604052608081101561003357600080fd5b508051602082015160408301516060909301516001600081905580546001600160a01b039485166001600160a01b0319918216179091556002805493851693821693909317909255600580549484169483169490941790935560038054929093169116179055611429806100a86000396000f3fe608060405234801561001057600080fd5b50600436106101165760003560e01c8063d4a2068b116100a2578063e369885311610071578063e3698853146102f5578063e5ea47b8146102fd578063f851a44014610305578063faf1ab6a1461030d578063fc0c546a1461033357610116565b8063d4a2068b1461024b578063d7c37804146102a1578063db2f5f79146102c7578063ddceafa9146102ed57610116565b80636b441a40116100e95780636b441a40146101b9578063735482f4146101df5780637b935a23146101e75780639c868ac01461023b578063c3bb20c41461024357610116565b806302b2ee6a1461011b57806317f7182a146101375780631e83409a1461015b57806363453ae114610193575b600080fd5b61012361033b565b604080519115158252519081900360200190f35b61013f6103fe565b604080516001600160a01b039092168252519081900360200190f35b6101816004803603602081101561017157600080fd5b50356001600160a01b031661040d565b60408051918252519081900360200190f35b610123600480360360208110156101a957600080fd5b50356001600160a01b0316610480565b610123600480360360208110156101cf57600080fd5b50356001600160a01b03166107e3565b61013f610893565b61012360048036036102808110156101fe57600080fd5b8101908080610280019060148060200260405190810160405280929190826014602002808284376000920191909152509194506108a29350505050565b610123610961565b61013f610971565b61029f600480360361028081101561026257600080fd5b8101908080610280019060148060200260405190810160405280929190826014602002808284376000920191909152509194506109809350505050565b005b610123600480360360208110156102b757600080fd5b50356001600160a01b0316610a37565b610123600480360360208110156102dd57600080fd5b50356001600160a01b0316610ae7565b61013f610c5c565b61029f610c6b565b610123610dbd565b61013f610e72565b61029f6004803603602081101561032357600080fd5b50356001600160a01b0316610e81565b61013f610ee8565b6003546000906001600160a01b0316331461038f576040805162461bcd60e51b815260206004820152600f60248201526e6465763a2061646d696e206f6e6c7960881b604482015290519081900360640190fd5b6006546001600160a01b03166103a457600080fd5b600654600580546001600160a01b0319166001600160a01b0392831617908190556040805191909216815290517f069435141f8988f6ca4ec022b080eb4eb1887ad66d5603af8b5fa2853c3bc58f9181900360200190a190565b6004546001600160a01b031681565b600654600090600160a01b900460ff1615156001141561046e576040805162461bcd60e51b815260206004820152601760248201527619195d8e8818dbdb9d1c9858dd081a5cc81ada5b1b1959604a1b604482015290519081900360640190fd5b600061047983610ef7565b9392505050565b6002546000906001600160a01b0383811691161461049d57600080fd5b600654600160a01b900460ff16156104f6576040805162461bcd60e51b815260206004820152601760248201527619195d8e8818dbdb9d1c9858dd081a5cc81ada5b1b1959604a1b604482015290519081900360640190fd5b60408051636eb1769f60e11b815233600482015230602482015290516000916001600160a01b0385169163dd62ed3e91604480820192602092909190829003018186803b15801561054657600080fd5b505afa15801561055a573d6000803e3d6000fd5b505050506040513d602081101561057057600080fd5b5051905080156107a357604080516323b872dd60e01b81523360048201523060248201526044810183905290516001600160a01b038516916323b872dd9160648083019260209291908290030181600087803b1580156105cf57600080fd5b505af11580156105e3573d6000803e3d6000fd5b505050506040513d60208110156105f957600080fd5b5050600154604080516318160ddd60e01b815290516000926001600160a01b0316916318160ddd916004808301926020929190829003018186803b15801561064057600080fd5b505afa158015610654573d6000803e3d6000fd5b505050506040513d602081101561066a57600080fd5b5051905060005b6008548110156107a0576000818152600760205260409020546001600160a01b031680158015906106bb57506001600160a01b0381166000908152600a602052604090205460ff16155b1561079757600154604080516370a0823160e01b81526001600160a01b038481166004830152915160009392909216916370a0823191602480820192602092909190829003018186803b15801561071157600080fd5b505afa158015610725573d6000803e3d6000fd5b505050506040513d602081101561073b57600080fd5b5051905060006107558561074f888561102c565b90611085565b6001600160a01b03841660009081526009602052604090205490915061077b90826110c7565b6001600160a01b03841660009081526009602052604090205550505b50600101610671565b50505b6040805182815242602082015281517f6906cb29ddf55e7857e8b4ca9a2104d586db16c81fb113ceaafcc6213b06ba1c929181900390910190a150919050565b6003546000906001600160a01b03163314610837576040805162461bcd60e51b815260206004820152600f60248201526e6465763a2061646d696e206f6e6c7960881b604482015290519081900360640190fd5b600480546001600160a01b0319166001600160a01b03848116919091179182905560408051929091168252517f59a407284ae6e2986675fa1400d6498af928ed01f4fd2dd6be4a2a8b4fc35b34916020908290030190a1919050565b6006546001600160a01b031681565b600654600090600160a01b900460ff16151560011415610903576040805162461bcd60e51b815260206004820152601760248201527619195d8e8818dbdb9d1c9858dd081a5cc81ada5b1b1959604a1b604482015290519081900360640190fd5b60005b601481101561095857600083826014811061091d57fe5b60200201516001600160a01b0316141561093657610958565b61094f83826014811061094557fe5b6020020151610ef7565b50600101610906565b50600192915050565b600654600160a01b900460ff1681565b6001546001600160a01b031681565b600654600160a01b900460ff161515600114156109de576040805162461bcd60e51b815260206004820152601760248201527619195d8e8818dbdb9d1c9858dd081a5cc81ada5b1b1959604a1b604482015290519081900360640190fd5b60005b6014811015610a335760008282601481106109f857fe5b60200201516001600160a01b03161415610a1157610a33565b610a2a828260148110610a2057fe5b6020020151611121565b506001016109e1565b5050565b6003546000906001600160a01b03163314610a8b576040805162461bcd60e51b815260206004820152600f60248201526e6465763a2061646d696e206f6e6c7960881b604482015290519081900360640190fd5b600680546001600160a01b0319166001600160a01b03848116919091179182905560408051929091168252517f33e8e8a5b2594263daa03e6a0b99dd8cf36976502c07f7528a7170328283f685916020908290030190a1919050565b6003546000906001600160a01b03163314610b3b576040805162461bcd60e51b815260206004820152600f60248201526e6465763a2061646d696e206f6e6c7960881b604482015290519081900360640190fd5b6002546001600160a01b03838116911614610b5557600080fd5b600254604080516370a0823160e01b815230600482015290516000926001600160a01b0316916370a08231916024808301926020929190829003018186803b158015610ba057600080fd5b505afa158015610bb4573d6000803e3d6000fd5b505050506040513d6020811015610bca57600080fd5b50516002546005546040805163a9059cbb60e01b81526001600160a01b03928316600482015260248101859052905193945091169163a9059cbb916044808201926020929091908290030181600087803b158015610c2757600080fd5b505af1158015610c3b573d6000803e3d6000fd5b505050506040513d6020811015610c5157600080fd5b506001949350505050565b6005546001600160a01b031681565b6003546001600160a01b03163314610cbc576040805162461bcd60e51b815260206004820152600f60248201526e6465763a2061646d696e206f6e6c7960881b604482015290519081900360640190fd5b600254604080516370a0823160e01b815230600482015290516000926001600160a01b0316916370a08231916024808301926020929190829003018186803b158015610d0757600080fd5b505afa158015610d1b573d6000803e3d6000fd5b505050506040513d6020811015610d3157600080fd5b50516002546005546040805163a9059cbb60e01b81526001600160a01b03928316600482015260248101859052905193945091169163a9059cbb916044808201926020929091908290030181600087803b158015610d8e57600080fd5b505af1158015610da2573d6000803e3d6000fd5b505050506040513d6020811015610db857600080fd5b505050565b6004546000906001600160a01b03163314610e18576040805162461bcd60e51b81526020600482015260166024820152756465763a206675747572655f61646d696e206f6e6c7960501b604482015290519081900360640190fd5b600454600380546001600160a01b0319166001600160a01b0392831617908190556040805191909216815290517fce0b9b30b1b49e92f89a5f13582d8953787518fc538ec05dbeee71abdba947e29181900360200190a190565b6003546001600160a01b031681565b600654600160a01b900460ff16151560011415610edf576040805162461bcd60e51b815260206004820152601760248201527619195d8e8818dbdb9d1c9858dd081a5cc81ada5b1b1959604a1b604482015290519081900360640190fd5b610a3381611121565b6002546001600160a01b031681565b6001600160a01b0381166000908152600a602052604081205460ff16151560011415610f2257600080fd5b6001600160a01b038216600090815260096020526040902054610f84576040805162461bcd60e51b81526020600482015260156024820152746465763a206e6f20636c61696d61626c652066656560581b604482015290519081900360640190fd5b6001600160a01b038083166000818152600960209081526040808320805490849055600254825163a9059cbb60e01b815260048101969096526024860182905291519095919091169363a9059cbb9360448083019493928390030190829087803b158015610ff157600080fd5b505af1158015611005573d6000803e3d6000fd5b505050506040513d602081101561101b57600080fd5b505161102657600080fd5b92915050565b60008261103b57506000611026565b8282028284828161104857fe5b04146104795760405162461bcd60e51b81526004018080602001828103825260218152602001806113d36021913960400191505060405180910390fd5b600061047983836040518060400160405280601a81526020017f536166654d6174683a206469766973696f6e206279207a65726f000000000000815250611330565b600082820183811015610479576040805162461bcd60e51b815260206004820152601b60248201527f536166654d6174683a206164646974696f6e206f766572666c6f770000000000604482015290519081900360640190fd5b60006002600054141561117b576040805162461bcd60e51b815260206004820152601f60248201527f5265656e7472616e637947756172643a207265656e7472616e742063616c6c00604482015290519081900360640190fd5b6002600055600154604080516370a0823160e01b81526001600160a01b038581166004830152915191909216916370a08231916024808301926020929190829003018186803b1580156111cd57600080fd5b505afa1580156111e1573d6000803e3d6000fd5b505050506040513d60208110156111f757600080fd5b50516112e8576001600160a01b038216600090815260096020526040902054156112bc576001600160a01b03808316600081815260096020908152604080832080549084905560025482516323b872dd60e01b81523060048201526024810196909652604486018290529151909591909116936323b872dd9360648083019493928390030190829087803b15801561128e57600080fd5b505af11580156112a2573d6000803e3d6000fd5b505050506040513d60208110156112b857600080fd5b5050505b506001600160a01b0381166000908152600a60205260409020805460ff19166001908117909155611326565b6008546112f69060016110c7565b6008819055600090815260076020526040902080546001600160a01b0319166001600160a01b0384161790555060015b6001600055919050565b600081836113bc5760405162461bcd60e51b81526004018080602001828103825283818151815260200191508051906020019080838360005b83811015611381578181015183820152602001611369565b50505050905090810190601f1680156113ae5780820380516001836020036101000a031916815260200191505b509250505060405180910390fd5b5060008385816113c857fe5b049594505050505056fe536166654d6174683a206d756c7469706c69636174696f6e206f766572666c6f77a2646970667358221220ad61549eaf1cd78b015c0295c4244919ef5ee33b5f0d17de9efc0f679e4b182964736f6c634300060c0033",
  "linkReferences": {},
  "deployedLinkReferences": {}
}