{
  "_format": "hh-sol-artifact-1",
  "contractName": "VotingEscrow",
  "sourceName": "contracts/VotingEscrow.sol",
  "abi": [
    {
      "inputs": [
        {
          "internalType": "address",
          "name": "token_addr",
          "type": "address"
        },
        {
          "internalType": "string",
          "name": "_name",
          "type": "string"
        },
        {
          "internalType": "string",
          "name": "_symbol",
          "type": "string"
        },
        {
          "internalType": "string",
          "name": "_version",
          "type": "string"
        }
      ],
      "stateMutability": "nonpayable",
      "type": "constructor"
    },
    {
      "anonymous": false,
      "inputs": [
        {
          "indexed": false,
          "internalType": "address",
          "name": "admin",
          "type": "address"
        }
      ],
      "name": "ApplyOwnership",
      "type": "event"
    },
    {
      "anonymous": false,
      "inputs": [
        {
          "indexed": false,
          "internalType": "address",
          "name": "admin",
          "type": "address"
        }
      ],
      "name": "CommitOwnership",
      "type": "event"
    },
    {
      "anonymous": false,
      "inputs": [
        {
          "indexed": true,
          "internalType": "address",
          "name": "provider",
          "type": "address"
        },
        {
          "indexed": false,
          "internalType": "uint256",
          "name": "value",
          "type": "uint256"
        },
        {
          "indexed": true,
          "internalType": "uint256",
          "name": "locktime",
          "type": "uint256"
        },
        {
          "indexed": false,
          "internalType": "int128",
          "name": "_type",
          "type": "int128"
        },
        {
          "indexed": false,
          "internalType": "uint256",
          "name": "ts",
          "type": "uint256"
        }
      ],
      "name": "Deposit",
      "type": "event"
    },
    {
      "anonymous": false,
      "inputs": [
        {
          "indexed": false,
          "internalType": "uint256",
          "name": "prevSupply",
          "type": "uint256"
        },
        {
          "indexed": false,
          "internalType": "uint256",
          "name": "supply",
          "type": "uint256"
        }
      ],
      "name": "Supply",
      "type": "event"
    },
    {
      "anonymous": false,
      "inputs": [
        {
          "indexed": true,
          "internalType": "address",
          "name": "provider",
          "type": "address"
        },
        {
          "indexed": false,
          "internalType": "uint256",
          "name": "value",
          "type": "uint256"
        },
        {
          "indexed": false,
          "internalType": "uint256",
          "name": "ts",
          "type": "uint256"
        }
      ],
      "name": "Withdraw",
      "type": "event"
    },
    {
      "inputs": [],
      "name": "admin",
      "outputs": [
        {
          "internalType": "address",
          "name": "",
          "type": "address"
        }
      ],
      "stateMutability": "view",
      "type": "function"
    },
    {
      "inputs": [],
      "name": "apply_smart_wallet_checker",
      "outputs": [],
      "stateMutability": "nonpayable",
      "type": "function"
    },
    {
      "inputs": [],
      "name": "apply_transfer_ownership",
      "outputs": [],
      "stateMutability": "nonpayable",
      "type": "function"
    },
    {
      "inputs": [
        {
          "internalType": "address",
          "name": "addr",
          "type": "address"
        },
        {
          "internalType": "uint256",
          "name": "_t",
          "type": "uint256"
        }
      ],
      "name": "balanceOf",
      "outputs": [
        {
          "internalType": "uint256",
          "name": "",
          "type": "uint256"
        }
      ],
      "stateMutability": "view",
      "type": "function"
    },
    {
      "inputs": [
        {
          "internalType": "address",
          "name": "addr",
          "type": "address"
        },
        {
          "internalType": "uint256",
          "name": "_block",
          "type": "uint256"
        }
      ],
      "name": "balanceOfAt",
      "outputs": [
        {
          "internalType": "uint256",
          "name": "",
          "type": "uint256"
        }
      ],
      "stateMutability": "view",
      "type": "function"
    },
    {
      "inputs": [
        {
          "internalType": "address",
          "name": "_newController",
          "type": "address"
        }
      ],
      "name": "changeController",
      "outputs": [],
      "stateMutability": "nonpayable",
      "type": "function"
    },
    {
      "inputs": [],
      "name": "checkpoint",
      "outputs": [],
      "stateMutability": "nonpayable",
      "type": "function"
    },
    {
      "inputs": [
        {
          "internalType": "address",
          "name": "addr",
          "type": "address"
        }
      ],
      "name": "commit_smart_wallet_checker",
      "outputs": [],
      "stateMutability": "nonpayable",
      "type": "function"
    },
    {
      "inputs": [
        {
          "internalType": "address",
          "name": "addr",
          "type": "address"
        }
      ],
      "name": "commit_transfer_ownership",
      "outputs": [],
      "stateMutability": "nonpayable",
      "type": "function"
    },
    {
      "inputs": [],
      "name": "controller",
      "outputs": [
        {
          "internalType": "address",
          "name": "",
          "type": "address"
        }
      ],
      "stateMutability": "view",
      "type": "function"
    },
    {
      "inputs": [
        {
          "internalType": "uint256",
          "name": "_value",
          "type": "uint256"
        },
        {
          "internalType": "uint256",
          "name": "_unlock_time",
          "type": "uint256"
        }
      ],
      "name": "create_lock",
      "outputs": [],
      "stateMutability": "nonpayable",
      "type": "function"
    },
    {
      "inputs": [],
      "name": "decimals",
      "outputs": [
        {
          "internalType": "uint256",
          "name": "",
          "type": "uint256"
        }
      ],
      "stateMutability": "view",
      "type": "function"
    },
    {
      "inputs": [
        {
          "internalType": "address",
          "name": "_addr",
          "type": "address"
        },
        {
          "internalType": "uint256",
          "name": "_value",
          "type": "uint256"
        }
      ],
      "name": "deposit_for",
      "outputs": [],
      "stateMutability": "nonpayable",
      "type": "function"
    },
    {
      "inputs": [],
      "name": "epoch",
      "outputs": [
        {
          "internalType": "uint256",
          "name": "",
          "type": "uint256"
        }
      ],
      "stateMutability": "view",
      "type": "function"
    },
    {
      "inputs": [],
      "name": "future_admin",
      "outputs": [
        {
          "internalType": "address",
          "name": "",
          "type": "address"
        }
      ],
      "stateMutability": "view",
      "type": "function"
    },
    {
      "inputs": [],
      "name": "future_smart_wallet_checker",
      "outputs": [
        {
          "internalType": "address",
          "name": "",
          "type": "address"
        }
      ],
      "stateMutability": "view",
      "type": "function"
    },
    {
      "inputs": [
        {
          "internalType": "address",
          "name": "addr",
          "type": "address"
        }
      ],
      "name": "get_last_user_slope",
      "outputs": [
        {
          "internalType": "uint256",
          "name": "",
          "type": "uint256"
        }
      ],
      "stateMutability": "view",
      "type": "function"
    },
    {
      "inputs": [
        {
          "internalType": "address",
          "name": "_user",
          "type": "address"
        }
      ],
      "name": "get_user_point_epoch",
      "outputs": [
        {
          "internalType": "uint256",
          "name": "",
          "type": "uint256"
        }
      ],
      "stateMutability": "view",
      "type": "function"
    },
    {
      "inputs": [
        {
          "internalType": "uint256",
          "name": "_value",
          "type": "uint256"
        }
      ],
      "name": "increase_amount",
      "outputs": [],
      "stateMutability": "nonpayable",
      "type": "function"
    },
    {
      "inputs": [
        {
          "internalType": "uint256",
          "name": "_unlock_time",
          "type": "uint256"
        }
      ],
      "name": "increase_unlock_time",
      "outputs": [],
      "stateMutability": "nonpayable",
      "type": "function"
    },
    {
      "inputs": [
        {
          "internalType": "address",
          "name": "",
          "type": "address"
        }
      ],
      "name": "locked",
      "outputs": [
        {
          "internalType": "int128",
          "name": "amount",
          "type": "int128"
        },
        {
          "internalType": "uint256",
          "name": "end",
          "type": "uint256"
        }
      ],
      "stateMutability": "view",
      "type": "function"
    },
    {
      "inputs": [
        {
          "internalType": "address",
          "name": "_addr",
          "type": "address"
        }
      ],
      "name": "locked__end",
      "outputs": [
        {
          "internalType": "uint256",
          "name": "",
          "type": "uint256"
        }
      ],
      "stateMutability": "view",
      "type": "function"
    },
    {
      "inputs": [],
      "name": "name",
      "outputs": [
        {
          "internalType": "string",
          "name": "",
          "type": "string"
        }
      ],
      "stateMutability": "view",
      "type": "function"
    },
    {
      "inputs": [
        {
          "internalType": "uint256",
          "name": "",
          "type": "uint256"
        }
      ],
      "name": "point_history",
      "outputs": [
        {
          "internalType": "int128",
          "name": "bias",
          "type": "int128"
        },
        {
          "internalType": "int128",
          "name": "slope",
          "type": "int128"
        },
        {
          "internalType": "uint256",
          "name": "ts",
          "type": "uint256"
        },
        {
          "internalType": "uint256",
          "name": "blk",
          "type": "uint256"
        }
      ],
      "stateMutability": "view",
      "type": "function"
    },
    {
      "inputs": [
        {
          "internalType": "uint256",
          "name": "",
          "type": "uint256"
        }
      ],
      "name": "slope_changes",
      "outputs": [
        {
          "internalType": "int128",
          "name": "",
          "type": "int128"
        }
      ],
      "stateMutability": "view",
      "type": "function"
    },
    {
      "inputs": [],
      "name": "smart_wallet_checker",
      "outputs": [
        {
          "internalType": "address",
          "name": "",
          "type": "address"
        }
      ],
      "stateMutability": "view",
      "type": "function"
    },
    {
      "inputs": [],
      "name": "supply",
      "outputs": [
        {
          "internalType": "uint256",
          "name": "",
          "type": "uint256"
        }
      ],
      "stateMutability": "view",
      "type": "function"
    },
    {
      "inputs": [],
      "name": "symbol",
      "outputs": [
        {
          "internalType": "string",
          "name": "",
          "type": "string"
        }
      ],
      "stateMutability": "view",
      "type": "function"
    },
    {
      "inputs": [],
      "name": "token",
      "outputs": [
        {
          "internalType": "address",
          "name": "",
          "type": "address"
        }
      ],
      "stateMutability": "view",
      "type": "function"
    },
    {
      "inputs": [
        {
          "internalType": "uint256",
          "name": "t",
          "type": "uint256"
        }
      ],
      "name": "totalSupply",
      "outputs": [
        {
          "internalType": "uint256",
          "name": "",
          "type": "uint256"
        }
      ],
      "stateMutability": "view",
      "type": "function"
    },
    {
      "inputs": [
        {
          "internalType": "uint256",
          "name": "_block",
          "type": "uint256"
        }
      ],
      "name": "totalSupplyAt",
      "outputs": [
        {
          "internalType": "uint256",
          "name": "",
          "type": "uint256"
        }
      ],
      "stateMutability": "view",
      "type": "function"
    },
    {
      "inputs": [],
      "name": "transfersEnabled",
      "outputs": [
        {
          "internalType": "bool",
          "name": "",
          "type": "bool"
        }
      ],
      "stateMutability": "view",
      "type": "function"
    },
    {
      "inputs": [
        {
          "internalType": "address",
          "name": "",
          "type": "address"
        }
      ],
      "name": "user_point_epoch",
      "outputs": [
        {
          "internalType": "uint256",
          "name": "",
          "type": "uint256"
        }
      ],
      "stateMutability": "view",
      "type": "function"
    },
    {
      "inputs": [
        {
          "internalType": "address",
          "name": "",
          "type": "address"
        },
        {
          "internalType": "uint256",
          "name": "",
          "type": "uint256"
        }
      ],
      "name": "user_point_history",
      "outputs": [
        {
          "internalType": "int128",
          "name": "bias",
          "type": "int128"
        },
        {
          "internalType": "int128",
          "name": "slope",
          "type": "int128"
        },
        {
          "internalType": "uint256",
          "name": "ts",
          "type": "uint256"
        },
        {
          "internalType": "uint256",
          "name": "blk",
          "type": "uint256"
        }
      ],
      "stateMutability": "view",
      "type": "function"
    },
    {
      "inputs": [
        {
          "internalType": "address",
          "name": "_addr",
          "type": "address"
        },
        {
          "internalType": "uint256",
          "name": "_idx",
          "type": "uint256"
        }
      ],
      "name": "user_point_history__ts",
      "outputs": [
        {
          "internalType": "uint256",
          "name": "",
          "type": "uint256"
        }
      ],
      "stateMutability": "view",
      "type": "function"
    },
    {
      "inputs": [],
      "name": "version",
      "outputs": [
        {
          "internalType": "string",
          "name": "",
          "type": "string"
        }
      ],
      "stateMutability": "view",
      "type": "function"
    },
    {
      "inputs": [],
      "name": "withdraw",
      "outputs": [],
      "stateMutability": "nonpayable",
      "type": "function"
    }
  ],
  "bytecode": "0x60806040523480156200001157600080fd5b506040516200349238038062003492833981810160405260808110156200003757600080fd5b8151602083018051604051929492938301929190846401000000008211156200005f57600080fd5b9083019060208201858111156200007557600080fd5b82516401000000008111828201881017156200009057600080fd5b82525081516020918201929091019080838360005b83811015620000bf578181015183820152602001620000a5565b50505050905090810190601f168015620000ed5780820380516001836020036101000a031916815260200191505b50604052602001805160405193929190846401000000008211156200011157600080fd5b9083019060208201858111156200012757600080fd5b82516401000000008111828201881017156200014257600080fd5b82525081516020918201929091019080838360005b838110156200017157818101518382015260200162000157565b50505050905090810190601f1680156200019f5780820380516001836020036101000a031916815260200191505b5060405260200180516040519392919084640100000000821115620001c357600080fd5b908301906020820185811115620001d957600080fd5b8251640100000000811182820188101715620001f457600080fd5b82525081516020918201929091019080838360005b838110156200022357818101518382015260200162000209565b50505050905090810190601f168015620002515780820380516001836020036101000a031916815260200191505b506040525050600160008190556c03c95a2f0b4856475fe000000f8054336001600160a01b03199182168117909255825481166001600160a01b0389161790925543600755426006556c03c95a2f0b4856475fe00000088054600160a01b931690911760ff60a01b19169190911790555060126c03c95a2f0b4856475fe000000c8190558351620002f6906c03c95a2f0b4856475fe000000990602087019062000346565b50825162000318906c03c95a2f0b4856475fe000000a90602086019062000346565b5081516200033a906c03c95a2f0b4856475fe000000b90602085019062000346565b505050505050620003e2565b828054600181600116156101000203166002900490600052602060002090601f016020900481019282601f106200038957805160ff1916838001178555620003b9565b82800160010185558215620003b9579182015b82811115620003b95782518255916020019190600101906200039c565b50620003c7929150620003cb565b5090565b5b80821115620003c75760008155600101620003cc565b6130a080620003f26000396000f3fe608060405234801561001057600080fd5b50600436106102265760003560e01c80637175d4f711610130578063bef97c87116100b8578063da020a181161007c578063da020a181461064b578063eff7a61214610677578063f77c479114610694578063f851a4401461069c578063fc0c546a146106a457610226565b8063bef97c871461059e578063c2c4c5c1146105ba578063cbf9fe5f146105c2578063d1febfb914610608578063d5443e9d1461062557610226565b8063900cf0cf116100ff578063900cf0cf1461052e57806395d89b4114610536578063981b24d01461053e578063adc635891461055b578063bd85b0391461058157610226565b80637175d4f7146104f05780637c74a174146104f85780638e5b490f1461051e5780638ff36fd11461052657610226565b80633cebb823116101b357806357f901e21161018257806357f901e21461044557806365fc38731461046b5780636a1c05ae1461048e5780636b441a401461049657806371197484146104bc57610226565b80633cebb823146103ce5780634957677c146103f45780634ee2cd7e1461041157806354fd4d501461043d57610226565b806317f7182a116101fa57806317f7182a1461031457806328d09d4714610338578063313ce567146103905780633a46273e146103985780633ccfd60b146103c657610226565b8062fdd58e1461022b578063010ae75714610269578063047fc9aa1461028f57806306fdde0314610297575b600080fd5b6102576004803603604081101561024157600080fd5b506001600160a01b0381351690602001356106ac565b60408051918252519081900360200190f35b6102576004803603602081101561027f57600080fd5b50356001600160a01b03166107c7565b6102576107e5565b61029f6107eb565b6040805160208082528351818301528351919283929083019185019080838360005b838110156102d95781810151838201526020016102c1565b50505050905090810190601f1680156103065780820380516001836020036101000a031916815260200191505b509250505060405180910390f35b61031c610885565b604080516001600160a01b039092168252519081900360200190f35b6103646004803603604081101561034e57600080fd5b506001600160a01b0381351690602001356108a0565b60408051600f95860b81529390940b602084015282840191909152606082015290519081900360800190f35b6102576108f0565b6103c4600480360360408110156103ae57600080fd5b506001600160a01b038135169060200135610902565b005b6103c4610acc565b6103c4600480360360208110156103e457600080fd5b50356001600160a01b0316610d1c565b6103c46004803603602081101561040a57600080fd5b5035610d6a565b6102576004803603604081101561042757600080fd5b506001600160a01b038135169060200135610ead565b61029f61124b565b6103c46004803603602081101561045b57600080fd5b50356001600160a01b03166112b2565b6103c46004803603604081101561048157600080fd5b5080359060200135611300565b6103c46114bf565b6103c4600480360360208110156104ac57600080fd5b50356001600160a01b03166115db565b6104d9600480360360208110156104d257600080fd5b5035611698565b60408051600f9290920b8252519081900360200190f35b61031c6116b9565b6102576004803603602081101561050e57600080fd5b50356001600160a01b03166116d4565b6103c4611737565b61031c611793565b6102576117ae565b61029f6117b4565b6102576004803603602081101561055457600080fd5b503561181b565b6102576004803603602081101561057157600080fd5b50356001600160a01b0316611a03565b6102576004803603602081101561059757600080fd5b5035611a21565b6105a6611aae565b604080519115158252519081900360200190f35b6103c4611aca565b6105e8600480360360208110156105d857600080fd5b50356001600160a01b0316611aea565b6040518083600f0b81526020018281526020019250505060405180910390f35b6103646004803603602081101561061e57600080fd5b5035611b0a565b6102576004803603602081101561063b57600080fd5b50356001600160a01b0316611b4a565b6102576004803603604081101561066157600080fd5b506001600160a01b038135169060200135611b71565b6103c46004803603602081101561068d57600080fd5b5035611bb3565b61031c611db6565b61031c611dd1565b61031c611dec565b6000816106b7574291505b6001600160a01b03831660009081526c03c95a2f0b4856475fe00000066020526040902054806106eb5760009150506107c1565b6106f3612eb9565b6001600160a01b03851660009081526c03c95a2f0b4856475fe00000056020526040902082633b9aca00811061072557fe5b60408051608081018252600392909202929092018054600f81810b810b810b8452600160801b909104810b810b900b60208301526001810154928201839052600201546060820152915061079b9061079090610782908790611dfb565b6020840151600f0b90611e44565b8251600f0b90611f0f565b600f90810b810b8083526000910b12156107b457600081525b51600f0b91506107c19050565b92915050565b6c03c95a2f0b4856475fe00000066020526000908152604090205481565b60025481565b6c03c95a2f0b4856475fe0000009805460408051602060026001851615610100026000190190941693909304601f8101849004840282018401909252818152929183018282801561087d5780601f106108525761010080835404028352916020019161087d565b820191906000526020600020905b81548152906001019060200180831161086057829003601f168201915b505050505081565b6c03c95a2f0b4856475fe0000010546001600160a01b031681565b6c03c95a2f0b4856475fe000000560205281600052604060002081633b9aca0081106108c857fe5b6003020180546001820154600290920154600f82810b9550600160801b90920490910b925084565b6c03c95a2f0b4856475fe000000c5481565b60026000541415610948576040805162461bcd60e51b815260206004820152601f6024820152600080516020612f2e833981519152604482015290519081900360640190fd5b6002600055610955612ee7565b506001600160a01b03821660009081526003602090815260409182902082518084019093528054600f90810b810b900b83526001015490820152816109e1576040805162461bcd60e51b815260206004820152601860248201527f6465763a206e656564206e6f6e2d7a65726f2076616c75650000000000000000604482015290519081900360640190fd5b60008160000151600f0b13610a36576040805162461bcd60e51b8152602060048201526016602482015275139bc8195e1a5cdd1a5b99c81b1bd8dac8199bdd5b9960521b604482015290519081900360640190fd5b42816020015111610a785760405162461bcd60e51b8152600401808060200182810382526024815260200180612f736024913960400191505060405180910390fd5b6001600160a01b038316600090815260036020908152604080832081518083019092528054600f90810b810b900b82526001015491810191909152610ac291859185919081611f87565b5050600160005550565b60026000541415610b12576040805162461bcd60e51b815260206004820152601f6024820152600080516020612f2e833981519152604482015290519081900360640190fd5b6002600055610b1f612ee7565b503360009081526003602090815260409182902082518084019093528054600f90810b810b900b835260010154908201819052421015610b9f576040805162461bcd60e51b8152602060048201526016602482015275546865206c6f636b206469646e27742065787069726560501b604482015290519081900360640190fd5b8051600f0b610bac612ee7565b50600060208084018281528285523383526003909152604090912083518154600f9190910b6001600160801b03166001600160801b031990911617815590516001909101556002548290610c008184611dfb565b600255610c0e338386612192565b6001546040805163a9059cbb60e01b81523360048201526024810186905290516001600160a01b039092169163a9059cbb916044808201926020929091908290030181600087803b158015610c6257600080fd5b505af1158015610c76573d6000803e3d6000fd5b505050506040513d6020811015610c8c57600080fd5b5051610c9457fe5b60408051848152426020820152815133927ff279e6a1f5e320cca91135676d9cb6e44ca8a08c0b88342bcdb1144f6511b568928290030190a27f5e2aa66efd74cce82b21852e317e5490d9ecc9e6bb953ae24d90851258cc2f5c81610cf98186611dfb565b6040805192835260208301919091528051918290030190a1505060016000555050565b6c03c95a2f0b4856475fe0000008546001600160a01b03163314610d3c57fe5b6c03c95a2f0b4856475fe000000880546001600160a01b0319166001600160a01b0392909216919091179055565b60026000541415610db0576040805162461bcd60e51b815260206004820152601f6024820152600080516020612f2e833981519152604482015290519081900360640190fd5b6002600055610dbe3361290e565b610dc6612ee7565b503360009081526003602090815260409182902082518084019093528054600f90810b810b900b8352600101549082015281610dfe57fe5b60008160000151600f0b13610e53576040805162461bcd60e51b8152602060048201526016602482015275139bc8195e1a5cdd1a5b99c81b1bd8dac8199bdd5b9960521b604482015290519081900360640190fd5b42816020015111610e955760405162461bcd60e51b8152600401808060200182810382526024815260200180612f736024913960400191505060405180910390fd5b610ea433836000846002611f87565b50506001600055565b600043821115610eb957fe5b610ec1612efe565b60008082526001600160a01b03851681526c03c95a2f0b4856475fe000000660209081526040822054908301525b60808111610fa1576020820151825110610f0857610fa1565b6000610f3b6002610f356001610f2f876020015188600001516129fc90919063ffffffff16565b906129fc565b90612a56565b6001600160a01b03871660009081526c03c95a2f0b4856475fe000000560205260409020909150859082633b9aca008110610f7257fe5b600302016002015411610f8757808352610f98565b610f92816001611dfb565b60208401525b50600101610eef565b50610faa612eb9565b6001600160a01b03851660009081526c03c95a2f0b4856475fe0000005602052604090208251633b9aca008110610fdd57fe5b60408051608081018252600392909202929092018054600f81810b810b810b8452600160801b909104810b810b900b6020830152600181015482840152600201546060820152600454918401829052915060009061103c908690612a98565b9050611046612eb9565b600582680a18f07d736b90be55601d1b811061105e57fe5b6040805160808082018352600393909302939093018054600f81810b810b810b8652600160801b909104810b810b900b60208501526001810154848301526002015460608085019190915260009088018190529187019190915285015190915082101561116f576110cd612eb9565b60056110da8460016129fc565b680a18f07d736b90be55601d1b81106110ef57fe5b60408051608081018252600392909202929092018054600f81810b810b810b8452600160801b909104810b810b900b6020830152600181015492820192909252600290910154606080830182905284015191925061114c91611dfb565b60608601526040808301519082015161116491611dfb565b60808601525061119a565b606081015161117f904390611dfb565b60608501526040810151611194904290611dfb565b60808501525b60408101516060850151156111e3576111e06111d98660600151610f356111ce86606001518c611dfb90919063ffffffff16565b60808a015190612b19565b82906129fc565b90505b61121961120e611200866040015184611dfb90919063ffffffff16565b6020870151600f0b90611e44565b8551600f0b90611f0f565b600f90810b810b8086526000910b1261123d5750509051600f0b92506107c1915050565b6000955050505050506107c1565b6c03c95a2f0b4856475fe000000b805460408051602060026001851615610100026000190190941693909304601f8101849004840282018401909252818152929183018282801561087d5780601f106108525761010080835404028352916020019161087d565b6c03c95a2f0b4856475fe000000f546001600160a01b031633146112d257fe5b6c03c95a2f0b4856475fe000000d80546001600160a01b0319166001600160a01b0392909216919091179055565b60026000541415611346576040805162461bcd60e51b815260206004820152601f6024820152600080516020612f2e833981519152604482015290519081900360640190fd5b60026000556113543361290e565b600061136d62093a806113678482612a56565b90612b19565b9050611377612ee7565b503360009081526003602090815260409182902082518084019093528054600f90810b810b900b83526001015490820152836113af57fe5b8051600f0b15611406576040805162461bcd60e51b815260206004820152601960248201527f5769746864726177206f6c6420746f6b656e7320666972737400000000000000604482015290519081900360640190fd5b4282116114445760405162461bcd60e51b81526004018080602001828103825260268152602001806130216026913960400191505060405180910390fd5b61145242630784ce006129fc565b8211156114a6576040805162461bcd60e51b815260206004820152601e60248201527f566f74696e67206c6f636b2063616e2062652034207965617273206d61780000604482015290519081900360640190fd5b6114b4338584846001611f87565b505060016000555050565b6c03c95a2f0b4856475fe000000f546001600160a01b0316331461151c576040805162461bcd60e51b815260206004820152600f60248201526e6465763a2061646d696e206f6e6c7960881b604482015290519081900360640190fd5b6c03c95a2f0b4856475fe0000010546001600160a01b03168061157b576040805162461bcd60e51b815260206004820152601260248201527119195d8e8818591b5a5b881b9bdd081cd95d60721b604482015290519081900360640190fd5b6c03c95a2f0b4856475fe000000f80546001600160a01b0383166001600160a01b0319909116811790915560408051918252517febee2d5739011062cb4f14113f3b36bf0ffe3da5c0568f64189d1012a11891059181900360200190a150565b6c03c95a2f0b4856475fe000000f546001600160a01b03163314611638576040805162461bcd60e51b815260206004820152600f60248201526e6465763a2061646d696e206f6e6c7960881b604482015290519081900360640190fd5b6c03c95a2f0b4856475fe000001080546001600160a01b0383166001600160a01b0319909116811790915560408051918252517f2f56810a6bf40af059b96d3aea4db54081f378029a518390491093a7b67032e99181900360200190a150565b6c03c95a2f0b4856475fe000000760205260009081526040902054600f0b81565b6c03c95a2f0b4856475fe000000e546001600160a01b031681565b6001600160a01b03811660009081526c03c95a2f0b4856475fe000000660209081526040808320546c03c95a2f0b4856475fe0000005909252822081633b9aca00811061171d57fe5b6003020154600160801b9004600f90810b900b9392505050565b6c03c95a2f0b4856475fe000000f546001600160a01b0316331461175757fe5b6c03c95a2f0b4856475fe000000d546c03c95a2f0b4856475fe000000e80546001600160a01b0319166001600160a01b03909216919091179055565b6c03c95a2f0b4856475fe000000d546001600160a01b031681565b60045481565b6c03c95a2f0b4856475fe000000a805460408051602060026001851615610100026000190190941693909304601f8101849004840282018401909252818152929183018282801561087d5780601f106108525761010080835404028352916020019161087d565b60004382111561182757fe5b60045460006118368483612a98565b9050611840612eb9565b600582680a18f07d736b90be55601d1b811061185857fe5b60408051608081018252600392909202929092018054600f81810b810b810b8452600160801b909104810b810b900b602083015260018101549282019290925260029091015460608201529050600083831015611987576118b7612eb9565b60056118c48560016129fc565b680a18f07d736b90be55601d1b81106118d957fe5b60408051608081018252600392909202929092018054600f81810b810b810b8452600160801b909104810b810b900b60208301526001810154928201929092526002909101546060808301829052850151919250146119815761197e61195084606001518360600151611dfb90919063ffffffff16565b610f3561196e86604001518560400151611dfb90919063ffffffff16565b6060870151611367908c90611dfb565b91505b506119d9565b438260600151146119d9576119d66119ac836060015143611dfb90919063ffffffff16565b610f356119c6856040015142611dfb90919063ffffffff16565b6060860151611367908b90611dfb565b90505b6119f9826119f48385604001516129fc90919063ffffffff16565b612b72565b9695505050505050565b6001600160a01b031660009081526003602052604090206001015490565b600081611a2c574291505b600454611a37612eb9565b600582680a18f07d736b90be55601d1b8110611a4f57fe5b60408051608081018252600392909202929092018054600f81810b810b810b8452600160801b909104810b810b900b602083015260018101549282019290925260029091015460608201529050611aa68185612b72565b949350505050565b6c03c95a2f0b4856475fe000000854600160a01b900460ff1681565b611ad2612ee7565b611ada612ee7565b611ae660008383612192565b5050565b60036020526000908152604090208054600190910154600f9190910b9082565b600581680a18f07d736b90be55601d1b8110611b2257fe5b6003020180546001820154600290920154600f82810b9450600160801b90920490910b919084565b6001600160a01b031660009081526c03c95a2f0b4856475fe0000006602052604090205490565b6001600160a01b03821660009081526c03c95a2f0b4856475fe00000056020526040812082633b9aca008110611ba357fe5b6003020160010154905092915050565b60026000541415611bf9576040805162461bcd60e51b815260206004820152601f6024820152600080516020612f2e833981519152604482015290519081900360640190fd5b6002600055611c073361290e565b611c0f612ee7565b5033600090815260036020908152604080832081518083019092528054600f90810b810b900b8252600101549181019190915290611c5462093a806113678582612a56565b905042826020015111611c9d576040805162461bcd60e51b815260206004820152600c60248201526b131bd8dac8195e1c1a5c995960a21b604482015290519081900360640190fd5b60008260000151600f0b13611ced576040805162461bcd60e51b8152602060048201526011602482015270139bdd1a1a5b99c81a5cc81b1bd8dad959607a1b604482015290519081900360640190fd5b81602001518111611d45576040805162461bcd60e51b815260206004820152601f60248201527f43616e206f6e6c7920696e637265617365206c6f636b206475726174696f6e00604482015290519081900360640190fd5b611d5342630784ce006129fc565b811115611da7576040805162461bcd60e51b815260206004820152601e60248201527f566f74696e67206c6f636b2063616e2062652034207965617273206d61780000604482015290519081900360640190fd5b610ac233600083856003611f87565b6c03c95a2f0b4856475fe0000008546001600160a01b031681565b6c03c95a2f0b4856475fe000000f546001600160a01b031681565b6001546001600160a01b031681565b6000611e3d83836040518060400160405280601e81526020017f536166654d6174683a207375627472616374696f6e206f766572666c6f770000815250612c75565b9392505050565b600082600f0b60001415611e5a575060006107c1565b82600f0b600019148015611e795750600f82900b60016001607f1b0319145b15611eb55760405162461bcd60e51b8152600401808060200182810382526027815260200180612ffa6027913960400191505060405180910390fd5b6000828402905082600f0b84600f0b82600f0b81611ecf57fe5b05600f0b14611e3d5760405162461bcd60e51b8152600401808060200182810382526027815260200180612ffa6027913960400191505060405180910390fd5b6000818303600f83900b8213801590611f2e575083600f0b81600f0b13155b80611f4c5750600083600f0b128015611f4c575083600f0b81600f0b135b611e3d5760405162461bcd60e51b81526004018080602001828103825260248152602001806130476024913960400191505060405180910390fd5b611f8f612ee7565b50604080518082019091528251600f0b815260208084015190820152611fb3612ee7565b50604080518082019091528351600f0b815260208085015190820152600254611fdc81886129fc565b6002558251611fee90600f0b88612d0c565b600f90810b900b8352851561200557602083018690525b6001600160a01b038816600090815260036020908152604090912084518154600f9190910b6001600160801b03166001600160801b031990911617815590840151600190910155612057888385612192565b86156120eb57600154604080516323b872dd60e01b81526001600160a01b038b81166004830152306024830152604482018b9052915191909216916323b872dd9160648083019260209291908290030181600087803b1580156120b957600080fd5b505af11580156120cd573d6000803e3d6000fd5b505050506040513d60208110156120e357600080fd5b50516120eb57fe5b8260200151886001600160a01b03167f4566dfc29f6f11d13a418c26a02bef7c28bae749d4de47e4e6a7cddea6730d598987426040518084815260200183600f0b8152602001828152602001935050505060405180910390a37f5e2aa66efd74cce82b21852e317e5490d9ecc9e6bb953ae24d90851258cc2f5c81612170818a6129fc565b6040805192835260208301919091528051918290030190a15050505050505050565b61219a612eb9565b6121a2612eb9565b60045460009081906001600160a01b038816156122f1574287602001511180156121d3575060008760000151600f0b135b156122165786516121eb90600f0b630784ce00612d84565b600f90810b900b60208087019190915287015161220c906112009042611dfb565b600f90810b900b85525b428660200151118015612230575060008660000151600f0b135b1561228157855161224890600f0b630784ce00612d84565b600f90810b900b602080860191909152860151612277906122699042611dfb565b6020860151600f0b90611e44565b600f90810b900b84525b60208088015160009081526c03c95a2f0b4856475fe00000078252604090205490870151600f9190910b9350156122f1578660200151866020015114156122ca578291506122f1565b60208087015160009081526c03c95a2f0b4856475fe00000079091526040902054600f0b91505b6122f9612eb9565b5060408051608081018252600080825260208201524291810191909152436060820152811561238857600582680a18f07d736b90be55601d1b811061233a57fe5b60408051608081018252600392909202929092018054600f81810b810b810b8452600160801b909104810b810b900b6020830152600181015492820192909252600290910154606082015290505b6040810151612395612eb9565b829050600083604001514211156123ec576123e96123c0856040015142611dfb90919063ffffffff16565b610f356123da876060015143611dfb90919063ffffffff16565b670de0b6b3a764000090612b19565b90505b60006123ff62093a806113678682612a56565b905060005b60ff8110156125b15761241a8262093a806129fc565b915060004283111561242e5742925061244e565b5060008281526c03c95a2f0b4856475fe00000076020526040902054600f0b5b61247761246c61245e8589611dfb565b60208a0151600f0b90611e44565b8851600f0b90611f0f565b600f90810b810b88526020880151612490910b82612d0c565b600f90810b810b602089015287516000910b12156124ad57600087525b60008760200151600f0b12156124c557600060208801525b8295508287604001818152505061250d612502670de0b6b3a7640000610f356124fb896040015188611dfb90919063ffffffff16565b8890612b19565b6060870151906129fc565b606088015261251d8860016129fc565b97504283141561253357504360608701526125b1565b86600589680a18f07d736b90be55601d1b811061254c57fe5b82516003919091029190910180546020840151600f90810b6001600160801b03908116600160801b029490910b81166001600160801b031990921691909117169190911781556040820151600182015560609091015160029091015550600101612404565b5060048690556001600160a01b038d1615612656576125f56125e78b602001518b60200151600f0b611f0f90919063ffffffff16565b6020870151600f0b90612d0c565b600f90810b810b60208701528a518a51612621926126169291900b90611f0f565b8651600f0b90612d0c565b600f90810b810b865260208601516000910b121561264157600060208601525b60008560000151600f0b121561265657600085525b84600587680a18f07d736b90be55601d1b811061266f57fe5b82516003919091029190910180546020840151600f90810b6001600160801b03908116600160801b029490910b81166001600160801b03199092169190911716919091178155604082015160018201556060909101516002909101558c6001600160a01b038116156128fe57428d60200151111561276e576127018b602001518a600f0b612d0c90919063ffffffff16565b98508c602001518c6020015114156127305761272d8a602001518a600f0b611f0f90919063ffffffff16565b98505b60208d81015160009081526c03c95a2f0b4856475fe00000079091526040902080546001600160801b0319166001600160801b03600f8c900b161790555b428c6020015111156127e4578c602001518c6020015111156127e4576127a48a6020015189600f0b611f0f90919063ffffffff16565b60208d81015160009081526c03c95a2f0b4856475fe00000079091526040902080546001600160801b0319166001600160801b03600f84900b1617905597505b6001600160a01b03811660009081526c03c95a2f0b4856475fe000000660205260408120546128149060016129fc565b9050806c03c95a2f0b4856475fe00000066000846001600160a01b03166001600160a01b0316815260200190815260200160002081905550428b6040018181525050438b60600181815250508a6c03c95a2f0b4856475fe00000056000846001600160a01b03166001600160a01b0316815260200190815260200160002082633b9aca0081106128a057fe5b82516003919091029190910180546020840151600f90810b6001600160801b03908116600160801b029490910b81166001600160801b0319909216919091171691909117815560408201516001820155606090910151600290910155505b5050505050505050505050505050565b6001600160a01b03811632146129f9576c03c95a2f0b4856475fe000000e546001600160a01b031680156129c257806001600160a01b031663c23697a8836040518263ffffffff1660e01b815260040180826001600160a01b03168152602001915050602060405180830381600087803b15801561298b57600080fd5b505af115801561299f573d6000803e3d6000fd5b505050506040513d60208110156129b557600080fd5b5051156129c257506129f9565b60405162461bcd60e51b8152600401808060200182810382526025815260200180612f4e6025913960400191505060405180910390fd5b50565b600082820183811015611e3d576040805162461bcd60e51b815260206004820152601b60248201527f536166654d6174683a206164646974696f6e206f766572666c6f770000000000604482015290519081900360640190fd5b6000611e3d83836040518060400160405280601a81526020017f536166654d6174683a206469766973696f6e206279207a65726f000000000000815250612e54565b60008082815b60808111612b0f57818310612ab257612b0f565b6000612ac86002610f356001610f2f88886129fc565b905086600582680a18f07d736b90be55601d1b8110612ae357fe5b600302016002015411612af857809350612b06565b612b03816001611dfb565b92505b50600101612a9e565b5090949350505050565b600082612b28575060006107c1565b82820282848281612b3557fe5b0414611e3d5760405162461bcd60e51b8152600401808060200182810382526021815260200180612fd96021913960400191505060405180910390fd5b6000612b7c612eb9565b8390506000612ba262093a8061136762093a808560400151612a5690919063ffffffff16565b905060005b60ff811015612c5357612bbd8262093a806129fc565b9150600085831115612bd157859250612bf1565b5060008281526c03c95a2f0b4856475fe00000076020526040902054600f0b5b612c0e61120e611200866040015186611dfb90919063ffffffff16565b600f90810b900b845282861415612c255750612c53565b6020840151612c3790600f0b82612d0c565b600f90810b900b60208501525060408301829052600101612ba7565b5060008260000151600f0b1215612c6957600082525b5051600f0b9392505050565b60008184841115612d045760405162461bcd60e51b81526004018080602001828103825283818151815260200191508051906020019080838360005b83811015612cc9578181015183820152602001612cb1565b50505050905090810190601f168015612cf65780820380516001836020036101000a031916815260200191505b509250505060405180910390fd5b505050900390565b6000828201600f83900b8213801590612d2b575083600f0b81600f0b12155b80612d495750600083600f0b128015612d49575083600f0b81600f0b125b611e3d5760405162461bcd60e51b8152600401808060200182810382526021815260200180612f976021913960400191505060405180910390fd5b600081600f0b60001415612ddf576040805162461bcd60e51b815260206004820181905260248201527f5369676e6564536166654d6174683a206469766973696f6e206279207a65726f604482015290519081900360640190fd5b81600f0b600019148015612dfe5750600f83900b60016001607f1b0319145b15612e3a5760405162461bcd60e51b8152600401808060200182810382526021815260200180612fb86021913960400191505060405180910390fd5b600082600f0b84600f0b81612e4b57fe5b05949350505050565b60008183612ea35760405162461bcd60e51b8152602060048201818152835160248401528351909283926044909101919085019080838360008315612cc9578181015183820152602001612cb1565b506000838581612eaf57fe5b0495945050505050565b60405180608001604052806000600f0b81526020016000600f0b815260200160008152602001600081525090565b604080518082019091526000808252602082015290565b6040518060a001604052806000815260200160008152602001600081526020016000815260200160008152509056fe5265656e7472616e637947756172643a207265656e7472616e742063616c6c00536d61727420636f6e7472616374206465706f7369746f7273206e6f7420616c6c6f77656443616e6e6f742061646420746f2065787069726564206c6f636b2e2057697468647261775369676e6564536166654d6174683a206164646974696f6e206f766572666c6f775369676e6564536166654d6174683a206469766973696f6e206f766572666c6f77536166654d6174683a206d756c7469706c69636174696f6e206f766572666c6f775369676e6564536166654d6174683a206d756c7469706c69636174696f6e206f766572666c6f7743616e206f6e6c79206c6f636b20756e74696c2074696d6520696e20746865206675747572655369676e6564536166654d6174683a207375627472616374696f6e206f766572666c6f77a2646970667358221220bd0522abad0ba228a426c075869462ff0f4a923d0d57e4a0776e08f857a3d61f64736f6c634300060c0033",
  "linkReferences": {},
  "deployedLinkReferences": {}
}