{
  "_format": "hh-sol-artifact-1",
  "contractName": "ConverterV1",
  "sourceName": "contracts/ConverterV1.sol",
  "abi": [
    {
      "inputs": [
        {
          "internalType": "address",
          "name": "_insure",
          "type": "address"
        }
      ],
      "stateMutability": "nonpayable",
      "type": "constructor"
    },
    {
      "inputs": [],
      "name": "DAI",
      "outputs": [
        {
          "internalType": "contract IERC20",
          "name": "",
          "type": "address"
        }
      ],
      "stateMutability": "view",
      "type": "function"
    },
    {
      "inputs": [],
      "name": "UniswapV2",
      "outputs": [
        {
          "internalType": "contract IUniswapV2Router02",
          "name": "",
          "type": "address"
        }
      ],
      "stateMutability": "view",
      "type": "function"
    },
    {
      "inputs": [],
      "name": "WETH",
      "outputs": [
        {
          "internalType": "contract IERC20",
          "name": "",
          "type": "address"
        }
      ],
      "stateMutability": "view",
      "type": "function"
    },
    {
      "inputs": [
        {
          "internalType": "uint256",
          "name": "_amountOut",
          "type": "uint256"
        }
      ],
      "name": "getAmountsIn",
      "outputs": [
        {
          "internalType": "uint256",
          "name": "",
          "type": "uint256"
        }
      ],
      "stateMutability": "view",
      "type": "function"
    },
    {
      "inputs": [],
      "name": "insure_token",
      "outputs": [
        {
          "internalType": "contract InsureToken",
          "name": "",
          "type": "address"
        }
      ],
      "stateMutability": "view",
      "type": "function"
    },
    {
      "inputs": [
        {
          "internalType": "uint256",
          "name": "_amountIn",
          "type": "uint256"
        },
        {
          "internalType": "address",
          "name": "_to",
          "type": "address"
        }
      ],
      "name": "swap_exact_to_insure",
      "outputs": [
        {
          "internalType": "bool",
          "name": "",
          "type": "bool"
        }
      ],
      "stateMutability": "nonpayable",
      "type": "function"
    },
    {
      "inputs": [
        {
          "internalType": "uint256",
          "name": "_amountInMax",
          "type": "uint256"
        },
        {
          "internalType": "uint256",
          "name": "_amountOut",
          "type": "uint256"
        },
        {
          "internalType": "address",
          "name": "_to",
          "type": "address"
        }
      ],
      "name": "swap_insure_to_exact",
      "outputs": [],
      "stateMutability": "nonpayable",
      "type": "function"
    }
  ],
  "bytecode": "0x6080604052600080546001600160a01b0319908116737a250d5630b4cf539739df2c5dacb4c659f2488d1790915560028054821673c02aaa39b223fe8d0a0e5c4f27ead9083c756cc217905560038054909116736b175474e89094c44da98b954eedeac495271d0f17905534801561007657600080fd5b50604051610cb0380380610cb08339818101604052602081101561009957600080fd5b5051600180546001600160a01b0319166001600160a01b03909216919091179055610be7806100c96000396000f3fe608060405234801561001057600080fd5b506004361061007d5760003560e01c80639e62a8b21161005b5780639e62a8b214610115578063ad5c46481461011d578063c73824db14610125578063e0bab4c4146101595761007d565b80632270113414610082578063255d591e146100a65780634d265410146100d5575b600080fd5b61008a610161565b604080516001600160a01b039092168252519081900360200190f35b6100c3600480360360208110156100bc57600080fd5b5035610170565b60408051918252519081900360200190f35b610101600480360360408110156100eb57600080fd5b50803590602001356001600160a01b0316610394565b604080519115158252519081900360200190f35b61008a610760565b61008a61076f565b6101576004803603606081101561013b57600080fd5b50803590602081013590604001356001600160a01b031661077e565b005b61008a610b41565b6000546001600160a01b031681565b6040805160038082526080820190925260009160609190602082018380368337505060015482519293506001600160a01b0316918391506000906101b057fe5b6001600160a01b0392831660209182029290920101526002548251911690829060019081106101db57fe5b6001600160a01b03928316602091820292909201015260035482519116908290600290811061020657fe5b6001600160a01b0392831660209182029290920181019190915260008054604080516307c0329d60e21b815260048101898152602482019283528751604483015287516060979490941695631f00ca74958b958a95939460640192868101929102908190849084905b8381101561028757818101518382015260200161026f565b50505050905001935050505060006040518083038186803b1580156102ab57600080fd5b505afa1580156102bf573d6000803e3d6000fd5b505050506040513d6000823e601f3d908101601f1916820160405260208110156102e857600080fd5b810190808051604051939291908464010000000082111561030857600080fd5b90830190602082018581111561031d57600080fd5b825186602082028301116401000000008211171561033a57600080fd5b82525081516020918201928201910280838360005b8381101561036757818101518382015260200161034f565b5050505090500160405250505090508060008151811061038357fe5b602002602001015192505050919050565b600354604080516323b872dd60e01b81523360048201523060248201526044810185905290516000926001600160a01b0316916323b872dd91606480830192602092919082900301818787803b1580156103ed57600080fd5b505af1158015610401573d6000803e3d6000fd5b505050506040513d602081101561041757600080fd5b5051610461576040805162461bcd60e51b81526020600482015260146024820152733a3930b739b332b9233937b6903330b4b632b21760611b604482015290519081900360640190fd5b600354600080546040805163095ea7b360e01b81526001600160a01b039283166004820152602481018890529051919093169263095ea7b39260448083019360209390929083900390910190829087803b1580156104be57600080fd5b505af11580156104d2573d6000803e3d6000fd5b505050506040513d60208110156104e857600080fd5b505161052d576040805162461bcd60e51b815260206004820152600f60248201526e30b8383937bb32903330b4b632b21760891b604482015290519081900360640190fd5b60408051600380825260808201909252606091602082018380368337505060035482519293506001600160a01b03169183915060009061056957fe5b6001600160a01b03928316602091820292909201015260025482519116908290600190811061059457fe5b6001600160a01b0392831660209182029290920101526001548251911690829060029081106105bf57fe5b6001600160a01b03928316602091820292909201015260008054909116906338ed173990869084876105f2426019610b50565b6040518663ffffffff1660e01b81526004018086815260200185815260200180602001846001600160a01b03168152602001838152602001828103825285818151815260200191508051906020019060200280838360005b8381101561066257818101518382015260200161064a565b505050509050019650505050505050600060405180830381600087803b15801561068b57600080fd5b505af115801561069f573d6000803e3d6000fd5b505050506040513d6000823e601f3d908101601f1916820160405260208110156106c857600080fd5b81019080805160405193929190846401000000008211156106e857600080fd5b9083019060208201858111156106fd57600080fd5b825186602082028301116401000000008211171561071a57600080fd5b82525081516020918201928201910280838360005b8381101561074757818101518382015260200161072f565b5050505090500160405250505050600191505092915050565b6001546001600160a01b031681565b6002546001600160a01b031681565b600154604080516323b872dd60e01b81523360048201523060248201526044810186905290516001600160a01b03909216916323b872dd916064808201926020929091908290030181600087803b1580156107d857600080fd5b505af11580156107ec573d6000803e3d6000fd5b505050506040513d602081101561080257600080fd5b505161084c576040805162461bcd60e51b81526020600482015260146024820152733a3930b739b332b9233937b6903330b4b632b21760611b604482015290519081900360640190fd5b600154600080546040805163095ea7b360e01b81526001600160a01b039283166004820152602481018890529051919093169263095ea7b39260448083019360209390929083900390910190829087803b1580156108a957600080fd5b505af11580156108bd573d6000803e3d6000fd5b505050506040513d60208110156108d357600080fd5b5051610918576040805162461bcd60e51b815260206004820152600f60248201526e30b8383937bb32903330b4b632b21760891b604482015290519081900360640190fd5b60408051600380825260808201909252606091602082018380368337505060015482519293506001600160a01b03169183915060009061095457fe5b6001600160a01b03928316602091820292909201015260025482519116908290600190811061097f57fe5b6001600160a01b0392831660209182029290920101526003548251911690829060029081106109aa57fe5b6001600160a01b03928316602091820292909201015260005416638803dbee848684866109d8426019610b50565b6040518663ffffffff1660e01b81526004018086815260200185815260200180602001846001600160a01b03168152602001838152602001828103825285818151815260200191508051906020019060200280838360005b83811015610a48578181015183820152602001610a30565b505050509050019650505050505050600060405180830381600087803b158015610a7157600080fd5b505af1158015610a85573d6000803e3d6000fd5b505050506040513d6000823e601f3d908101601f191682016040526020811015610aae57600080fd5b8101908080516040519392919084640100000000821115610ace57600080fd5b908301906020820185811115610ae357600080fd5b8251866020820283011164010000000082111715610b0057600080fd5b82525081516020918201928201910280838360005b83811015610b2d578181015183820152602001610b15565b505050509050016040525050505050505050565b6003546001600160a01b031681565b600082820183811015610baa576040805162461bcd60e51b815260206004820152601b60248201527f536166654d6174683a206164646974696f6e206f766572666c6f770000000000604482015290519081900360640190fd5b939250505056fea26469706673582212204ee0d2725fb4fcbd1b6edb41ebd1ecf35b29d6bec959be73eac7dd474ab89a3864736f6c634300060c0033",
  "linkReferences": {},
  "deployedLinkReferences": {}
}