{
  "_format": "hh-sol-artifact-1",
  "contractName": "InsureToken",
  "sourceName": "contracts/InsureToken.sol",
  "abi": [
    {
      "inputs": [
        {
          "internalType": "string",
          "name": "_name",
          "type": "string"
        },
        {
          "internalType": "string",
          "name": "_symbol",
          "type": "string"
        },
        {
          "internalType": "uint256",
          "name": "_decimal",
          "type": "uint256"
        }
      ],
      "stateMutability": "nonpayable",
      "type": "constructor"
    },
    {
      "anonymous": false,
      "inputs": [
        {
          "indexed": true,
          "internalType": "address",
          "name": "owner",
          "type": "address"
        },
        {
          "indexed": true,
          "internalType": "address",
          "name": "spender",
          "type": "address"
        },
        {
          "indexed": false,
          "internalType": "uint256",
          "name": "value",
          "type": "uint256"
        }
      ],
      "name": "Approval",
      "type": "event"
    },
    {
      "anonymous": false,
      "inputs": [
        {
          "indexed": false,
          "internalType": "address",
          "name": "admin",
          "type": "address"
        }
      ],
      "name": "SetAdmin",
      "type": "event"
    },
    {
      "anonymous": false,
      "inputs": [
        {
          "indexed": false,
          "internalType": "address",
          "name": "minter",
          "type": "address"
        }
      ],
      "name": "SetMinter",
      "type": "event"
    },
    {
      "anonymous": false,
      "inputs": [
        {
          "indexed": true,
          "internalType": "address",
          "name": "from",
          "type": "address"
        },
        {
          "indexed": true,
          "internalType": "address",
          "name": "to",
          "type": "address"
        },
        {
          "indexed": false,
          "internalType": "uint256",
          "name": "value",
          "type": "uint256"
        }
      ],
      "name": "Transfer",
      "type": "event"
    },
    {
      "anonymous": false,
      "inputs": [
        {
          "indexed": false,
          "internalType": "uint256",
          "name": "time",
          "type": "uint256"
        },
        {
          "indexed": false,
          "internalType": "uint256",
          "name": "rate",
          "type": "uint256"
        },
        {
          "indexed": false,
          "internalType": "uint256",
          "name": "supply",
          "type": "uint256"
        },
        {
          "indexed": false,
          "internalType": "int128",
          "name": "miningepoch",
          "type": "int128"
        }
      ],
      "name": "UpdateMiningParameters",
      "type": "event"
    },
    {
      "inputs": [],
      "name": "_decimals",
      "outputs": [
        {
          "internalType": "uint256",
          "name": "",
          "type": "uint256"
        }
      ],
      "stateMutability": "view",
      "type": "function"
    },
    {
      "inputs": [],
      "name": "admin",
      "outputs": [
        {
          "internalType": "address",
          "name": "",
          "type": "address"
        }
      ],
      "stateMutability": "view",
      "type": "function"
    },
    {
      "inputs": [
        {
          "internalType": "address",
          "name": "_owner",
          "type": "address"
        },
        {
          "internalType": "address",
          "name": "_spender",
          "type": "address"
        }
      ],
      "name": "allowance",
      "outputs": [
        {
          "internalType": "uint256",
          "name": "",
          "type": "uint256"
        }
      ],
      "stateMutability": "view",
      "type": "function"
    },
    {
      "inputs": [
        {
          "internalType": "address",
          "name": "_spender",
          "type": "address"
        },
        {
          "internalType": "uint256",
          "name": "_value",
          "type": "uint256"
        }
      ],
      "name": "approve",
      "outputs": [
        {
          "internalType": "bool",
          "name": "",
          "type": "bool"
        }
      ],
      "stateMutability": "nonpayable",
      "type": "function"
    },
    {
      "inputs": [],
      "name": "available_supply",
      "outputs": [
        {
          "internalType": "uint256",
          "name": "",
          "type": "uint256"
        }
      ],
      "stateMutability": "view",
      "type": "function"
    },
    {
      "inputs": [
        {
          "internalType": "address",
          "name": "",
          "type": "address"
        }
      ],
      "name": "balanceOf",
      "outputs": [
        {
          "internalType": "uint256",
          "name": "",
          "type": "uint256"
        }
      ],
      "stateMutability": "view",
      "type": "function"
    },
    {
      "inputs": [
        {
          "internalType": "uint256",
          "name": "_value",
          "type": "uint256"
        }
      ],
      "name": "burn",
      "outputs": [
        {
          "internalType": "bool",
          "name": "",
          "type": "bool"
        }
      ],
      "stateMutability": "nonpayable",
      "type": "function"
    },
    {
      "inputs": [],
      "name": "decimals",
      "outputs": [
        {
          "internalType": "uint256",
          "name": "",
          "type": "uint256"
        }
      ],
      "stateMutability": "view",
      "type": "function"
    },
    {
      "inputs": [
        {
          "internalType": "uint256",
          "name": "_amount",
          "type": "uint256"
        },
        {
          "internalType": "address",
          "name": "_to",
          "type": "address"
        }
      ],
      "name": "emergency_mint",
      "outputs": [],
      "stateMutability": "nonpayable",
      "type": "function"
    },
    {
      "inputs": [],
      "name": "emergency_minted",
      "outputs": [
        {
          "internalType": "uint256",
          "name": "",
          "type": "uint256"
        }
      ],
      "stateMutability": "view",
      "type": "function"
    },
    {
      "inputs": [],
      "name": "future_epoch_time_write",
      "outputs": [
        {
          "internalType": "uint256",
          "name": "",
          "type": "uint256"
        }
      ],
      "stateMutability": "nonpayable",
      "type": "function"
    },
    {
      "inputs": [],
      "name": "get_rate",
      "outputs": [
        {
          "internalType": "uint256",
          "name": "",
          "type": "uint256"
        }
      ],
      "stateMutability": "view",
      "type": "function"
    },
    {
      "inputs": [],
      "name": "mining_epoch",
      "outputs": [
        {
          "internalType": "int128",
          "name": "",
          "type": "int128"
        }
      ],
      "stateMutability": "view",
      "type": "function"
    },
    {
      "inputs": [
        {
          "internalType": "address",
          "name": "_to",
          "type": "address"
        },
        {
          "internalType": "uint256",
          "name": "_value",
          "type": "uint256"
        }
      ],
      "name": "mint",
      "outputs": [
        {
          "internalType": "bool",
          "name": "",
          "type": "bool"
        }
      ],
      "stateMutability": "nonpayable",
      "type": "function"
    },
    {
      "inputs": [
        {
          "internalType": "uint256",
          "name": "start",
          "type": "uint256"
        },
        {
          "internalType": "uint256",
          "name": "end",
          "type": "uint256"
        }
      ],
      "name": "mintable_in_timeframe",
      "outputs": [
        {
          "internalType": "uint256",
          "name": "",
          "type": "uint256"
        }
      ],
      "stateMutability": "view",
      "type": "function"
    },
    {
      "inputs": [],
      "name": "minter",
      "outputs": [
        {
          "internalType": "address",
          "name": "",
          "type": "address"
        }
      ],
      "stateMutability": "view",
      "type": "function"
    },
    {
      "inputs": [],
      "name": "name",
      "outputs": [
        {
          "internalType": "string",
          "name": "",
          "type": "string"
        }
      ],
      "stateMutability": "view",
      "type": "function"
    },
    {
      "inputs": [],
      "name": "rate",
      "outputs": [
        {
          "internalType": "uint256",
          "name": "",
          "type": "uint256"
        }
      ],
      "stateMutability": "view",
      "type": "function"
    },
    {
      "inputs": [
        {
          "internalType": "address",
          "name": "_admin",
          "type": "address"
        }
      ],
      "name": "set_admin",
      "outputs": [],
      "stateMutability": "nonpayable",
      "type": "function"
    },
    {
      "inputs": [
        {
          "internalType": "address",
          "name": "_minter",
          "type": "address"
        }
      ],
      "name": "set_minter",
      "outputs": [],
      "stateMutability": "nonpayable",
      "type": "function"
    },
    {
      "inputs": [
        {
          "internalType": "string",
          "name": "_name",
          "type": "string"
        },
        {
          "internalType": "string",
          "name": "_symbol",
          "type": "string"
        }
      ],
      "name": "set_name",
      "outputs": [],
      "stateMutability": "nonpayable",
      "type": "function"
    },
    {
      "inputs": [],
      "name": "start_epoch_supply",
      "outputs": [
        {
          "internalType": "uint256",
          "name": "",
          "type": "uint256"
        }
      ],
      "stateMutability": "view",
      "type": "function"
    },
    {
      "inputs": [],
      "name": "start_epoch_time",
      "outputs": [
        {
          "internalType": "uint256",
          "name": "",
          "type": "uint256"
        }
      ],
      "stateMutability": "view",
      "type": "function"
    },
    {
      "inputs": [],
      "name": "start_epoch_time_write",
      "outputs": [
        {
          "internalType": "uint256",
          "name": "",
          "type": "uint256"
        }
      ],
      "stateMutability": "nonpayable",
      "type": "function"
    },
    {
      "inputs": [],
      "name": "symbol",
      "outputs": [
        {
          "internalType": "string",
          "name": "",
          "type": "string"
        }
      ],
      "stateMutability": "view",
      "type": "function"
    },
    {
      "inputs": [],
      "name": "totalSupply",
      "outputs": [
        {
          "internalType": "uint256",
          "name": "",
          "type": "uint256"
        }
      ],
      "stateMutability": "view",
      "type": "function"
    },
    {
      "inputs": [],
      "name": "total_supply",
      "outputs": [
        {
          "internalType": "uint256",
          "name": "",
          "type": "uint256"
        }
      ],
      "stateMutability": "view",
      "type": "function"
    },
    {
      "inputs": [
        {
          "internalType": "address",
          "name": "_to",
          "type": "address"
        },
        {
          "internalType": "uint256",
          "name": "_value",
          "type": "uint256"
        }
      ],
      "name": "transfer",
      "outputs": [
        {
          "internalType": "bool",
          "name": "",
          "type": "bool"
        }
      ],
      "stateMutability": "nonpayable",
      "type": "function"
    },
    {
      "inputs": [
        {
          "internalType": "address",
          "name": "_from",
          "type": "address"
        },
        {
          "internalType": "address",
          "name": "_to",
          "type": "address"
        },
        {
          "internalType": "uint256",
          "name": "_value",
          "type": "uint256"
        }
      ],
      "name": "transferFrom",
      "outputs": [
        {
          "internalType": "bool",
          "name": "",
          "type": "bool"
        }
      ],
      "stateMutability": "nonpayable",
      "type": "function"
    },
    {
      "inputs": [],
      "name": "update_mining_parameters",
      "outputs": [],
      "stateMutability": "nonpayable",
      "type": "function"
    }
  ],
  "bytecode": "0x60806040523480156200001157600080fd5b5060405162001cf138038062001cf1833981810160405260608110156200003757600080fd5b81019080805160405193929190846401000000008211156200005857600080fd5b9083019060208201858111156200006e57600080fd5b82516401000000008111828201881017156200008957600080fd5b82525081516020918201929091019080838360005b83811015620000b85781810151838201526020016200009e565b50505050905090810190601f168015620000e65780820380516001836020036101000a031916815260200191505b50604052602001805160405193929190846401000000008211156200010a57600080fd5b9083019060208201858111156200012057600080fd5b82516401000000008111828201881017156200013b57600080fd5b82525081516020918201929091019080838360005b838110156200016a57818101518382015260200162000150565b50505050905090810190601f168015620001985780820380516001836020036101000a031916815260200191505b506040526020908101518551909350634daaaa1f600a85900a029250620001c69160009190870190620003ef565b508251620001dc906001906020860190620003ef565b5060028290553360008181526003602090815260408083208590556005859055600780546001600160a01b03191685179055805185815290517fddf252ad1be2c89b69c2b068fc378daa952ba7f163c4a11628f55a4df523b3ef929181900390910190a36200027a6301e13380620002666201518042620002a860201b6200116d1790919060201c565b6200030a60201b620011ce1790919060201c565b600955600880546001600160801b0319166001600160801b031790556000600a55600b55506200048b915050565b60008282018381101562000303576040805162461bcd60e51b815260206004820152601b60248201527f536166654d6174683a206164646974696f6e206f766572666c6f770000000000604482015290519081900360640190fd5b9392505050565b60006200030383836040518060400160405280601e81526020017f536166654d6174683a207375627472616374696f6e206f766572666c6f7700008152506200035460201b60201c565b60008184841115620003e75760405162461bcd60e51b81526004018080602001828103825283818151815260200191508051906020019080838360005b83811015620003ab57818101518382015260200162000391565b50505050905090810190601f168015620003d95780820380516001836020036101000a031916815260200191505b509250505060405180910390fd5b505050900390565b828054600181600116156101000203166002900490600052602060002090601f016020900481019282601f106200043257805160ff191683800117855562000462565b8280016001018555821562000462579182015b828111156200046257825182559160200191906001019062000445565b506200047092915062000474565b5090565b5b8082111562000470576000815560010162000475565b611856806200049b6000396000f3fe608060405234801561001057600080fd5b50600436106101da5760003560e01c806370a0823111610104578063d54d1c98116100a2578063e9333fab11610071578063e9333fab146105dd578063f851a44014610603578063f9a40bf61461060b578063f9e988eb1461062a576101da565b8063d54d1c9814610433578063d725a9ca1461045f578063dd62ed3e14610482578063e1430e06146104b0576101da565b8063a9059cbb116100de578063a9059cbb146103ef578063adc4cf431461041b578063b26b238e14610423578063d43b40fa1461042b576101da565b806370a08231146103b95780637375be26146103df57806395d89b41146103e7576101da565b80632c4e722e1161017c57806340c10f191161014b57806340c10f191461036057806342966c681461038c578063533178e5146103a95780636e1d35b2146103b1576101da565b80632c4e722e14610340578063313ce5671461034857806332424aa3146103505780633940e9ee14610358576101da565b80631652e9fc116101b85780631652e9fc146102c057806318160ddd146102e857806323b872dd1461030257806324f92a2514610338576101da565b806306fdde03146101df578063075461721461025c578063095ea7b314610280575b600080fd5b6101e7610632565b6040805160208082528351818301528351919283929083019185019080838360005b83811015610221578181015183820152602001610209565b50505050905090810190601f16801561024e5780820380516001836020036101000a031916815260200191505b509250505060405180910390f35b6102646106c0565b604080516001600160a01b039092168252519081900360200190f35b6102ac6004803603604081101561029657600080fd5b506001600160a01b0381351690602001356106cf565b604080519115158252519081900360200190f35b6102e6600480360360208110156102d657600080fd5b50356001600160a01b031661076d565b005b6102f061085a565b60408051918252519081900360200190f35b6102ac6004803603606081101561031857600080fd5b506001600160a01b03813581169160208101359091169060400135610861565b6102f06109d6565b6102f06109e5565b6102f06109eb565b6102f06109f1565b6102f06109f7565b6102ac6004803603604081101561037657600080fd5b506001600160a01b0381351690602001356109fd565b6102ac600480360360208110156103a257600080fd5b5035610ab4565b6102f0610b80565b6102f0610b86565b6102f0600480360360208110156103cf57600080fd5b50356001600160a01b0316610b8c565b6102f0610b9e565b6101e7610ba4565b6102ac6004803603604081101561040557600080fd5b506001600160a01b038135169060200135610bfe565b6102f0610cd7565b6102f0610d0e565b6102e6610d57565b6102e66004803603604081101561044957600080fd5b50803590602001356001600160a01b0316610db7565b6102f06004803603604081101561047557600080fd5b5080359060200135610e27565b6102f06004803603604081101561049857600080fd5b506001600160a01b038135811691602001351661100a565b6102e6600480360360408110156104c657600080fd5b8101906020810181356401000000008111156104e157600080fd5b8201836020820111156104f357600080fd5b8035906020019184600183028401116401000000008311171561051557600080fd5b91908080601f016020809104026020016040519081016040528093929190818152602001838380828437600092019190915250929594936020810193503591505064010000000081111561056857600080fd5b82018360208201111561057a57600080fd5b8035906020019184600183028401116401000000008311171561059c57600080fd5b91908080601f016020809104026020016040519081016040528093929190818152602001838380828437600092019190915250929550611035945050505050565b6102e6600480360360208110156105f357600080fd5b50356001600160a01b03166110aa565b61026461114f565b61061361115e565b60408051600f9290920b8252519081900360200190f35b6102f0611167565b6000805460408051602060026001851615610100026000190190941693909304601f810184900484028201840190925281815292918301828280156106b85780601f1061068d576101008083540402835291602001916106b8565b820191906000526020600020905b81548152906001019060200180831161069b57829003601f168201915b505050505081565b6006546001600160a01b031681565b60008115806106ff57503360009081526004602090815260408083206001600160a01b0387168452909152902054155b61070557fe5b3360008181526004602090815260408083206001600160a01b03881680855290835292819020869055805186815290519293927f8c5be1e5ebec7d5bd14f71427d1e84f3dd0314c0f7b2291e5b200ac8c7c3b925929181900390910190a35060015b92915050565b6007546001600160a01b031633146107be576040805162461bcd60e51b815260206004820152600f60248201526e6465763a2061646d696e206f6e6c7960881b604482015290519081900360640190fd5b6006546001600160a01b0316156108065760405162461bcd60e51b815260040180806020018281038252602e8152602001806117aa602e913960400191505060405180910390fd5b600680546001600160a01b0383166001600160a01b0319909116811790915560408051918252517fcec52196e972044edde8689a1b608e459c5946b7f3e5c8cd3d6d8e126d422e1c9181900360200190a150565b6005545b90565b60006001600160a01b0384166108a85760405162461bcd60e51b81526004018080602001828103825260258152602001806117856025913960400191505060405180910390fd5b6001600160a01b0383166108ed5760405162461bcd60e51b81526004018080602001828103825260238152602001806116de6023913960400191505060405180910390fd5b6001600160a01b03841660009081526003602052604090205461091090836111ce565b6001600160a01b03808616600090815260036020526040808220939093559085168152205461093f908361116d565b6001600160a01b03808516600090815260036020908152604080832094909455918716815260048252828120338252909152205461097d90836111ce565b6001600160a01b0380861660008181526004602090815260408083203384528252918290209490945580518681529051928716939192600080516020611765833981519152929181900390910190a35060019392505050565b60006109e0611210565b905090565b600a5481565b60025490565b60025481565b60055481565b6006546000906001600160a01b03163314610a52576040805162461bcd60e51b815260206004820152601060248201526f6465763a206d696e746572206f6e6c7960801b604482015290519081900360640190fd5b6001600160a01b038316610aa1576040805162461bcd60e51b81526020600482015260116024820152706465763a207a65726f206164647265737360781b604482015290519081900360640190fd5b610aab838361124b565b50600192915050565b33600090815260036020526040812054821115610b18576040805162461bcd60e51b815260206004820152601e60248201527f5f76616c7565203e2062616c616e63654f665b6d73672e73656e6465725d0000604482015290519081900360640190fd5b33600090815260036020526040902054610b3290836111ce565b33600090815260036020526040902055600554610b4f90836111ce565b60055560408051838152905160009133916000805160206117658339815191529181900360200190a3506001919050565b600a5490565b600c5481565b60036020526000908152604090205481565b60095481565b60018054604080516020600284861615610100026000190190941693909304601f810184900484028201840190925281815292918301828280156106b85780601f1061068d576101008083540402835291602001916106b8565b60006001600160a01b038316610c455760405162461bcd60e51b81526004018080602001828103825260258152602001806117fc6025913960400191505060405180910390fd5b33600090815260036020526040902054610c5f90836111ce565b33600090815260036020526040808220929092556001600160a01b03851681522054610c8b908361116d565b6001600160a01b0384166000818152600360209081526040918290209390935580518581529051919233926000805160206117658339815191529281900390910190a350600192915050565b600954600090610ceb816301e1338061116d565b4210610d0357610cf9611331565b505060095461085e565b905061085e565b5090565b600954600090610d22816301e1338061116d565b4210610d4957610d30611331565b600954610d41906301e1338061116d565b91505061085e565b610d41816301e1338061116d565b600954610d68906301e1338061116d565b421015610dad576040805162461bcd60e51b815260206004820152600e60248201526d6465763a20746f6f20736f6f6e2160901b604482015290519081900360640190fd5b610db5611331565b565b6006546001600160a01b03163314610e09576040805162461bcd60e51b815260206004820152601060248201526f6465763a206d696e746572206f6e6c7960801b604482015290519081900360640190fd5b600c54610e16908361116d565b600c55610e23818361124b565b5050565b600081831115610e71576040805162461bcd60e51b815260206004820152601060248201526f19195d8e881cdd185c9d080f88195b9960821b604482015290519081900360640190fd5b600954600a5460009190610e89826301e1338061116d565b851115610ec757610e9e826301e1338061116d565b9150610ec4671080e992061ab300610ebe83670de0b6b3a7640000611444565b9061149d565b90505b610ed5826301e1338061116d565b851115610f22576040805162461bcd60e51b81526020600482015260166024820152756465763a20746f6f2066617220696e2066757475726560501b604482015290519081900360640190fd5b60005b6103e7811015610fff57828610610fb55785610f45846301e1338061116d565b811115610f5d57610f5a846301e1338061116d565b90505b87610f6c856301e1338061116d565b8110610f79575050610fff565b84811015610f845750835b610fa2610f9b610f9484846111ce565b8690611444565b879061116d565b9550848910610fb2575050610fff565b50505b610fc3836301e133806111ce565b9250610fe3670de0b6b3a7640000610ebe84671080e992061ab300611444565b91506778ef89edad16a615821115610ff757fe5b600101610f25565b509195945050505050565b6001600160a01b03918216600090815260046020908152604080832093909416825291909152205490565b6007546001600160a01b0316331461107e5760405162461bcd60e51b81526004018080602001828103825260248152602001806117d86024913960400191505060405180910390fd5b8151611091906000906020850190611653565b5080516110a5906001906020840190611653565b505050565b6007546001600160a01b031633146110fb576040805162461bcd60e51b815260206004820152600f60248201526e6465763a2061646d696e206f6e6c7960881b604482015290519081900360640190fd5b600780546001600160a01b0383166001600160a01b0319909116811790915560408051918252517f5a272403b402d892977df56625f4164ccaf70ca3863991c43ecfe76a6905b0a19181900360200190a150565b6007546001600160a01b031681565b600854600f0b81565b600b5481565b6000828201838110156111c7576040805162461bcd60e51b815260206004820152601b60248201527f536166654d6174683a206164646974696f6e206f766572666c6f770000000000604482015290519081900360640190fd5b9392505050565b60006111c783836040518060400160405280601e81526020017f536166654d6174683a207375627472616374696f6e206f766572666c6f7700008152506114df565b60006109e0600c5461124561123c600a54611236600954426111ce90919063ffffffff16565b90611444565b600b549061116d565b9061116d565b60095461125c906301e1338061116d565b421061126a5761126a611331565b60055460009061127a908361116d565b9050611284611210565b8111156112c25760405162461bcd60e51b81526004018080602001828103825260228152602001806117226022913960400191505060405180910390fd5b60058190556001600160a01b0383166000908152600360205260409020546112ea908361116d565b6001600160a01b03841660008181526003602090815260408083209490945583518681529351929391926000805160206117658339815191529281900390910190a3505050565b600a54600b54600954611348906301e1338061116d565b60095560085461136090600f90810b900b6001611576565b60088054600f9290920b6fffffffffffffffffffffffffffffffff166fffffffffffffffffffffffffffffffff19909216919091179055816113ac576778ef89edad16a61591506113ec565b6113c46113bd836301e13380611444565b829061116d565b600b81905590506113e9671080e992061ab300610ebe84670de0b6b3a7640000611444565b91505b600a8290556008546040805142815260208101859052808201849052600f92830b90920b6060830152517f1906815cda4aeefd342ad3696a8d91e255921a306157d8a4fdbd62c52467391e9181900360800190a15050565b60008261145357506000610767565b8282028284828161146057fe5b04146111c75760405162461bcd60e51b81526004018080602001828103825260218152602001806117446021913960400191505060405180910390fd5b60006111c783836040518060400160405280601a81526020017f536166654d6174683a206469766973696f6e206279207a65726f0000000000008152506115ee565b6000818484111561156e5760405162461bcd60e51b81526004018080602001828103825283818151815260200191508051906020019080838360005b8381101561153357818101518382015260200161151b565b50505050905090810190601f1680156115605780820380516001836020036101000a031916815260200191505b509250505060405180910390fd5b505050900390565b6000828201600f83900b8213801590611595575083600f0b81600f0b12155b806115b35750600083600f0b1280156115b3575083600f0b81600f0b125b6111c75760405162461bcd60e51b81526004018080602001828103825260218152602001806117016021913960400191505060405180910390fd5b6000818361163d5760405162461bcd60e51b815260206004820181815283516024840152835190928392604490910191908501908083836000831561153357818101518382015260200161151b565b50600083858161164957fe5b0495945050505050565b828054600181600116156101000203166002900490600052602060002090601f016020900481019282601f1061169457805160ff19168380011785556116c1565b828001600101855582156116c1579182015b828111156116c15782518255916020019190600101906116a6565b50610d0a9291505b80821115610d0a57600081556001016116c956fe45524332303a207472616e7366657220746f20746865207a65726f20616464726573735369676e6564536166654d6174683a206164646974696f6e206f766572666c6f776465763a206578636565647320616c6c6f7761626c65206d696e7420616d6f756e74536166654d6174683a206d756c7469706c69636174696f6e206f766572666c6f77ddf252ad1be2c89b69c2b068fc378daa952ba7f163c4a11628f55a4df523b3ef45524332303a207472616e736665722066726f6d20746865207a65726f20616464726573736465763a2063616e2073657420746865206d696e746572206f6e6c79206f6e63652c206174206372656174696f6e4f6e6c792061646d696e20697320616c6c6f77656420746f206368616e6765206e616d656465763a207472616e736665727320746f2030783020617265206e6f7420616c6c6f776564a26469706673582212209170dd1300d97ddcdfefd212e9796cf999f097050ccb1ee70297a0ff69c4b1d864736f6c634300060c0033",
  "linkReferences": {},
  "deployedLinkReferences": {}
}