{
  "_format": "hh-sol-artifact-1",
  "contractName": "PoolProxy",
  "sourceName": "contracts/PoolProxy.sol",
  "abi": [
    {
      "inputs": [
        {
          "internalType": "address",
          "name": "_ownership_admin",
          "type": "address"
        },
        {
          "internalType": "address",
          "name": "_parameter_admin",
          "type": "address"
        },
        {
          "internalType": "address",
          "name": "_emergency_admin",
          "type": "address"
        }
      ],
      "stateMutability": "nonpayable",
      "type": "constructor"
    },
    {
      "anonymous": false,
      "inputs": [
        {
          "indexed": false,
          "internalType": "address",
          "name": "distributor",
          "type": "address"
        }
      ],
      "name": "AddDistributor",
      "type": "event"
    },
    {
      "anonymous": false,
      "inputs": [
        {
          "indexed": false,
          "internalType": "address",
          "name": "ownership_admin",
          "type": "address"
        },
        {
          "indexed": false,
          "internalType": "address",
          "name": "parameter_admin",
          "type": "address"
        },
        {
          "indexed": false,
          "internalType": "address",
          "name": "emergency_admin",
          "type": "address"
        }
      ],
      "name": "ApplyAdmins",
      "type": "event"
    },
    {
      "anonymous": false,
      "inputs": [
        {
          "indexed": false,
          "internalType": "address",
          "name": "pool_address",
          "type": "address"
        },
        {
          "indexed": false,
          "internalType": "address",
          "name": "reporting_admin",
          "type": "address"
        }
      ],
      "name": "ApplyReportingAdmins",
      "type": "event"
    },
    {
      "anonymous": false,
      "inputs": [
        {
          "indexed": false,
          "internalType": "address",
          "name": "ownership_admin",
          "type": "address"
        },
        {
          "indexed": false,
          "internalType": "address",
          "name": "parameter_admin",
          "type": "address"
        },
        {
          "indexed": false,
          "internalType": "address",
          "name": "emergency_admin",
          "type": "address"
        }
      ],
      "name": "CommitAdmins",
      "type": "event"
    },
    {
      "anonymous": false,
      "inputs": [
        {
          "indexed": false,
          "internalType": "address",
          "name": "pool_address",
          "type": "address"
        },
        {
          "indexed": false,
          "internalType": "address",
          "name": "reporting_admin",
          "type": "address"
        }
      ],
      "name": "CommitReportingAdmins",
      "type": "event"
    },
    {
      "stateMutability": "payable",
      "type": "fallback"
    },
    {
      "inputs": [
        {
          "internalType": "address",
          "name": "_token",
          "type": "address"
        },
        {
          "internalType": "string",
          "name": "_name",
          "type": "string"
        },
        {
          "internalType": "address",
          "name": "_addr",
          "type": "address"
        }
      ],
      "name": "add_distributor",
      "outputs": [
        {
          "internalType": "bool",
          "name": "",
          "type": "bool"
        }
      ],
      "stateMutability": "nonpayable",
      "type": "function"
    },
    {
      "inputs": [
        {
          "internalType": "address",
          "name": "_pool",
          "type": "address"
        },
        {
          "internalType": "uint256",
          "name": "_pending",
          "type": "uint256"
        },
        {
          "internalType": "uint256",
          "name": "_payoutNumerator",
          "type": "uint256"
        },
        {
          "internalType": "uint256",
          "name": "_payoutDenominator",
          "type": "uint256"
        },
        {
          "internalType": "uint256",
          "name": "_incidentTimestamp",
          "type": "uint256"
        },
        {
          "internalType": "bytes32[]",
          "name": "_targets",
          "type": "bytes32[]"
        }
      ],
      "name": "apply_cover",
      "outputs": [],
      "stateMutability": "nonpayable",
      "type": "function"
    },
    {
      "inputs": [],
      "name": "apply_set_admins",
      "outputs": [],
      "stateMutability": "nonpayable",
      "type": "function"
    },
    {
      "inputs": [
        {
          "internalType": "address",
          "name": "_pool",
          "type": "address"
        }
      ],
      "name": "apply_set_reporting_admin",
      "outputs": [],
      "stateMutability": "nonpayable",
      "type": "function"
    },
    {
      "inputs": [
        {
          "internalType": "address",
          "name": "_factory",
          "type": "address"
        }
      ],
      "name": "apply_transfer_ownership_factory",
      "outputs": [],
      "stateMutability": "nonpayable",
      "type": "function"
    },
    {
      "inputs": [
        {
          "internalType": "address",
          "name": "_parameters",
          "type": "address"
        }
      ],
      "name": "apply_transfer_ownership_parameters",
      "outputs": [],
      "stateMutability": "nonpayable",
      "type": "function"
    },
    {
      "inputs": [
        {
          "internalType": "address",
          "name": "_registry",
          "type": "address"
        }
      ],
      "name": "apply_transfer_ownership_registry",
      "outputs": [],
      "stateMutability": "nonpayable",
      "type": "function"
    },
    {
      "inputs": [
        {
          "internalType": "address",
          "name": "_vault",
          "type": "address"
        }
      ],
      "name": "apply_transfer_ownership_vault",
      "outputs": [],
      "stateMutability": "nonpayable",
      "type": "function"
    },
    {
      "inputs": [
        {
          "internalType": "address",
          "name": "_factory",
          "type": "address"
        },
        {
          "internalType": "address",
          "name": "_template_addr",
          "type": "address"
        },
        {
          "internalType": "uint256",
          "name": "_slot",
          "type": "uint256"
        },
        {
          "internalType": "address",
          "name": "_target",
          "type": "address"
        },
        {
          "internalType": "bool",
          "name": "_approval",
          "type": "bool"
        }
      ],
      "name": "approve_reference",
      "outputs": [],
      "stateMutability": "nonpayable",
      "type": "function"
    },
    {
      "inputs": [
        {
          "internalType": "address",
          "name": "_factory",
          "type": "address"
        },
        {
          "internalType": "address",
          "name": "_template_addr",
          "type": "address"
        },
        {
          "internalType": "bool",
          "name": "_approval",
          "type": "bool"
        },
        {
          "internalType": "bool",
          "name": "_isOpen",
          "type": "bool"
        }
      ],
      "name": "approve_template",
      "outputs": [],
      "stateMutability": "nonpayable",
      "type": "function"
    },
    {
      "inputs": [
        {
          "internalType": "address",
          "name": "_pool",
          "type": "address"
        },
        {
          "internalType": "string",
          "name": "_metadata",
          "type": "string"
        }
      ],
      "name": "change_metadata",
      "outputs": [],
      "stateMutability": "nonpayable",
      "type": "function"
    },
    {
      "inputs": [
        {
          "internalType": "address",
          "name": "_o_admin",
          "type": "address"
        },
        {
          "internalType": "address",
          "name": "_p_admin",
          "type": "address"
        },
        {
          "internalType": "address",
          "name": "_e_admin",
          "type": "address"
        }
      ],
      "name": "commit_set_admins",
      "outputs": [],
      "stateMutability": "nonpayable",
      "type": "function"
    },
    {
      "inputs": [
        {
          "internalType": "address",
          "name": "_pool",
          "type": "address"
        },
        {
          "internalType": "address",
          "name": "_r_admin",
          "type": "address"
        }
      ],
      "name": "commit_set_reporting_admin",
      "outputs": [],
      "stateMutability": "nonpayable",
      "type": "function"
    },
    {
      "inputs": [
        {
          "internalType": "address",
          "name": "_factory",
          "type": "address"
        },
        {
          "internalType": "address",
          "name": "_future_admin",
          "type": "address"
        }
      ],
      "name": "commit_transfer_ownership_factory",
      "outputs": [],
      "stateMutability": "nonpayable",
      "type": "function"
    },
    {
      "inputs": [
        {
          "internalType": "address",
          "name": "_parameters",
          "type": "address"
        },
        {
          "internalType": "address",
          "name": "_future_owner",
          "type": "address"
        }
      ],
      "name": "commit_transfer_ownership_parameters",
      "outputs": [],
      "stateMutability": "nonpayable",
      "type": "function"
    },
    {
      "inputs": [
        {
          "internalType": "address",
          "name": "_registry",
          "type": "address"
        },
        {
          "internalType": "address",
          "name": "_future_admin",
          "type": "address"
        }
      ],
      "name": "commit_transfer_ownership_registry",
      "outputs": [],
      "stateMutability": "nonpayable",
      "type": "function"
    },
    {
      "inputs": [
        {
          "internalType": "address",
          "name": "_vault",
          "type": "address"
        },
        {
          "internalType": "address",
          "name": "_future_owner",
          "type": "address"
        }
      ],
      "name": "commit_transfer_ownership_vault",
      "outputs": [],
      "stateMutability": "nonpayable",
      "type": "function"
    },
    {
      "inputs": [
        {
          "internalType": "address",
          "name": "",
          "type": "address"
        },
        {
          "internalType": "uint256",
          "name": "",
          "type": "uint256"
        }
      ],
      "name": "distributable",
      "outputs": [
        {
          "internalType": "uint256",
          "name": "",
          "type": "uint256"
        }
      ],
      "stateMutability": "view",
      "type": "function"
    },
    {
      "inputs": [
        {
          "internalType": "address",
          "name": "_token",
          "type": "address"
        },
        {
          "internalType": "uint256",
          "name": "_id",
          "type": "uint256"
        }
      ],
      "name": "distribute",
      "outputs": [],
      "stateMutability": "nonpayable",
      "type": "function"
    },
    {
      "inputs": [
        {
          "internalType": "address[20]",
          "name": "_tokens",
          "type": "address[20]"
        },
        {
          "internalType": "uint256[20]",
          "name": "_ids",
          "type": "uint256[20]"
        }
      ],
      "name": "distribute_many",
      "outputs": [],
      "stateMutability": "nonpayable",
      "type": "function"
    },
    {
      "inputs": [],
      "name": "distributor_kill",
      "outputs": [
        {
          "internalType": "bool",
          "name": "",
          "type": "bool"
        }
      ],
      "stateMutability": "view",
      "type": "function"
    },
    {
      "inputs": [
        {
          "internalType": "address",
          "name": "",
          "type": "address"
        },
        {
          "internalType": "uint256",
          "name": "",
          "type": "uint256"
        }
      ],
      "name": "distributor_weight",
      "outputs": [
        {
          "internalType": "uint256",
          "name": "",
          "type": "uint256"
        }
      ],
      "stateMutability": "view",
      "type": "function"
    },
    {
      "inputs": [
        {
          "internalType": "address",
          "name": "",
          "type": "address"
        },
        {
          "internalType": "uint256",
          "name": "",
          "type": "uint256"
        }
      ],
      "name": "distributors",
      "outputs": [
        {
          "internalType": "string",
          "name": "name",
          "type": "string"
        },
        {
          "internalType": "address",
          "name": "addr",
          "type": "address"
        }
      ],
      "stateMutability": "view",
      "type": "function"
    },
    {
      "inputs": [],
      "name": "emergency_admin",
      "outputs": [
        {
          "internalType": "address",
          "name": "",
          "type": "address"
        }
      ],
      "stateMutability": "view",
      "type": "function"
    },
    {
      "inputs": [],
      "name": "future_emergency_admin",
      "outputs": [
        {
          "internalType": "address",
          "name": "",
          "type": "address"
        }
      ],
      "stateMutability": "view",
      "type": "function"
    },
    {
      "inputs": [],
      "name": "future_ownership_admin",
      "outputs": [
        {
          "internalType": "address",
          "name": "",
          "type": "address"
        }
      ],
      "stateMutability": "view",
      "type": "function"
    },
    {
      "inputs": [],
      "name": "future_parameter_admin",
      "outputs": [
        {
          "internalType": "address",
          "name": "",
          "type": "address"
        }
      ],
      "stateMutability": "view",
      "type": "function"
    },
    {
      "inputs": [
        {
          "internalType": "address",
          "name": "",
          "type": "address"
        }
      ],
      "name": "future_reporting_admin",
      "outputs": [
        {
          "internalType": "address",
          "name": "",
          "type": "address"
        }
      ],
      "stateMutability": "view",
      "type": "function"
    },
    {
      "inputs": [
        {
          "internalType": "address",
          "name": "_token",
          "type": "address"
        },
        {
          "internalType": "uint256",
          "name": "_id",
          "type": "uint256"
        }
      ],
      "name": "get_distributor_address",
      "outputs": [
        {
          "internalType": "address",
          "name": "",
          "type": "address"
        }
      ],
      "stateMutability": "view",
      "type": "function"
    },
    {
      "inputs": [
        {
          "internalType": "address",
          "name": "_token",
          "type": "address"
        },
        {
          "internalType": "uint256",
          "name": "_id",
          "type": "uint256"
        }
      ],
      "name": "get_distributor_name",
      "outputs": [
        {
          "internalType": "string",
          "name": "",
          "type": "string"
        }
      ],
      "stateMutability": "view",
      "type": "function"
    },
    {
      "inputs": [
        {
          "internalType": "address",
          "name": "",
          "type": "address"
        }
      ],
      "name": "n_distributors",
      "outputs": [
        {
          "internalType": "uint256",
          "name": "",
          "type": "uint256"
        }
      ],
      "stateMutability": "view",
      "type": "function"
    },
    {
      "inputs": [],
      "name": "ownership_admin",
      "outputs": [
        {
          "internalType": "address",
          "name": "",
          "type": "address"
        }
      ],
      "stateMutability": "view",
      "type": "function"
    },
    {
      "inputs": [],
      "name": "parameter_admin",
      "outputs": [
        {
          "internalType": "address",
          "name": "",
          "type": "address"
        }
      ],
      "stateMutability": "view",
      "type": "function"
    },
    {
      "inputs": [
        {
          "internalType": "address",
          "name": "",
          "type": "address"
        }
      ],
      "name": "reporting_admin",
      "outputs": [
        {
          "internalType": "address",
          "name": "",
          "type": "address"
        }
      ],
      "stateMutability": "view",
      "type": "function"
    },
    {
      "inputs": [
        {
          "internalType": "address",
          "name": "_registry",
          "type": "address"
        },
        {
          "internalType": "address",
          "name": "_address",
          "type": "address"
        },
        {
          "internalType": "address",
          "name": "_target",
          "type": "address"
        }
      ],
      "name": "set_cds",
      "outputs": [],
      "stateMutability": "nonpayable",
      "type": "function"
    },
    {
      "inputs": [
        {
          "internalType": "address",
          "name": "_factory",
          "type": "address"
        },
        {
          "internalType": "address",
          "name": "_template_addr",
          "type": "address"
        },
        {
          "internalType": "uint256",
          "name": "_slot",
          "type": "uint256"
        },
        {
          "internalType": "uint256",
          "name": "_target",
          "type": "uint256"
        }
      ],
      "name": "set_condition_factory",
      "outputs": [],
      "stateMutability": "nonpayable",
      "type": "function"
    },
    {
      "inputs": [
        {
          "internalType": "address",
          "name": "_parameters",
          "type": "address"
        },
        {
          "internalType": "bytes32",
          "name": "_reference",
          "type": "bytes32"
        },
        {
          "internalType": "bytes32",
          "name": "_target",
          "type": "bytes32"
        }
      ],
      "name": "set_condition_parameters",
      "outputs": [],
      "stateMutability": "nonpayable",
      "type": "function"
    },
    {
      "inputs": [
        {
          "internalType": "address",
          "name": "_vault",
          "type": "address"
        },
        {
          "internalType": "address",
          "name": "_controller",
          "type": "address"
        }
      ],
      "name": "set_controller",
      "outputs": [],
      "stateMutability": "nonpayable",
      "type": "function"
    },
    {
      "inputs": [
        {
          "internalType": "address",
          "name": "_token",
          "type": "address"
        },
        {
          "internalType": "uint256",
          "name": "_id",
          "type": "uint256"
        },
        {
          "internalType": "string",
          "name": "_name",
          "type": "string"
        },
        {
          "internalType": "address",
          "name": "_distributor",
          "type": "address"
        }
      ],
      "name": "set_distributor",
      "outputs": [],
      "stateMutability": "nonpayable",
      "type": "function"
    },
    {
      "inputs": [
        {
          "internalType": "bool",
          "name": "_is_killed",
          "type": "bool"
        }
      ],
      "name": "set_distributor_kill",
      "outputs": [],
      "stateMutability": "nonpayable",
      "type": "function"
    },
    {
      "inputs": [
        {
          "internalType": "address",
          "name": "_token",
          "type": "address"
        },
        {
          "internalType": "uint256",
          "name": "_id",
          "type": "uint256"
        },
        {
          "internalType": "uint256",
          "name": "_weight",
          "type": "uint256"
        }
      ],
      "name": "set_distributor_weight",
      "outputs": [
        {
          "internalType": "bool",
          "name": "",
          "type": "bool"
        }
      ],
      "stateMutability": "nonpayable",
      "type": "function"
    },
    {
      "inputs": [
        {
          "internalType": "address[20]",
          "name": "_tokens",
          "type": "address[20]"
        },
        {
          "internalType": "uint256[20]",
          "name": "_ids",
          "type": "uint256[20]"
        },
        {
          "internalType": "uint256[20]",
          "name": "_weights",
          "type": "uint256[20]"
        }
      ],
      "name": "set_distributor_weight_many",
      "outputs": [],
      "stateMutability": "nonpayable",
      "type": "function"
    },
    {
      "inputs": [
        {
          "internalType": "address",
          "name": "_parameters",
          "type": "address"
        },
        {
          "internalType": "address",
          "name": "_address",
          "type": "address"
        },
        {
          "internalType": "uint256",
          "name": "_target",
          "type": "uint256"
        }
      ],
      "name": "set_fee2",
      "outputs": [],
      "stateMutability": "nonpayable",
      "type": "function"
    },
    {
      "inputs": [
        {
          "internalType": "address",
          "name": "_parameters",
          "type": "address"
        },
        {
          "internalType": "address",
          "name": "_address",
          "type": "address"
        },
        {
          "internalType": "address",
          "name": "_target",
          "type": "address"
        }
      ],
      "name": "set_fee_model",
      "outputs": [],
      "stateMutability": "nonpayable",
      "type": "function"
    },
    {
      "inputs": [
        {
          "internalType": "address",
          "name": "_parameters",
          "type": "address"
        },
        {
          "internalType": "address",
          "name": "_address",
          "type": "address"
        },
        {
          "internalType": "uint256",
          "name": "_target",
          "type": "uint256"
        }
      ],
      "name": "set_grace",
      "outputs": [],
      "stateMutability": "nonpayable",
      "type": "function"
    },
    {
      "inputs": [
        {
          "internalType": "address",
          "name": "_parameters",
          "type": "address"
        },
        {
          "internalType": "address",
          "name": "_address",
          "type": "address"
        },
        {
          "internalType": "uint256",
          "name": "_target",
          "type": "uint256"
        }
      ],
      "name": "set_lockup",
      "outputs": [],
      "stateMutability": "nonpayable",
      "type": "function"
    },
    {
      "inputs": [
        {
          "internalType": "address",
          "name": "_vault",
          "type": "address"
        },
        {
          "internalType": "uint256",
          "name": "_min",
          "type": "uint256"
        }
      ],
      "name": "set_min",
      "outputs": [],
      "stateMutability": "nonpayable",
      "type": "function"
    },
    {
      "inputs": [
        {
          "internalType": "address",
          "name": "_parameters",
          "type": "address"
        },
        {
          "internalType": "address",
          "name": "_address",
          "type": "address"
        },
        {
          "internalType": "uint256",
          "name": "_target",
          "type": "uint256"
        }
      ],
      "name": "set_mindate",
      "outputs": [],
      "stateMutability": "nonpayable",
      "type": "function"
    },
    {
      "inputs": [
        {
          "internalType": "address",
          "name": "_pool",
          "type": "address"
        },
        {
          "internalType": "bool",
          "name": "_state",
          "type": "bool"
        }
      ],
      "name": "set_paused",
      "outputs": [],
      "stateMutability": "nonpayable",
      "type": "function"
    },
    {
      "inputs": [
        {
          "internalType": "address",
          "name": "_parameters",
          "type": "address"
        },
        {
          "internalType": "address",
          "name": "_address",
          "type": "address"
        },
        {
          "internalType": "uint256",
          "name": "_target",
          "type": "uint256"
        }
      ],
      "name": "set_premium2",
      "outputs": [],
      "stateMutability": "nonpayable",
      "type": "function"
    },
    {
      "inputs": [
        {
          "internalType": "address",
          "name": "_parameters",
          "type": "address"
        },
        {
          "internalType": "address",
          "name": "_address",
          "type": "address"
        },
        {
          "internalType": "address",
          "name": "_target",
          "type": "address"
        }
      ],
      "name": "set_premium_model",
      "outputs": [],
      "stateMutability": "nonpayable",
      "type": "function"
    },
    {
      "inputs": [
        {
          "internalType": "address",
          "name": "_registry",
          "type": "address"
        }
      ],
      "name": "set_registry",
      "outputs": [],
      "stateMutability": "nonpayable",
      "type": "function"
    },
    {
      "inputs": [
        {
          "internalType": "address",
          "name": "_parameters",
          "type": "address"
        },
        {
          "internalType": "address",
          "name": "_token",
          "type": "address"
        },
        {
          "internalType": "address",
          "name": "_vault",
          "type": "address"
        }
      ],
      "name": "set_vault",
      "outputs": [],
      "stateMutability": "nonpayable",
      "type": "function"
    },
    {
      "inputs": [
        {
          "internalType": "address",
          "name": "_parameters",
          "type": "address"
        },
        {
          "internalType": "address",
          "name": "_address",
          "type": "address"
        },
        {
          "internalType": "uint256",
          "name": "_target",
          "type": "uint256"
        }
      ],
      "name": "set_withdrawable",
      "outputs": [],
      "stateMutability": "nonpayable",
      "type": "function"
    },
    {
      "inputs": [
        {
          "internalType": "address",
          "name": "_registry",
          "type": "address"
        },
        {
          "internalType": "address",
          "name": "_market",
          "type": "address"
        }
      ],
      "name": "support_market",
      "outputs": [],
      "stateMutability": "nonpayable",
      "type": "function"
    },
    {
      "inputs": [
        {
          "internalType": "address",
          "name": "",
          "type": "address"
        }
      ],
      "name": "total_weights",
      "outputs": [
        {
          "internalType": "uint256",
          "name": "",
          "type": "uint256"
        }
      ],
      "stateMutability": "view",
      "type": "function"
    },
    {
      "inputs": [
        {
          "internalType": "address",
          "name": "_token",
          "type": "address"
        }
      ],
      "name": "withdraw_admin_fee",
      "outputs": [],
      "stateMutability": "nonpayable",
      "type": "function"
    }
  ],
  "bytecode": "0x608060405234801561001057600080fd5b5060405161381f38038061381f8339818101604052606081101561003357600080fd5b50805160208201516040909201516001600081905580546001600160a01b039384166001600160a01b031991821617909155600280549484169482169490941790935560038054929091169190921617905561378b806100946000396000f3fe6080604052600436106103765760003560e01c80637b15d2fc116101d1578063be0d320d11610102578063d77d924f116100a0578063f1e300bb1161006f578063f1e300bb1461110f578063f795e8c714611142578063f7d19898146111cd578063fb9321081461120657610376565b8063d77d924f14611043578063e0b2a4ae1461107c578063e2118bd2146110b7578063e5f72f94146110cc57610376565b8063c3dd4c34116100dc578063c3dd4c3414610f55578063ce4b8c6c14610f98578063d377509314610fcb578063d4d12f561461101057610376565b8063be0d320d14610e90578063c0ebf64214610ed5578063c376293514610f0857610376565b8063a2af83631161016f578063b327422b11610149578063b327422b14610dcf578063b5e41ac914610e08578063b9759a1a14610e4d578063ba02208d146105a457610376565b8063a2af836314610569578063a5b0b7e914610d77578063acfd19b214610d8c57610376565b8063824b5085116101ab578063824b508514610c355780638cb16c8a14610c4a5780639700f11c14610c8f5780639873587714610cd457610376565b80637b15d2fc14610bbf5780637baddcd114610bfa5780637fba19df146105a457610376565b80633c2fcbf4116102ab578063618939211161024957806369c4e7d51161022357806369c4e7d514610a535780636a32962314610aa6578063703b4db114610b5457806377a3289014610b8057610376565b806361893921146109f6578063680c778314610a0b57806369484e1914610a2057610376565b806340ad5b971161028557806340ad5b971461084557806347c8715f146109005780635866507a146109155780635b20aa621461092a57610376565b80633c2fcbf4146107b45780633ce7a353146107c95780633e5c1c871461080257610376565b80631ed4b2f01161031857806330cdb413116102f257806330cdb413146106ae578063313d0855146106f357806338a9879f146105a457806339e3ae8a1461056957610376565b80631ed4b2f014610569578063238cde161461061257806329e54c461461066557610376565b8063181414bc11610354578063181414bc146105265780631b2cfafd146105695780631db860a5146105a45780631ecc3be1146105d757610376565b80630bba96c3146103785780630dbf2b70146104495780631486882e14610498575b005b34801561038457600080fd5b506103766004803603608081101561039b57600080fd5b6001600160a01b0382351691602081013591810190606081016040820135600160201b8111156103ca57600080fd5b8201836020820111156103dc57600080fd5b803590602001918460018302840111600160201b831117156103fd57600080fd5b91908080601f016020809104026020016040519081016040528093929190818152602001838380828437600092019190915250929550505090356001600160a01b0316915061123f9050565b34801561045557600080fd5b5061047c6004803603602081101561046c57600080fd5b50356001600160a01b03166112cc565b604080516001600160a01b039092168252519081900360200190f35b3480156104a457600080fd5b5061037660048036036105008110156104bc57600080fd5b8101908080610280019060148060200260405190810160405280929190826014602002808284376000920191909152505060408051610280818101909252929594938181019392509060149083908390808284376000920191909152509194506112e79350505050565b34801561053257600080fd5b506103766004803603606081101561054957600080fd5b506001600160a01b038135811691602081013590911690604001356113f8565b34801561057557600080fd5b506103766004803603604081101561058c57600080fd5b506001600160a01b03813581169160200135166114bb565b3480156105b057600080fd5b50610376600480360360208110156105c757600080fd5b50356001600160a01b0316611575565b3480156105e357600080fd5b50610376600480360360408110156105fa57600080fd5b506001600160a01b03813581169160200135166115c4565b34801561061e57600080fd5b506106516004803603606081101561063557600080fd5b506001600160a01b038135169060208101359060400135611662565b604080519115158252519081900360200190f35b34801561067157600080fd5b506103766004803603608081101561068857600080fd5b506001600160a01b038135811691602081013590911690604081013590606001356116d0565b3480156106ba57600080fd5b506106e1600480360360208110156106d157600080fd5b50356001600160a01b0316611797565b60408051918252519081900360200190f35b3480156106ff57600080fd5b5061072c6004803603604081101561071657600080fd5b506001600160a01b0381351690602001356117a9565b6040518080602001836001600160a01b03168152602001828103825284818151815260200191508051906020019080838360005b83811015610778578181015183820152602001610760565b50505050905090810190601f1680156107a55780820380516001836020036101000a031916815260200191505b50935050505060405180910390f35b3480156107c057600080fd5b5061047c611860565b3480156107d557600080fd5b50610376600480360360408110156107ec57600080fd5b506001600160a01b03813516906020013561186f565b34801561080e57600080fd5b506103766004803603606081101561082557600080fd5b506001600160a01b03813581169160208101359091169060400135611904565b34801561085157600080fd5b50610376600480360361078081101561086957600080fd5b8101908080610280019060148060200260405190810160405280929190826014602002808284376000920191909152505060408051610280818101909252929594938181019392509060149083908390808284376000920191909152505060408051610280818101909252929594938181019392509060149083908390808284376000920191909152509194506119aa9350505050565b34801561090c57600080fd5b5061047c611a7c565b34801561092157600080fd5b5061047c611a8b565b34801561093657600080fd5b506106516004803603606081101561094d57600080fd5b6001600160a01b038235169190810190604081016020820135600160201b81111561097757600080fd5b82018360208201111561098957600080fd5b803590602001918460018302840111600160201b831117156109aa57600080fd5b91908080601f016020809104026020016040519081016040528093929190818152602001838380828437600092019190915250929550505090356001600160a01b03169150611a9a9050565b348015610a0257600080fd5b50610376611c13565b348015610a1757600080fd5b5061047c611cf0565b348015610a2c57600080fd5b5061037660048036036020811015610a4357600080fd5b50356001600160a01b0316611cff565b348015610a5f57600080fd5b50610376600480360360a0811015610a7657600080fd5b506001600160a01b0381358116916020810135821691604082013591606081013590911690608001351515611f73565b348015610ab257600080fd5b50610adf60048036036040811015610ac957600080fd5b506001600160a01b038135169060200135612044565b6040805160208082528351818301528351919283929083019185019080838360005b83811015610b19578181015183820152602001610b01565b50505050905090810190601f168015610b465780820380516001836020036101000a031916815260200191505b509250505060405180910390f35b348015610b6057600080fd5b5061037660048036036020811015610b7757600080fd5b503515156120f9565b348015610b8c57600080fd5b5061037660048036036060811015610ba357600080fd5b506001600160a01b038135169060208101359060400135612170565b348015610bcb57600080fd5b5061037660048036036040811015610be257600080fd5b506001600160a01b038135811691602001351661220d565b348015610c0657600080fd5b5061037660048036036040811015610c1d57600080fd5b506001600160a01b03813581169160200135166122ab565b348015610c4157600080fd5b5061047c612367565b348015610c5657600080fd5b5061037660048036036060811015610c6d57600080fd5b506001600160a01b038135811691602081013582169160409091013516612376565b348015610c9b57600080fd5b5061037660048036036060811015610cb257600080fd5b506001600160a01b038135811691602081013582169160409091013516612447565b348015610ce057600080fd5b50610376600480360360c0811015610cf757600080fd5b6001600160a01b03823516916020810135916040820135916060810135916080820135919081019060c0810160a0820135600160201b811115610d3957600080fd5b820183602082011115610d4b57600080fd5b803590602001918460208302840111600160201b83111715610d6c57600080fd5b5090925090506124f6565b348015610d8357600080fd5b5061047c61260a565b348015610d9857600080fd5b5061037660048036036060811015610daf57600080fd5b506001600160a01b03813581169160208101359091169060400135612619565b348015610ddb57600080fd5b506106e160048036036040811015610df257600080fd5b506001600160a01b0381351690602001356126bf565b348015610e1457600080fd5b5061037660048036036060811015610e2b57600080fd5b506001600160a01b0381358116916020810135821691604090910135166126dc565b348015610e5957600080fd5b5061037660048036036060811015610e7057600080fd5b506001600160a01b0381358116916020810135909116906040013561278b565b348015610e9c57600080fd5b5061037660048036036060811015610eb357600080fd5b506001600160a01b038135811691602081013582169160409091013516612831565b348015610ee157600080fd5b5061037660048036036020811015610ef857600080fd5b50356001600160a01b03166128e0565b348015610f1457600080fd5b5061037660048036036080811015610f2b57600080fd5b506001600160a01b0381358116916020810135909116906040810135151590606001351515612a07565b348015610f6157600080fd5b5061037660048036036060811015610f7857600080fd5b506001600160a01b03813581169160208101359091169060400135612ab1565b348015610fa457600080fd5b5061047c60048036036020811015610fbb57600080fd5b50356001600160a01b0316612b57565b348015610fd757600080fd5b5061037660048036036060811015610fee57600080fd5b506001600160a01b038135811691602081013582169160409091013516612b72565b34801561101c57600080fd5b506106e16004803603602081101561103357600080fd5b50356001600160a01b0316612c21565b34801561104f57600080fd5b5061047c6004803603604081101561106657600080fd5b506001600160a01b038135169060200135612c33565b34801561108857600080fd5b506103766004803603604081101561109f57600080fd5b506001600160a01b0381351690602001351515612c5e565b3480156110c357600080fd5b50610651612d76565b3480156110d857600080fd5b50610376600480360360608110156110ef57600080fd5b506001600160a01b03813581169160208101359091169060400135612d7f565b34801561111b57600080fd5b506103766004803603602081101561113257600080fd5b50356001600160a01b0316612e25565b34801561114e57600080fd5b506103766004803603604081101561116557600080fd5b6001600160a01b038235169190810190604081016020820135600160201b81111561118f57600080fd5b8201836020820111156111a157600080fd5b803590602001918460018302840111600160201b831117156111c257600080fd5b509092509050612e96565b3480156111d957600080fd5b506106e1600480360360408110156111f057600080fd5b506001600160a01b038135169060200135612f59565b34801561121257600080fd5b506103766004803603604081101561122957600080fd5b506001600160a01b038135169060200135612f76565b6001546001600160a01b03163314611295576040805162461bcd60e51b815260206004820152601460248201527337b7363c9037bbb732b939b434b81030b236b4b760611b604482015290519081900360640190fd5b61129d613647565b50604080518082019091528281526001600160a01b03821660208201526112c585858361302b565b5050505050565b6009602052600090815260409020546001600160a01b031681565b6002600054141561132d576040805162461bcd60e51b815260206004820152601f60248201526000805160206136f3833981519152604482015290519081900360640190fd5b600260005532331461133b57fe5b600f5460ff1615611389576040805162461bcd60e51b8152602060048201526013602482015272191a5cdd1c9a589d5d1a5bdb881ada5b1b1959606a1b604482015290519081900360640190fd5b60005b60148110156113ee5760008382601481106113a357fe5b60200201516001600160a01b031614156113bc576113ee565b6113e68382601481106113cb57fe5b60200201518383601481106113dc57fe5b602002015161310b565b60010161138c565b5050600160005550565b6002546001600160a01b03163314611447576040805162461bcd60e51b815260206004820152600d60248201526c1058d8d95cdcc819195b9a5959609a1b604482015290519081900360640190fd5b826001600160a01b031663e3371e6e83836040518363ffffffff1660e01b815260040180836001600160a01b0316815260200182815260200192505050600060405180830381600087803b15801561149e57600080fd5b505af11580156114b2573d6000803e3d6000fd5b50505050505050565b6001546001600160a01b0316331461150a576040805162461bcd60e51b815260206004820152600d60248201526c1058d8d95cdcc819195b9a5959609a1b604482015290519081900360640190fd5b816001600160a01b0316636b441a40826040518263ffffffff1660e01b815260040180826001600160a01b03168152602001915050600060405180830381600087803b15801561155957600080fd5b505af115801561156d573d6000803e3d6000fd5b505050505050565b806001600160a01b0316636a1c05ae6040518163ffffffff1660e01b8152600401600060405180830381600087803b1580156115b057600080fd5b505af11580156112c5573d6000803e3d6000fd5b6002546001600160a01b03163314611613576040805162461bcd60e51b815260206004820152600d60248201526c1058d8d95cdcc819195b9a5959609a1b604482015290519081900360640190fd5b816001600160a01b031663cab4f84c826040518263ffffffff1660e01b815260040180826001600160a01b03168152602001915050600060405180830381600087803b15801561155957600080fd5b6002546000906001600160a01b031633146116bb576040805162461bcd60e51b815260206004820152601460248201527337b7363c903830b930b6b2ba32b91030b236b4b760611b604482015290519081900360640190fd5b6116c68484846132d1565b5060019392505050565b6002546001600160a01b0316331461171f576040805162461bcd60e51b815260206004820152600d60248201526c1058d8d95cdcc819195b9a5959609a1b604482015290519081900360640190fd5b60408051630b17d18160e21b81526001600160a01b038086166004830152602482018590526044820184905291518592871691632c5f460491606480830192600092919082900301818387803b15801561177857600080fd5b505af115801561178c573d6000803e3d6000fd5b505050505050505050565b600e6020526000908152604090205481565b600a60209081526000928352604080842082529183529181902080548251601f6002600019610100600186161502019093169290920491820185900485028101850190935280835290928391908301828280156118475780601f1061181c57610100808354040283529160200191611847565b820191906000526020600020905b81548152906001019060200180831161182a57829003601f168201915b505050600190930154919250506001600160a01b031682565b6006546001600160a01b031681565b6002546001600160a01b031633146118be576040805162461bcd60e51b815260206004820152600d60248201526c1058d8d95cdcc819195b9a5959609a1b604482015290519081900360640190fd5b816001600160a01b03166345dc3dd8826040518263ffffffff1660e01b815260040180828152602001915050600060405180830381600087803b15801561155957600080fd5b6002546001600160a01b03163314611953576040805162461bcd60e51b815260206004820152600d60248201526c1058d8d95cdcc819195b9a5959609a1b604482015290519081900360640190fd5b826001600160a01b031663f5b3d8d983836040518363ffffffff1660e01b815260040180836001600160a01b0316815260200182815260200192505050600060405180830381600087803b15801561149e57600080fd5b6002546001600160a01b03163314611a00576040805162461bcd60e51b815260206004820152601460248201527337b7363c903830b930b6b2ba32b91030b236b4b760611b604482015290519081900360640190fd5b60005b6014811015611a76576000848260148110611a1a57fe5b60200201516001600160a01b03161415611a3357611a76565b611a6e848260148110611a4257fe5b6020020151848360148110611a5357fe5b6020020151848460148110611a6457fe5b60200201516132d1565b600101611a03565b50505050565b6001546001600160a01b031681565b6008546001600160a01b031681565b6001546000906001600160a01b03163314611af3576040805162461bcd60e51b815260206004820152601460248201527337b7363c9037bbb732b939b434b81030b236b4b760611b604482015290519081900360640190fd5b6001600160a01b038416611b4e576040805162461bcd60e51b815260206004820152601d60248201527f5f746f6b656e2063616e6e6f74206265207a65726f2061646472657373000000604482015290519081900360640190fd5b611b56613647565b506040805180820182528481526001600160a01b038085166020808401919091529087166000908152600b825283812054600a83528482208183528352939020825180519394938593611bad92849291019061365f565b50602091820151600191820180546001600160a01b0319166001600160a01b0392831617905588166000908152600b909252604090912054611bee9161340d565b6001600160a01b039096166000908152600b6020526040902095909555509392505050565b6001546001600160a01b03163314611c62576040805162461bcd60e51b815260206004820152600d60248201526c1058d8d95cdcc819195b9a5959609a1b604482015290519081900360640190fd5b600654600754600854600180546001600160a01b03199081166001600160a01b0395861690811790925560028054821694861694851790556003805490911692909416918217909355604080518481526020810184905280820183905290517fd61a16912efb9a1c5bd5361dff238b95f452672ded751a425c11db5e4f5881769181900360600190a1505050565b6003546001600160a01b031681565b60026000541415611d45576040805162461bcd60e51b815260206004820152601f60248201526000805160206136f3833981519152604482015290519081900360640190fd5b60026000556001600160a01b038116611da5576040805162461bcd60e51b815260206004820152601d60248201527f5f746f6b656e2063616e6e6f74206265207a65726f2061646472657373000000604482015290519081900360640190fd5b600554604080516301d735e760e31b81526001600160a01b03848116600483015291516000939290921691630eb9af3891602480820192602092909190829003018186803b158015611df657600080fd5b505afa158015611e0a573d6000803e3d6000fd5b505050506040513d6020811015611e2057600080fd5b50516040805163231b024760e01b815230600482015290519192506000916001600160a01b0384169163231b024791602480830192602092919082900301818787803b158015611e6f57600080fd5b505af1158015611e83573d6000803e3d6000fd5b505050506040513d6020811015611e9957600080fd5b5051905080156113ee5760005b6001600160a01b0384166000908152600b6020526040902054811015611f68576001600160a01b0384166000818152600c60209081526040808320858452825280832054938352600e909152812054611f0990611f03868561346e565b906134c7565b6001600160a01b0387166000908152600d60209081526040808320878452909152902054909150611f3a908261340d565b6001600160a01b0387166000908152600d602090815260408083208784529091529020555050600101611ea6565b505050600160005550565b6002546001600160a01b03163314611fc2576040805162461bcd60e51b815260206004820152600d60248201526c1058d8d95cdcc819195b9a5959609a1b604482015290519081900360640190fd5b604080516372abf99f60e01b81526001600160a01b0380871660048301526024820186905284811660448301528315156064830152915186928816916372abf99f91608480830192600092919082900301818387803b15801561202457600080fd5b505af1158015612038573d6000803e3d6000fd5b50505050505050505050565b6001600160a01b0382166000908152600a6020908152604080832084845282529182902080548351601f60026000196101006001861615020190931692909204918201849004840281018401909452808452606093928301828280156120eb5780601f106120c0576101008083540402835291602001916120eb565b820191906000526020600020905b8154815290600101906020018083116120ce57829003601f168201915b505050505090505b92915050565b6003546001600160a01b031633148061211c57506001546001600160a01b031633145b61215d576040805162461bcd60e51b815260206004820152600d60248201526c1058d8d95cdcc819195b9a5959609a1b604482015290519081900360640190fd5b600f805460ff1916911515919091179055565b6002546001600160a01b031633146121bf576040805162461bcd60e51b815260206004820152600d60248201526c1058d8d95cdcc819195b9a5959609a1b604482015290519081900360640190fd5b826001600160a01b0316633de890e083836040518363ffffffff1660e01b81526004018083815260200182815260200192505050600060405180830381600087803b15801561149e57600080fd5b6002546001600160a01b0316331461225c576040805162461bcd60e51b815260206004820152600d60248201526c1058d8d95cdcc819195b9a5959609a1b604482015290519081900360640190fd5b816001600160a01b03166392eefe9b826040518263ffffffff1660e01b815260040180826001600160a01b03168152602001915050600060405180830381600087803b15801561155957600080fd5b6001546001600160a01b031633146122fa576040805162461bcd60e51b815260206004820152600d60248201526c1058d8d95cdcc819195b9a5959609a1b604482015290519081900360640190fd5b6001600160a01b0382811660008181526009602090815260409182902080546001600160a01b0319169486169485179055815192835282019290925281517fe15c119784f6cb0c1c5bfdff4bb2f27803e1c8292a352a200e7212ca74303e15929181900390910190a15050565b6007546001600160a01b031681565b6001546001600160a01b031633146123c5576040805162461bcd60e51b815260206004820152600d60248201526c1058d8d95cdcc819195b9a5959609a1b604482015290519081900360640190fd5b600680546001600160a01b038086166001600160a01b031992831681179093556007805486831690841681179091556008805492861692909316821790925560408051938452602084019290925282820152517f78572131fd8b9a2e345c48a6afbf55bc1219e393553feac694f89889903d27049181900360600190a1505050565b6002546001600160a01b03163314612496576040805162461bcd60e51b815260206004820152600d60248201526c1058d8d95cdcc819195b9a5959609a1b604482015290519081900360640190fd5b826001600160a01b031663b3a86f6b83836040518363ffffffff1660e01b815260040180836001600160a01b03168152602001826001600160a01b0316815260200192505050600060405180830381600087803b15801561149e57600080fd5b6001600160a01b03878116600090815260046020526040902054163314612554576040805162461bcd60e51b815260206004820152600d60248201526c1058d8d95cdcc819195b9a5959609a1b604482015290519081900360640190fd5b866001600160a01b031663b0c458988787878787876040518763ffffffff1660e01b815260040180878152602001868152602001858152602001848152602001806020018281038252848482818152602001925060200280828437600081840152601f19601f820116905080830192505050975050505050505050600060405180830381600087803b1580156125e957600080fd5b505af11580156125fd573d6000803e3d6000fd5b5050505050505050505050565b6002546001600160a01b031681565b6002546001600160a01b03163314612668576040805162461bcd60e51b815260206004820152600d60248201526c1058d8d95cdcc819195b9a5959609a1b604482015290519081900360640190fd5b826001600160a01b03166390517d4683836040518363ffffffff1660e01b815260040180836001600160a01b0316815260200182815260200192505050600060405180830381600087803b15801561149e57600080fd5b600d60209081526000928352604080842090915290825290205481565b6002546001600160a01b0316331461272b576040805162461bcd60e51b815260206004820152600d60248201526c1058d8d95cdcc819195b9a5959609a1b604482015290519081900360640190fd5b826001600160a01b031663714ccf7b83836040518363ffffffff1660e01b815260040180836001600160a01b03168152602001826001600160a01b0316815260200192505050600060405180830381600087803b15801561149e57600080fd5b6002546001600160a01b031633146127da576040805162461bcd60e51b815260206004820152600d60248201526c1058d8d95cdcc819195b9a5959609a1b604482015290519081900360640190fd5b826001600160a01b031663cbd7ce4783836040518363ffffffff1660e01b815260040180836001600160a01b0316815260200182815260200192505050600060405180830381600087803b15801561149e57600080fd5b6002546001600160a01b03163314612880576040805162461bcd60e51b815260206004820152600d60248201526c1058d8d95cdcc819195b9a5959609a1b604482015290519081900360640190fd5b826001600160a01b031663c13460a783836040518363ffffffff1660e01b815260040180836001600160a01b03168152602001826001600160a01b0316815260200192505050600060405180830381600087803b15801561149e57600080fd5b6001546001600160a01b0316331461292f576040805162461bcd60e51b815260206004820152600d60248201526c1058d8d95cdcc819195b9a5959609a1b604482015290519081900360640190fd5b6001600160a01b0381811660009081526009602052604090205416612992576040805162461bcd60e51b8152602060048201526014602482015273199d5d1d5c994818591b5a5b881b9bdd081cd95d60621b604482015290519081900360640190fd5b6001600160a01b03808216600081815260096020908152604080832054600483529281902080546001600160a01b0319169390951692831790945583519283528201819052825190927f25586d79d3b8a59e3c270f76a759af0a46e0f3e85d8a3ba1eecca321b8e991ba928290030190a15050565b6002546001600160a01b03163314612a56576040805162461bcd60e51b815260206004820152600d60248201526c1058d8d95cdcc819195b9a5959609a1b604482015290519081900360640190fd5b604080516316173bbd60e11b81526001600160a01b0380861660048301528415156024830152831515604483015291518592871691632c2e777a91606480830192600092919082900301818387803b15801561177857600080fd5b6002546001600160a01b03163314612b00576040805162461bcd60e51b815260206004820152600d60248201526c1058d8d95cdcc819195b9a5959609a1b604482015290519081900360640190fd5b826001600160a01b0316636ee548d183836040518363ffffffff1660e01b815260040180836001600160a01b0316815260200182815260200192505050600060405180830381600087803b15801561149e57600080fd5b6004602052600090815260409020546001600160a01b031681565b6002546001600160a01b03163314612bc1576040805162461bcd60e51b815260206004820152600d60248201526c1058d8d95cdcc819195b9a5959609a1b604482015290519081900360640190fd5b826001600160a01b03166335db79e883836040518363ffffffff1660e01b815260040180836001600160a01b03168152602001826001600160a01b0316815260200192505050600060405180830381600087803b15801561149e57600080fd5b600b6020526000908152604090205481565b6001600160a01b039182166000908152600a6020908152604080832093835292905220600101541690565b60026000541415612ca4576040805162461bcd60e51b815260206004820152601f60248201526000805160206136f3833981519152604482015290519081900360640190fd5b60026000556003546001600160a01b0316331480612ccc57506001546001600160a01b031633145b612d0d576040805162461bcd60e51b815260206004820152600d60248201526c1058d8d95cdcc819195b9a5959609a1b604482015290519081900360640190fd5b816001600160a01b03166316c38b3c826040518263ffffffff1660e01b8152600401808215158152602001915050600060405180830381600087803b158015612d5557600080fd5b505af1158015612d69573d6000803e3d6000fd5b5050600160005550505050565b600f5460ff1681565b6002546001600160a01b03163314612dce576040805162461bcd60e51b815260206004820152600d60248201526c1058d8d95cdcc819195b9a5959609a1b604482015290519081900360640190fd5b826001600160a01b0316633e57930783836040518363ffffffff1660e01b815260040180836001600160a01b0316815260200182815260200192505050600060405180830381600087803b15801561149e57600080fd5b6001546001600160a01b03163314612e74576040805162461bcd60e51b815260206004820152600d60248201526c1058d8d95cdcc819195b9a5959609a1b604482015290519081900360640190fd5b600580546001600160a01b0319166001600160a01b0392909216919091179055565b6002546001600160a01b03163314612ee5576040805162461bcd60e51b815260206004820152600d60248201526c1058d8d95cdcc819195b9a5959609a1b604482015290519081900360640190fd5b604051636cdb112f60e11b8152602060048201908152602482018390526001600160a01b0385169163d9b6225e9185918591908190604401848480828437600081840152601f19601f8201169050808301925050509350505050600060405180830381600087803b15801561149e57600080fd5b600c60209081526000928352604080842090915290825290205481565b60026000541415612fbc576040805162461bcd60e51b815260206004820152601f60248201526000805160206136f3833981519152604482015290519081900360640190fd5b6002600055323314612fca57fe5b600f5460ff1615613018576040805162461bcd60e51b8152602060048201526013602482015272191a5cdd1c9a589d5d1a5bdb881ada5b1b1959606a1b604482015290519081900360640190fd5b613022828261310b565b50506001600055565b6001600160a01b0383166000908152600b60205260409020548210613087576040805162461bcd60e51b815260206004820152600d60248201526c1b9bdd081859191959081e595d609a1b604482015290519081900360640190fd5b60208101516001600160a01b03166130a5576130a5838360006132d1565b6001600160a01b0383166000908152600a6020908152604080832085845282529091208251805184936130dc92849291019061365f565b5060209190910151600190910180546001600160a01b0319166001600160a01b03909216919091179055505050565b6001600160a01b0382166000908152600b60205260409020548110613167576040805162461bcd60e51b815260206004820152600d60248201526c1b9bdd081859191959081e595d609a1b604482015290519081900360640190fd5b6001600160a01b038281166000818152600a60209081526040808320868452825280832060010154848452600d83528184208785528352818420805490859055825163095ea7b360e01b815291909616600482018190526024820187905291519195949363095ea7b39360448084019491939192918390030190829087803b1580156131f257600080fd5b505af1158015613206573d6000803e3d6000fd5b505050506040513d602081101561321c57600080fd5b5050604080516363453ae160e01b81526001600160a01b0386811660048301529151918416916363453ae1916024808201926020929091908290030181600087803b15801561326a57600080fd5b505af115801561327e573d6000803e3d6000fd5b505050506040513d602081101561329457600080fd5b5051611a765760405162461bcd60e51b81526004018080602001828103825260228152602001806137346022913960400191505060405180910390fd5b6001600160a01b0383166000908152600b6020526040902054821061332d576040805162461bcd60e51b815260206004820152600d60248201526c1b9bdd081859191959081e595d609a1b604482015290519081900360640190fd5b6001600160a01b038381166000908152600a602090815260408083208684529091529020600101541661339d576040805162461bcd60e51b8152602060048201526013602482015272191a5cdd1c9a589d5d1bdc881b9bdd081cd95d606a1b604482015290519081900360640190fd5b6001600160a01b0383166000818152600c602090815260408083208684528252808320805490869055938352600e9091529020548291906133ea9082906133e4908561340d565b90613509565b6001600160a01b039095166000908152600e602052604090209490945550505050565b600082820183811015613467576040805162461bcd60e51b815260206004820152601b60248201527f536166654d6174683a206164646974696f6e206f766572666c6f770000000000604482015290519081900360640190fd5b9392505050565b60008261347d575060006120f3565b8282028284828161348a57fe5b04146134675760405162461bcd60e51b81526004018080602001828103825260218152602001806137136021913960400191505060405180910390fd5b600061346783836040518060400160405280601a81526020017f536166654d6174683a206469766973696f6e206279207a65726f00000000000081525061354b565b600061346783836040518060400160405280601e81526020017f536166654d6174683a207375627472616374696f6e206f766572666c6f7700008152506135ed565b600081836135d75760405162461bcd60e51b81526004018080602001828103825283818151815260200191508051906020019080838360005b8381101561359c578181015183820152602001613584565b50505050905090810190601f1680156135c95780820380516001836020036101000a031916815260200191505b509250505060405180910390fd5b5060008385816135e357fe5b0495945050505050565b6000818484111561363f5760405162461bcd60e51b815260206004820181815283516024840152835190928392604490910191908501908083836000831561359c578181015183820152602001613584565b505050900390565b60408051808201909152606081526000602082015290565b828054600181600116156101000203166002900490600052602060002090601f016020900481019282601f106136a057805160ff19168380011785556136cd565b828001600101855582156136cd579182015b828111156136cd5782518255916020019190600101906136b2565b506136d99291506136dd565b5090565b5b808211156136d957600081556001016136de56fe5265656e7472616e637947756172643a207265656e7472616e742063616c6c00536166654d6174683a206d756c7469706c69636174696f6e206f766572666c6f776465763a2073686f756c6420696d706c656d656e7420646973747269627574652829a264697066735822122074a3a7fede29c624b457dc32117483783486d0233a1c45c9452e4b448ab0268f64736f6c634300060c0033",
  "linkReferences": {},
  "deployedLinkReferences": {}
}