{
  "_format": "hh-sol-artifact-1",
  "contractName": "TestVault",
  "sourceName": "contracts/testing/TestVault.sol",
  "abi": [
    {
      "inputs": [
        {
          "internalType": "address",
          "name": "_token",
          "type": "address"
        }
      ],
      "stateMutability": "nonpayable",
      "type": "constructor"
    },
    {
      "inputs": [
        {
          "internalType": "address",
          "name": "_to",
          "type": "address"
        }
      ],
      "name": "withdrawAllAttribution",
      "outputs": [
        {
          "internalType": "uint256",
          "name": "",
          "type": "uint256"
        }
      ],
      "stateMutability": "nonpayable",
      "type": "function"
    }
  ],
  "bytecode": "0x608060405234801561001057600080fd5b506040516102073803806102078339818101604052602081101561003357600080fd5b5051600080546001600160a01b039092166001600160a01b03199092169190911790556101a2806100656000396000f3fe608060405234801561001057600080fd5b506004361061002b5760003560e01c8063231b024714610030575b600080fd5b6100566004803603602081101561004657600080fd5b50356001600160a01b0316610068565b60408051918252519081900360200190f35b60008054604080516370a0823160e01b8152306004820152905183926001600160a01b0316916370a08231916024808301926020929190829003018186803b1580156100b357600080fd5b505afa1580156100c7573d6000803e3d6000fd5b505050506040513d60208110156100dd57600080fd5b5051600080546040805163a9059cbb60e01b81526001600160a01b03888116600483015260248201869052915194955091169263a9059cbb92604480840193602093929083900390910190829087803b15801561013957600080fd5b505af115801561014d573d6000803e3d6000fd5b505050506040513d602081101561016357600080fd5b5090939250505056fea2646970667358221220d9a9e0916ba307a8dd04b0e755649ea662a80350ba020eb9ab930df09162420464736f6c634300060c0033",
  "linkReferences": {},
  "deployedLinkReferences": {}
}