{
    "contractName": "TestConverter",
    "abi": [
        {
            "inputs": [
                {
                    "internalType": "address",
                    "name": "_insure",
                    "type": "address"
                }
            ],
            "stateMutability": "nonpayable",
            "type": "constructor"
        },
        {
            "inputs": [
                {
                    "internalType": "uint256",
                    "name": "_amountOut",
                    "type": "uint256"
                }
            ],
            "name": "getAmountsIn",
            "outputs": [
                {
                    "internalType": "uint256",
                    "name": "",
                    "type": "uint256"
                }
            ],
            "stateMutability": "pure",
            "type": "function"
        },
        {
            "inputs": [],
            "name": "insure_token",
            "outputs": [
                {
                    "internalType": "contract InsureToken",
                    "name": "",
                    "type": "address"
                }
            ],
            "stateMutability": "view",
            "type": "function"
        },
        {
            "inputs": [
                {
                    "internalType": "uint256",
                    "name": "_amountInMax",
                    "type": "uint256"
                },
                {
                    "internalType": "uint256",
                    "name": "_amountOut",
                    "type": "uint256"
                },
                {
                    "internalType": "address",
                    "name": "_to",
                    "type": "address"
                }
            ],
            "name": "swap_insure_to_exact",
            "outputs": [],
            "stateMutability": "nonpayable",
            "type": "function"
        }
    ],
    "bytecode": "608060405234801561001057600080fd5b506040516101753803806101758339818101604052602081101561003357600080fd5b5051600080546001600160a01b039092166001600160a01b0319909216919091179055610110806100656000396000f3fe6080604052348015600f57600080fd5b5060043610603c5760003560e01c8063255d591e1460415780639e62a8b214606d578063c73824db14608f575b600080fd5b605b60048036036020811015605557600080fd5b503560c0565b60408051918252519081900360200190f35b607360c6565b604080516001600160a01b039092168252519081900360200190f35b60be6004803603606081101560a357600080fd5b50803590602081013590604001356001600160a01b031660d5565b005b50603790565b6000546001600160a01b031681565b50505056fea264697066735822122082ab476ed8777733d076d3b36b868681197a296f589f885f6093424efa3ea4a464736f6c634300060c0033",
    "sourcePath": "/Users/mbs/insureDAO/insuredao-dao-contracts/contracts/testing/TestConverter.sol",
    "compiler": {
        "name": "solc",
        "version": "0.6.12+commit.27d51765"
    },
    "functionHashes": {
        "getAmountsIn(uint256)": "255d591e",
        "insure_token()": "9e62a8b2",
        "swap_insure_to_exact(uint256,uint256,address)": "c73824db"
    },
    "gasEstimates": {
        "creation": {
            "codeDepositCost": "54400",
            "executionCost": "infinite",
            "totalCost": "infinite"
        },
        "external": {
            "getAmountsIn(uint256)": "220",
            "insure_token()": "1037",
            "swap_insure_to_exact(uint256,uint256,address)": "262"
        }
    }
}